{
  "contractName": "ReviewStorage",
  "abi": [
    {
      "constant": false,
      "inputs": [
        {
          "name": "journalId",
          "type": "string"
        },
        {
          "name": "manuscriptId",
          "type": "string"
        },
        {
          "name": "manuscriptHash",
          "type": "string"
        },
        {
          "name": "timestamp",
          "type": "uint32"
        },
        {
          "name": "recommendation",
          "type": "uint8"
        }
      ],
      "name": "addReview",
      "outputs": [],
      "payable": false,
      "stateMutability": "nonpayable",
      "type": "function"
    },
    {
      "constant": true,
      "inputs": [
        {
          "name": "addr",
          "type": "address"
        },
        {
          "name": "index",
          "type": "uint8"
        }
      ],
      "name": "getReview",
      "outputs": [
        {
          "name": "",
          "type": "string"
        },
        {
          "name": "",
          "type": "string"
        },
        {
          "name": "",
          "type": "string"
        },
        {
          "name": "",
          "type": "uint32"
        },
        {
          "name": "",
          "type": "uint8"
        },
        {
          "name": "",
          "type": "bool"
        },
        {
          "name": "",
          "type": "address[]"
        }
      ],
      "payable": false,
      "stateMutability": "view",
      "type": "function"
    },
    {
      "constant": false,
      "inputs": [
        {
          "name": "addr",
          "type": "address"
        },
        {
          "name": "index",
          "type": "uint8"
        }
      ],
      "name": "vouch",
      "outputs": [],
      "payable": false,
      "stateMutability": "nonpayable",
      "type": "function"
    },
    {
      "constant": true,
      "inputs": [
        {
          "name": "addr",
          "type": "address"
        },
        {
          "name": "index",
          "type": "uint8"
        }
      ],
      "name": "hasVouched",
      "outputs": [
        {
          "name": "",
          "type": "bool"
        }
      ],
      "payable": false,
      "stateMutability": "view",
      "type": "function"
    },
    {
      "constant": true,
      "inputs": [
        {
          "name": "addr",
          "type": "address"
        },
        {
          "name": "index",
          "type": "uint256"
        }
      ],
      "name": "isVerified",
      "outputs": [
        {
          "name": "",
          "type": "bool"
        }
      ],
      "payable": false,
      "stateMutability": "view",
      "type": "function"
    }
  ],
  "bytecode": "0x608060405234801561001057600080fd5b506110c4806100206000396000f3fe608060405234801561001057600080fd5b50600436106100575760003560e01c8063089c0f161461005c578063111d857314610279578063164e19171461047f5780631a209776146104d0578063fa54a35614610536575b600080fd5b6100ab6004803603604081101561007257600080fd5b81019080803573ffffffffffffffffffffffffffffffffffffffff169060200190929190803560ff16906020019092919050505061059f565b604051808060200180602001806020018863ffffffff1663ffffffff1681526020018760028111156100d957fe5b60ff168152602001861515151581526020018060200185810385528c818151815260200191508051906020019080838360005b8381101561012757808201518184015260208101905061010c565b50505050905090810190601f1680156101545780820380516001836020036101000a031916815260200191505b5085810384528b818151815260200191508051906020019080838360005b8381101561018d578082015181840152602081019050610172565b50505050905090810190601f1680156101ba5780820380516001836020036101000a031916815260200191505b5085810383528a818151815260200191508051906020019080838360005b838110156101f35780820151818401526020810190506101d8565b50505050905090810190601f1680156102205780820380516001836020036101000a031916815260200191505b50858103825286818151815260200191508051906020019060200280838360005b8381101561025c578082015181840152602081019050610241565b505050509050019b50505050505050505050505060405180910390f35b61047d600480360360a081101561028f57600080fd5b81019080803590602001906401000000008111156102ac57600080fd5b8201836020820111156102be57600080fd5b803590602001918460018302840111640100000000831117156102e057600080fd5b91908080601f016020809104026020016040519081016040528093929190818152602001838380828437600081840152601f19601f8201169050808301925050505050505091929192908035906020019064010000000081111561034357600080fd5b82018360208201111561035557600080fd5b8035906020019184600183028401116401000000008311171561037757600080fd5b91908080601f016020809104026020016040519081016040528093929190818152602001838380828437600081840152601f19601f820116905080830192505050505050509192919290803590602001906401000000008111156103da57600080fd5b8201836020820111156103ec57600080fd5b8035906020019184600183028401116401000000008311171561040e57600080fd5b91908080601f016020809104026020016040519081016040528093929190818152602001838380828437600081840152601f19601f820116905080830192505050505050509192919290803563ffffffff169060200190929190803560ff169060200190929190505050610a09565b005b6104ce6004803603604081101561049557600080fd5b81019080803573ffffffffffffffffffffffffffffffffffffffff169060200190929190803560ff169060200190929190505050610bea565b005b61051c600480360360408110156104e657600080fd5b81019080803573ffffffffffffffffffffffffffffffffffffffff16906020019092919080359060200190929190505050610da0565b604051808215151515815260200191505060405180910390f35b6105856004803603604081101561054c57600080fd5b81019080803573ffffffffffffffffffffffffffffffffffffffff169060200190929190803560ff169060200190929190505050610e18565b604051808215151515815260200191505060405180910390f35b60608060606000806000606080600160008b73ffffffffffffffffffffffffffffffffffffffff1673ffffffffffffffffffffffffffffffffffffffff168152602001908152602001600020805480602002602001604051908101604052809291908181526020016000905b8282101561091f57838290600052602060002090600602016040518060e0016040529081600082018054600181600116156101000203166002900480601f0160208091040260200160405190810160405280929190818152602001828054600181600116156101000203166002900480156106c75780601f1061069c576101008083540402835291602001916106c7565b820191906000526020600020905b8154815290600101906020018083116106aa57829003601f168201915b50505050508152602001600182018054600181600116156101000203166002900480601f0160208091040260200160405190810160405280929190818152602001828054600181600116156101000203166002900480156107695780601f1061073e57610100808354040283529160200191610769565b820191906000526020600020905b81548152906001019060200180831161074c57829003601f168201915b50505050508152602001600282018054600181600116156101000203166002900480601f01602080910402602001604051908101604052809291908181526020018280546001816001161561010002031660029004801561080b5780601f106107e05761010080835404028352916020019161080b565b820191906000526020600020905b8154815290600101906020018083116107ee57829003601f168201915b505050505081526020016003820160009054906101000a900463ffffffff1663ffffffff1663ffffffff1681526020016003820160049054906101000a900460ff16600281111561085857fe5b600281111561086357fe5b81526020016003820160059054906101000a900460ff161515151581526020016004820180548060200260200160405190810160405280929190818152602001828054801561090757602002820191906000526020600020905b8160009054906101000a900473ffffffffffffffffffffffffffffffffffffffff1673ffffffffffffffffffffffffffffffffffffffff16815260200190600101908083116108bd575b5050505050815250508152602001906001019061060b565b505050509050808960ff168151811061093457fe5b602002602001015160000151818a60ff168151811061094f57fe5b602002602001015160200151828b60ff168151811061096a57fe5b602002602001015160400151838c60ff168151811061098557fe5b602002602001015160600151848d60ff16815181106109a057fe5b602002602001015160800151858e60ff16815181106109bb57fe5b602002602001015160a00151868f60ff16815181106109d657fe5b602002602001015160c0015186965085955084945080905097509750975097509750975097505092959891949750929550565b6000339050610a16610ed6565b6040518060e001604052808881526020018781526020018681526020018563ffffffff168152602001846002811115610a4b57fe5b81526020016000151581526020016000604051908082528060200260200182016040528015610a895781602001602082028038833980820191505090505b508152509050600160008373ffffffffffffffffffffffffffffffffffffffff1673ffffffffffffffffffffffffffffffffffffffff16815260200190815260200160002081908060018154018082558091505090600182039060005260206000209060060201600090919290919091506000820151816000019080519060200190610b16929190610f26565b506020820151816001019080519060200190610b33929190610f26565b506040820151816002019080519060200190610b50929190610f26565b5060608201518160030160006101000a81548163ffffffff021916908363ffffffff16021790555060808201518160030160046101000a81548160ff02191690836002811115610b9c57fe5b021790555060a08201518160030160056101000a81548160ff02191690831515021790555060c0820151816004019080519060200190610bdd929190610fa6565b5050505050505050505050565b60003390506000600160008573ffffffffffffffffffffffffffffffffffffffff1673ffffffffffffffffffffffffffffffffffffffff1681526020019081526020016000208360ff1681548110610c3e57fe5b90600052602060002090600602019050600015158160050160008473ffffffffffffffffffffffffffffffffffffffff1673ffffffffffffffffffffffffffffffffffffffff16815260200190815260200160002060009054906101000a900460ff1615151415610d6c57806004018290806001815401808255809150509060018203906000526020600020016000909192909190916101000a81548173ffffffffffffffffffffffffffffffffffffffff021916908373ffffffffffffffffffffffffffffffffffffffff1602179055505060018160050160008473ffffffffffffffffffffffffffffffffffffffff1673ffffffffffffffffffffffffffffffffffffffff16815260200190815260200160002060006101000a81548160ff0219169083151502179055505b600281600401805490501415610d9a5760018160030160056101000a81548160ff0219169083151502179055505b50505050565b600080600160008573ffffffffffffffffffffffffffffffffffffffff1673ffffffffffffffffffffffffffffffffffffffff1681526020019081526020016000208381548110610ded57fe5b906000526020600020906006020190508060030160059054906101000a900460ff1691505092915050565b6000803390506000600160008673ffffffffffffffffffffffffffffffffffffffff1673ffffffffffffffffffffffffffffffffffffffff1681526020019081526020016000208460ff1681548110610e6d57fe5b906000526020600020906006020190508060050160008373ffffffffffffffffffffffffffffffffffffffff1673ffffffffffffffffffffffffffffffffffffffff16815260200190815260200160002060009054906101000a900460ff169250505092915050565b6040518060e00160405280606081526020016060815260200160608152602001600063ffffffff16815260200160006002811115610f1057fe5b8152602001600015158152602001606081525090565b828054600181600116156101000203166002900490600052602060002090601f016020900481019282601f10610f6757805160ff1916838001178555610f95565b82800160010185558215610f95579182015b82811115610f94578251825591602001919060010190610f79565b5b509050610fa29190611030565b5090565b82805482825590600052602060002090810192821561101f579160200282015b8281111561101e5782518260006101000a81548173ffffffffffffffffffffffffffffffffffffffff021916908373ffffffffffffffffffffffffffffffffffffffff16021790555091602001919060010190610fc6565b5b50905061102c9190611055565b5090565b61105291905b8082111561104e576000816000905550600101611036565b5090565b90565b61109591905b8082111561109157600081816101000a81549073ffffffffffffffffffffffffffffffffffffffff02191690555060010161105b565b5090565b9056fea165627a7a72305820e5f78a09d1b0d860726dc76eef6b86c69d665facf3116305acecb8a5e17dc83d0029",
  "source": "pragma solidity ^0.5.0;\n\n/// @title A smart contract for storing peer reviews\n/// @author Kaan Uzdogan\n/// @notice\n/// @dev\ncontract ReviewStorage {\n  address[] usersAddresses;\n  enum Recommendation { ACCEPT, REVISE, REJECT }\n  struct Review {\n    string journalId; // ISSN\n    string manuscriptId; // DOI?\n    string manuscriptHash;\n    uint32 timestamp; // Unix time (32 bits), when review is published\n    Recommendation recommendation;\n    bool verified;\n    address[] vouchers;\n    mapping(address => bool) vouchersMap;\n  }\n  mapping (address => Review[]) reviewsMap; // An array of Reviews for each address\n\n\n  /// @notice Public method to add a review.\n  /// @dev Assumes the owner(author) of the review is the msg.sender\n  /// @param journalId - Typically ISSN number of the journal\n  /// @param manuscriptId - An identifier for the manuscript. This could be an internal id of a journal.\n  /// @param manuscriptHash - (Optional) Hash of the manuscript document\n  /// @param timestamp - uint32 Unix timestamp when review is published\n  /// @param recommendation - 0,1 or 2 for ACCEPT, REVIEW, REJECT\n  function addReview(string memory journalId, string memory manuscriptId, string memory manuscriptHash,\n   uint32 timestamp, Recommendation recommendation) public {\n    address sender = msg.sender;\n    Review memory review = Review({\n      journalId : journalId,\n      manuscriptId : manuscriptId,\n      manuscriptHash: manuscriptHash,\n      timestamp : timestamp,\n      recommendation : recommendation,\n      verified: false,\n      vouchers: new address[](0) // Init empty array\n    });\n    reviewsMap[sender].push(review);\n  }\n\n  /// @notice Returns the Review belonging to the paramater address on the parameter index.\n  /// @dev Returns the Review struct as an ordered key value object. e.g. {0: 'JOURNALID', 1: ....}\n  /// @param addr - The address of the author that is being queried.\n  /// @param index - Index of the review in the Review array of the author.\n  /// @return journalId\n  /// @return manuscriptId\n  /// @return manuscriptHash\n  /// @return timestamp\n  /// @return recommendation\n  /// @return verified - bool that is true if 2 or more accounts vouched the review.\n  /// @return vouchers - the list of addresses that vouched this review.\n  // TODO: Can have another function to retrieve private information of msg.sender.\n  function getReview(address addr, uint8 index) public view returns (string memory, string memory,\n    string memory, uint32, Recommendation, bool, address[] memory) {\n    Review[] memory reviews = reviewsMap[addr];\n    return (reviews[index].journalId, reviews[index].manuscriptId, reviews[index].manuscriptHash,\n      reviews[index].timestamp, reviews[index].recommendation, reviews[index].verified,\n      reviews[index].vouchers);\n  }\n\n  /// @notice Function to vouch a Review at the given address and index.\n  /// @dev Assumes the voucher is the msg.sender. Checks if the Review is already vouched by the same address.\n  /// @param addr - The address of the author that is being queried.\n  /// @param index - Index of the review in the Review array of the author.\n  function vouch(address addr, uint8 index) public {\n    address voucher = msg.sender;\n    Review storage review = reviewsMap[addr][index];\n    if (review.vouchersMap[voucher] == false){ // If not vouched by current voucher.\n      review.vouchers.push(voucher); // Add to vouchers.\n      review.vouchersMap[voucher] = true; // Mark voucher true.\n    }\n    if(review.vouchers.length == 2){\n      review.verified = true;\n    }\n  }\n  /// @notice Function to check if the Review at the given address and index is vouched by msg.sender.\n  /// @dev Assumes the voucher is the msg.sender.\n  /// @param addr - The address of the author that is being queried.\n  /// @param index - Index of the review in the Review array of the author.\n  /// @return bool showing that Review is vouched by the msg.sender.\n  function hasVouched(address addr, uint8 index) public view returns(bool) {\n    address voucher = msg.sender;\n    Review storage review = reviewsMap[addr][index];\n    return review.vouchersMap[voucher];\n  }\n  /// @notice Function to check if the Review at the given address and index is verified. I.e. vouched by 2 or more accounts.\n  /// @param addr - The address of the author that is being queried.\n  /// @param index - Index of the review in the Review array of the author.\n  /// @return bool showing if Review is verified.\n  function isVerified(address addr, uint index) public view returns(bool) {\n    Review storage review = reviewsMap[addr][index];\n    return review.verified;\n  }\n}\n",
  "sourcePath": "/home/kuzdogan/Desktop/repos/peer-review-app/contracts/ReviewStorage.sol",
  "compiler": {
    "name": "solc",
    "version": "0.5.8+commit.23d335f2.Emscripten.clang"
  },
  "schemaVersion": "3.0.11",
  "updatedAt": "2019-10-09T09:35:59.452Z",
  "devdoc": {
    "author": "Kaan Uzdogan",
    "methods": {
      "addReview(string,string,string,uint32,uint8)": {
        "details": "Assumes the owner(author) of the review is the msg.sender",
        "params": {
          "journalId": "- Typically ISSN number of the journal",
          "manuscriptHash": "- (Optional) Hash of the manuscript document",
          "manuscriptId": "- An identifier for the manuscript. This could be an internal id of a journal.",
          "recommendation": "- 0,1 or 2 for ACCEPT, REVIEW, REJECT",
          "timestamp": "- uint32 Unix timestamp when review is published"
        }
      },
      "getReview(address,uint8)": {
        "details": "Returns the Review struct as an ordered key value object. e.g. {0: 'JOURNALID', 1: ....}",
        "params": {
          "addr": "- The address of the author that is being queried.",
          "index": "- Index of the review in the Review array of the author."
        },
        "return": "journalIdmanuscriptIdmanuscriptHashtimestamprecommendationverified - bool that is true if 2 or more accounts vouched the review.vouchers - the list of addresses that vouched this review."
      },
      "hasVouched(address,uint8)": {
        "details": "Assumes the voucher is the msg.sender.",
        "params": {
          "addr": "- The address of the author that is being queried.",
          "index": "- Index of the review in the Review array of the author."
        },
        "return": "bool showing that Review is vouched by the msg.sender."
      },
      "isVerified(address,uint256)": {
        "params": {
          "addr": "- The address of the author that is being queried.",
          "index": "- Index of the review in the Review array of the author."
        },
        "return": "bool showing if Review is verified."
      },
      "vouch(address,uint8)": {
        "details": "Assumes the voucher is the msg.sender. Checks if the Review is already vouched by the same address.",
        "params": {
          "addr": "- The address of the author that is being queried.",
          "index": "- Index of the review in the Review array of the author."
        }
      }
    },
    "title": "A smart contract for storing peer reviews"
  },
  "userdoc": {
    "methods": {
      "addReview(string,string,string,uint32,uint8)": {
        "notice": "Public method to add a review."
      },
      "getReview(address,uint8)": {
        "notice": "Returns the Review belonging to the paramater address on the parameter index."
      },
      "hasVouched(address,uint8)": {
        "notice": "Function to check if the Review at the given address and index is vouched by msg.sender."
      },
      "isVerified(address,uint256)": {
        "notice": "Function to check if the Review at the given address and index is verified. I.e. vouched by 2 or more accounts."
      },
      "vouch(address,uint8)": {
        "notice": "Function to vouch a Review at the given address and index."
      }
    },
    "notice": "@dev"
  }
}