{
  "contractName": "ReviewStorage",
  "abi": [
    {
      "constant": false,
      "inputs": [
        {
          "internalType": "string",
          "name": "id",
          "type": "string"
        },
        {
          "internalType": "string",
          "name": "journalId",
          "type": "string"
        },
        {
          "internalType": "string",
          "name": "publisher",
          "type": "string"
        },
        {
          "internalType": "string",
          "name": "manuscriptId",
          "type": "string"
        },
        {
          "internalType": "string",
          "name": "manuscriptHash",
          "type": "string"
        },
        {
          "internalType": "uint32",
          "name": "timestamp",
          "type": "uint32"
        },
        {
          "internalType": "enum ReviewStorage.Recommendation",
          "name": "recommendation",
          "type": "uint8"
        },
        {
          "internalType": "string",
          "name": "url",
          "type": "string"
        }
      ],
      "name": "addReview",
      "outputs": [],
      "payable": false,
      "stateMutability": "nonpayable",
      "type": "function"
    },
    {
      "constant": false,
      "inputs": [
        {
          "internalType": "string[]",
          "name": "ids",
          "type": "string[]"
        },
        {
          "internalType": "string[]",
          "name": "journalIds",
          "type": "string[]"
        },
        {
          "internalType": "string[]",
          "name": "publishers",
          "type": "string[]"
        },
        {
          "internalType": "string[]",
          "name": "manuscriptIds",
          "type": "string[]"
        },
        {
          "internalType": "string[]",
          "name": "manuscriptHashes",
          "type": "string[]"
        },
        {
          "internalType": "uint32[]",
          "name": "timestamps",
          "type": "uint32[]"
        },
        {
          "internalType": "enum ReviewStorage.Recommendation[]",
          "name": "recommendations",
          "type": "uint8[]"
        },
        {
          "internalType": "string[]",
          "name": "urls",
          "type": "string[]"
        }
      ],
      "name": "addMultipleReviews",
      "outputs": [],
      "payable": false,
      "stateMutability": "nonpayable",
      "type": "function"
    },
    {
      "constant": false,
      "inputs": [
        {
          "internalType": "string[]",
          "name": "ids",
          "type": "string[]"
        },
        {
          "internalType": "string[]",
          "name": "journalIds",
          "type": "string[]"
        },
        {
          "internalType": "string[]",
          "name": "publishers",
          "type": "string[]"
        },
        {
          "internalType": "string[]",
          "name": "manuscriptIds",
          "type": "string[]"
        },
        {
          "internalType": "string[]",
          "name": "manuscriptHashes",
          "type": "string[]"
        },
        {
          "internalType": "uint32[]",
          "name": "timestamps",
          "type": "uint32[]"
        },
        {
          "internalType": "enum ReviewStorage.Recommendation[]",
          "name": "recommendations",
          "type": "uint8[]"
        },
        {
          "internalType": "string[]",
          "name": "urls",
          "type": "string[]"
        },
        {
          "internalType": "bool[]",
          "name": "verifieds",
          "type": "bool[]"
        }
      ],
      "name": "addMultipleReviewsAndVerifyByPublons",
      "outputs": [],
      "payable": false,
      "stateMutability": "nonpayable",
      "type": "function"
    },
    {
      "constant": true,
      "inputs": [
        {
          "internalType": "string",
          "name": "id",
          "type": "string"
        }
      ],
      "name": "getReview",
      "outputs": [
        {
          "internalType": "string",
          "name": "",
          "type": "string"
        },
        {
          "internalType": "string",
          "name": "",
          "type": "string"
        },
        {
          "internalType": "string",
          "name": "",
          "type": "string"
        },
        {
          "internalType": "string",
          "name": "",
          "type": "string"
        },
        {
          "internalType": "string",
          "name": "",
          "type": "string"
        },
        {
          "internalType": "uint32",
          "name": "",
          "type": "uint32"
        },
        {
          "internalType": "enum ReviewStorage.Recommendation",
          "name": "",
          "type": "uint8"
        },
        {
          "internalType": "string",
          "name": "",
          "type": "string"
        },
        {
          "internalType": "bool",
          "name": "",
          "type": "bool"
        },
        {
          "internalType": "address[]",
          "name": "",
          "type": "address[]"
        }
      ],
      "payable": false,
      "stateMutability": "view",
      "type": "function"
    },
    {
      "constant": true,
      "inputs": [
        {
          "internalType": "address",
          "name": "addr",
          "type": "address"
        }
      ],
      "name": "getReviewsArrayOfUser",
      "outputs": [
        {
          "internalType": "string[]",
          "name": "",
          "type": "string[]"
        }
      ],
      "payable": false,
      "stateMutability": "view",
      "type": "function"
    },
    {
      "constant": false,
      "inputs": [
        {
          "internalType": "string",
          "name": "id",
          "type": "string"
        }
      ],
      "name": "vouch",
      "outputs": [],
      "payable": false,
      "stateMutability": "nonpayable",
      "type": "function"
    },
    {
      "constant": true,
      "inputs": [
        {
          "internalType": "string",
          "name": "id",
          "type": "string"
        }
      ],
      "name": "hasVouched",
      "outputs": [
        {
          "internalType": "bool",
          "name": "",
          "type": "bool"
        }
      ],
      "payable": false,
      "stateMutability": "view",
      "type": "function"
    },
    {
      "constant": true,
      "inputs": [
        {
          "internalType": "string",
          "name": "id",
          "type": "string"
        }
      ],
      "name": "isVerified",
      "outputs": [
        {
          "internalType": "bool",
          "name": "",
          "type": "bool"
        }
      ],
      "payable": false,
      "stateMutability": "view",
      "type": "function"
    }
  ],
  "bytecode": "0x60806040527314b3a00c89bddb6c0577e518fca87ec19b1b23116000806101000a81548173ffffffffffffffffffffffffffffffffffffffff021916908373ffffffffffffffffffffffffffffffffffffffff16021790555034801561006457600080fd5b506126d4806100746000396000f3fe608060405234801561001057600080fd5b50600436106100a5576000357c010000000000000000000000000000000000000000000000000000000090048063b444dc7511610078578063b444dc7514610142578063b61873cf1461017b578063bfd95fd1146101ab578063f4ec8423146101c7576100a5565b806316901301146100aa578063234c76d5146100da578063436fc97f1461010a5780636a6e155314610126575b600080fd5b6100c460048036036100bf9190810190611b2c565b6101e3565b6040516100d19190612265565b60405180910390f35b6100f460048036036100ef9190810190611e65565b61030b565b6040516101019190612287565b60405180910390f35b610124600480360361011f9190810190611cc7565b610348565b005b610140600480360361013b9190810190611b55565b61076c565b005b61015c60048036036101579190810190611e65565b610ad7565b6040516101729a999897969594939291906122a2565b60405180910390f35b61019560048036036101909190810190611e65565b61104f565b6040516101a29190612287565b60405180910390f35b6101c560048036036101c09190810190611ea6565b6110cf565b005b6101e160048036036101dc9190810190611e65565b61134f565b005b6060600260008373ffffffffffffffffffffffffffffffffffffffff1673ffffffffffffffffffffffffffffffffffffffff168152602001908152602001600020805480602002602001604051908101604052809291908181526020016000905b82821015610300578382906000526020600020018054600181600116156101000203166002900480601f0160208091040260200160405190810160405280929190818152602001828054600181600116156101000203166002900480156102ec5780601f106102c1576101008083540402835291602001916102ec565b820191906000526020600020905b8154815290600101906020018083116102cf57829003601f168201915b505050505081526020019060010190610244565b505050509050919050565b60008060018360405161031e919061224e565b908152602001604051809103902090508060070160009054906101000a900460ff16915050919050565b8751895114801561035a575086518851145b8015610367575085518751145b8015610374575084518651145b8015610381575083518551145b801561038e575082518451145b801561039b575081518351145b80156103a8575080518251145b6103e7576040517f08c379a00000000000000000000000000000000000000000000000000000000081526004016103de9061236f565b60405180910390fd5b600088519050600033905060008090505b8262ffffff1681101561075e57600060018d838151811061041557fe5b602002602001015160405161042a9190612237565b908152602001604051809103902090508c828151811061044657fe5b60200260200101518160000190805190602001906104659291906114c7565b508b828151811061047257fe5b60200260200101518160010190805190602001906104919291906114c7565b508a828151811061049e57fe5b60200260200101518160020190805190602001906104bd9291906114c7565b508982815181106104ca57fe5b60200260200101518160030190805190602001906104e99291906114c7565b508882815181106104f657fe5b60200260200101518160040190805190602001906105159291906114c7565b5087828151811061052257fe5b60200260200101518160050160006101000a81548163ffffffff021916908363ffffffff16021790555086828151811061055857fe5b60200260200101518160050160046101000a81548160ff0219169083600381111561057f57fe5b021790555085828151811061059057fe5b60200260200101518160060190805190602001906105af9291906114c7565b508482815181106105bc57fe5b60200260200101511561065a5760018160070160006101000a81548160ff02191690831515021790555060405180602001604052806000809054906101000a900473ffffffffffffffffffffffffffffffffffffffff1673ffffffffffffffffffffffffffffffffffffffff1673ffffffffffffffffffffffffffffffffffffffff1681525081600801906001610654929190611547565b506106c1565b60008160070160006101000a81548160ff02191690831515021790555060006040519080825280602002602001820160405280156106a75781602001602082028038833980820191505090505b508160080190805190602001906106bf9291906115d1565b505b600260008473ffffffffffffffffffffffffffffffffffffffff1673ffffffffffffffffffffffffffffffffffffffff1681526020019081526020016000208d838151811061070c57fe5b6020026020010151908060018154018082558091505090600182039060005260206000200160009091929091909150908051906020019061074e9291906114c7565b50505080806001019150506103f8565b505050505050505050505050565b8651885114801561077e575085518751145b801561078b575084518651145b8015610798575083518551145b80156107a5575082518451145b80156107b2575081518351145b80156107bf575080518251145b6107fe576040517f08c379a00000000000000000000000000000000000000000000000000000000081526004016107f59061236f565b60405180910390fd5b600087519050600033905060008090505b8262ffffff16811015610aca57600060018c838151811061082c57fe5b60200260200101516040516108419190612237565b908152602001604051809103902090508b828151811061085d57fe5b602002602001015181600001908051906020019061087c9291906114c7565b508a828151811061088957fe5b60200260200101518160010190805190602001906108a89291906114c7565b508982815181106108b557fe5b60200260200101518160020190805190602001906108d49291906114c7565b508882815181106108e157fe5b60200260200101518160030190805190602001906109009291906114c7565b5087828151811061090d57fe5b602002602001015181600401908051906020019061092c9291906114c7565b5086828151811061093957fe5b60200260200101518160050160006101000a81548163ffffffff021916908363ffffffff16021790555085828151811061096f57fe5b60200260200101518160050160046101000a81548160ff0219169083600381111561099657fe5b02179055508482815181106109a757fe5b60200260200101518160060190805190602001906109c69291906114c7565b5060008160070160006101000a81548160ff0219169083151502179055506000604051908082528060200260200182016040528015610a145781602001602082028038833980820191505090505b50816008019080519060200190610a2c9291906115d1565b50600260008473ffffffffffffffffffffffffffffffffffffffff1673ffffffffffffffffffffffffffffffffffffffff1681526020019081526020016000208c8381518110610a7857fe5b60200260200101519080600181540180825580915050906001820390600052602060002001600090919290919091509080519060200190610aba9291906114c7565b505050808060010191505061080f565b5050505050505050505050565b6060806060806060600080606060006060610af061165b565b60018c604051610b00919061224e565b908152602001604051809103902060405180610140016040529081600082018054600181600116156101000203166002900480601f016020809104026020016040519081016040528092919081815260200182805460018160011615610100020316600290048015610bb35780601f10610b8857610100808354040283529160200191610bb3565b820191906000526020600020905b815481529060010190602001808311610b9657829003601f168201915b50505050508152602001600182018054600181600116156101000203166002900480601f016020809104026020016040519081016040528092919081815260200182805460018160011615610100020316600290048015610c555780601f10610c2a57610100808354040283529160200191610c55565b820191906000526020600020905b815481529060010190602001808311610c3857829003601f168201915b50505050508152602001600282018054600181600116156101000203166002900480601f016020809104026020016040519081016040528092919081815260200182805460018160011615610100020316600290048015610cf75780601f10610ccc57610100808354040283529160200191610cf7565b820191906000526020600020905b815481529060010190602001808311610cda57829003601f168201915b50505050508152602001600382018054600181600116156101000203166002900480601f016020809104026020016040519081016040528092919081815260200182805460018160011615610100020316600290048015610d995780601f10610d6e57610100808354040283529160200191610d99565b820191906000526020600020905b815481529060010190602001808311610d7c57829003601f168201915b50505050508152602001600482018054600181600116156101000203166002900480601f016020809104026020016040519081016040528092919081815260200182805460018160011615610100020316600290048015610e3b5780601f10610e1057610100808354040283529160200191610e3b565b820191906000526020600020905b815481529060010190602001808311610e1e57829003601f168201915b505050505081526020016005820160009054906101000a900463ffffffff1663ffffffff1663ffffffff1681526020016005820160049054906101000a900460ff166003811115610e8857fe5b6003811115610e9357fe5b8152602001600682018054600181600116156101000203166002900480601f016020809104026020016040519081016040528092919081815260200182805460018160011615610100020316600290048015610f305780601f10610f0557610100808354040283529160200191610f30565b820191906000526020600020905b815481529060010190602001808311610f1357829003601f168201915b505050505081526020016007820160009054906101000a900460ff1615151515815260200160088201805480602002602001604051908101604052809291908181526020018280548015610fd957602002820191906000526020600020905b8160009054906101000a900473ffffffffffffffffffffffffffffffffffffffff1673ffffffffffffffffffffffffffffffffffffffff1681526020019060010190808311610f8f575b5050505050815250509050806000015181602001518260400151836060015184608001518560a001518660c001518760e001518861010001518961012001518999508898508797508696508595508292508090509a509a509a509a509a509a509a509a509a509a50509193959799509193959799565b6000803390506000600184604051611067919061224e565b908152602001604051809103902090508060090160008373ffffffffffffffffffffffffffffffffffffffff1673ffffffffffffffffffffffffffffffffffffffff16815260200190815260200160002060009054906101000a900460ff1692505050919050565b60003390506110dc61165b565b6040518061014001604052808b81526020018a81526020018981526020018881526020018781526020018663ffffffff16815260200185600381111561111e57fe5b815260200184815260200160001515815260200160006040519080825280602002602001820160405280156111625781602001602082028038833980820191505090505b5081525090508060018b604051611179919061224e565b908152602001604051809103902060008201518160000190805190602001906111a39291906116c1565b5060208201518160010190805190602001906111c09291906116c1565b5060408201518160020190805190602001906111dd9291906116c1565b5060608201518160030190805190602001906111fa9291906116c1565b5060808201518160040190805190602001906112179291906116c1565b5060a08201518160050160006101000a81548163ffffffff021916908363ffffffff16021790555060c08201518160050160046101000a81548160ff0219169083600381111561126357fe5b021790555060e08201518160060190805190602001906112849291906116c1565b506101008201518160070160006101000a81548160ff0219169083151502179055506101208201518160080190805190602001906112c3929190611741565b50905050600260008373ffffffffffffffffffffffffffffffffffffffff1673ffffffffffffffffffffffffffffffffffffffff1681526020019081526020016000208a90806001815401808255809150509060018203906000526020600020016000909192909190915090805190602001906113419291906114c7565b505050505050505050505050565b60003390506000600183604051611366919061224e565b90815260200160405180910390209050600015158160090160008473ffffffffffffffffffffffffffffffffffffffff1673ffffffffffffffffffffffffffffffffffffffff16815260200190815260200160002060009054906101000a900460ff161515141561149457806008018290806001815401808255809150509060018203906000526020600020016000909192909190916101000a81548173ffffffffffffffffffffffffffffffffffffffff021916908373ffffffffffffffffffffffffffffffffffffffff1602179055505060018160090160008473ffffffffffffffffffffffffffffffffffffffff1673ffffffffffffffffffffffffffffffffffffffff16815260200190815260200160002060006101000a81548160ff0219169083151502179055505b6001816008018054905014156114c25760018160070160006101000a81548160ff0219169083151502179055505b505050565b828054600181600116156101000203166002900490600052602060002090601f016020900481019282601f1061150857805160ff1916838001178555611536565b82800160010185558215611536579182015b8281111561153557825182559160200191906001019061151a565b5b50905061154391906117cb565b5090565b8280548282559060005260206000209081019282156115c0579160200282015b828111156115bf5782518260006101000a81548173ffffffffffffffffffffffffffffffffffffffff021916908373ffffffffffffffffffffffffffffffffffffffff16021790555091602001919060010190611567565b5b5090506115cd91906117f0565b5090565b82805482825590600052602060002090810192821561164a579160200282015b828111156116495782518260006101000a81548173ffffffffffffffffffffffffffffffffffffffff021916908373ffffffffffffffffffffffffffffffffffffffff160217905550916020019190600101906115f1565b5b50905061165791906117f0565b5090565b6040518061014001604052806060815260200160608152602001606081526020016060815260200160608152602001600063ffffffff168152602001600060038111156116a457fe5b815260200160608152602001600015158152602001606081525090565b828054600181600116156101000203166002900490600052602060002090601f016020900481019282601f1061170257805160ff1916838001178555611730565b82800160010185558215611730579182015b8281111561172f578251825591602001919060010190611714565b5b50905061173d91906117cb565b5090565b8280548282559060005260206000209081019282156117ba579160200282015b828111156117b95782518260006101000a81548173ffffffffffffffffffffffffffffffffffffffff021916908373ffffffffffffffffffffffffffffffffffffffff16021790555091602001919060010190611761565b5b5090506117c791906117f0565b5090565b6117ed91905b808211156117e95760008160009055506001016117d1565b5090565b90565b61183091905b8082111561182c57600081816101000a81549073ffffffffffffffffffffffffffffffffffffffff0219169055506001016117f6565b5090565b90565b6000813590506118428161263c565b92915050565b600082601f83011261185957600080fd5b813561186c611867826123bc565b61238f565b9150818183526020840193506020810190508385602084028201111561189157600080fd5b60005b838110156118c157816118a78882611a45565b845260208401935060208301925050600181019050611894565b5050505092915050565b600082601f8301126118dc57600080fd5b81356118ef6118ea826123e4565b61238f565b9150818183526020840193506020810190508385602084028201111561191457600080fd5b60005b83811015611944578161192a8882611a5a565b845260208401935060208301925050600181019050611917565b5050505092915050565b600082601f83011261195f57600080fd5b813561197261196d8261240c565b61238f565b9150818183526020840193506020810190508360005b838110156119b8578135860161199e8882611a6f565b845260208401935060208301925050600181019050611988565b5050505092915050565b600082601f8301126119d357600080fd5b81356119e66119e182612434565b61238f565b91508181835260208401935060208101905083856020840282011115611a0b57600080fd5b60005b83811015611a3b5781611a218882611b17565b845260208401935060208301925050600181019050611a0e565b5050505092915050565b600081359050611a5481612653565b92915050565b600081359050611a698161266a565b92915050565b600082601f830112611a8057600080fd5b8135611a93611a8e8261245c565b61238f565b91508082526020830160208301858383011115611aaf57600080fd5b611aba8382846125dc565b50505092915050565b600082601f830112611ad457600080fd5b8135611ae7611ae282612488565b61238f565b91508082526020830160208301858383011115611b0357600080fd5b611b0e8382846125dc565b50505092915050565b600081359050611b268161267a565b92915050565b600060208284031215611b3e57600080fd5b6000611b4c84828501611833565b91505092915050565b600080600080600080600080610100898b031215611b7257600080fd5b600089013567ffffffffffffffff811115611b8c57600080fd5b611b988b828c0161194e565b985050602089013567ffffffffffffffff811115611bb557600080fd5b611bc18b828c0161194e565b975050604089013567ffffffffffffffff811115611bde57600080fd5b611bea8b828c0161194e565b965050606089013567ffffffffffffffff811115611c0757600080fd5b611c138b828c0161194e565b955050608089013567ffffffffffffffff811115611c3057600080fd5b611c3c8b828c0161194e565b94505060a089013567ffffffffffffffff811115611c5957600080fd5b611c658b828c016119c2565b93505060c089013567ffffffffffffffff811115611c8257600080fd5b611c8e8b828c016118cb565b92505060e089013567ffffffffffffffff811115611cab57600080fd5b611cb78b828c0161194e565b9150509295985092959890939650565b60008060008060008060008060006101208a8c031215611ce657600080fd5b60008a013567ffffffffffffffff811115611d0057600080fd5b611d0c8c828d0161194e565b99505060208a013567ffffffffffffffff811115611d2957600080fd5b611d358c828d0161194e565b98505060408a013567ffffffffffffffff811115611d5257600080fd5b611d5e8c828d0161194e565b97505060608a013567ffffffffffffffff811115611d7b57600080fd5b611d878c828d0161194e565b96505060808a013567ffffffffffffffff811115611da457600080fd5b611db08c828d0161194e565b95505060a08a013567ffffffffffffffff811115611dcd57600080fd5b611dd98c828d016119c2565b94505060c08a013567ffffffffffffffff811115611df657600080fd5b611e028c828d016118cb565b93505060e08a013567ffffffffffffffff811115611e1f57600080fd5b611e2b8c828d0161194e565b9250506101008a013567ffffffffffffffff811115611e4957600080fd5b611e558c828d01611848565b9150509295985092959850929598565b600060208284031215611e7757600080fd5b600082013567ffffffffffffffff811115611e9157600080fd5b611e9d84828501611ac3565b91505092915050565b600080600080600080600080610100898b031215611ec357600080fd5b600089013567ffffffffffffffff811115611edd57600080fd5b611ee98b828c01611ac3565b985050602089013567ffffffffffffffff811115611f0657600080fd5b611f128b828c01611ac3565b975050604089013567ffffffffffffffff811115611f2f57600080fd5b611f3b8b828c01611ac3565b965050606089013567ffffffffffffffff811115611f5857600080fd5b611f648b828c01611ac3565b955050608089013567ffffffffffffffff811115611f8157600080fd5b611f8d8b828c01611ac3565b94505060a0611f9e8b828c01611b17565b93505060c0611faf8b828c01611a5a565b92505060e089013567ffffffffffffffff811115611fcc57600080fd5b611fd88b828c01611ac3565b9150509295985092959890939650565b6000611ff48383612014565b60208301905092915050565b600061200c838361217e565b905092915050565b61201d81612569565b82525050565b600061202e826124d4565b612038818561251a565b9350612043836124b4565b8060005b8381101561207457815161205b8882611fe8565b975061206683612500565b925050600181019050612047565b5085935050505092915050565b600061208c826124df565b612096818561252b565b9350836020820285016120a8856124c4565b8060005b858110156120e457848403895281516120c58582612000565b94506120d08361250d565b925060208a019950506001810190506120ac565b50829750879550505050505092915050565b6120ff8161257b565b82525050565b61210e816125ca565b82525050565b600061211f826124f5565b612129818561254d565b93506121398185602086016125eb565b6121428161261e565b840191505092915050565b6000612158826124f5565b612162818561255e565b93506121728185602086016125eb565b80840191505092915050565b6000612189826124ea565b612193818561253c565b93506121a38185602086016125eb565b6121ac8161261e565b840191505092915050565b60006121c2826124ea565b6121cc818561255e565b93506121dc8185602086016125eb565b80840191505092915050565b60006121f5601c8361254d565b91507f506172616d65746572206c656e6774687320646f6e74206d61746368000000006000830152602082019050919050565b612231816125ba565b82525050565b600061224382846121b7565b915081905092915050565b600061225a828461214d565b915081905092915050565b6000602082019050818103600083015261227f8184612081565b905092915050565b600060208201905061229c60008301846120f6565b92915050565b60006101408201905081810360008301526122bd818d612114565b905081810360208301526122d1818c612114565b905081810360408301526122e5818b612114565b905081810360608301526122f9818a612114565b9050818103608083015261230d8189612114565b905061231c60a0830188612228565b61232960c0830187612105565b81810360e083015261233b8186612114565b905061234b6101008301856120f6565b81810361012083015261235e8184612023565b90509b9a5050505050505050505050565b60006020820190508181036000830152612388816121e8565b9050919050565b6000604051905081810181811067ffffffffffffffff821117156123b257600080fd5b8060405250919050565b600067ffffffffffffffff8211156123d357600080fd5b602082029050602081019050919050565b600067ffffffffffffffff8211156123fb57600080fd5b602082029050602081019050919050565b600067ffffffffffffffff82111561242357600080fd5b602082029050602081019050919050565b600067ffffffffffffffff82111561244b57600080fd5b602082029050602081019050919050565b600067ffffffffffffffff82111561247357600080fd5b601f19601f8301169050602081019050919050565b600067ffffffffffffffff82111561249f57600080fd5b601f19601f8301169050602081019050919050565b6000819050602082019050919050565b6000819050602082019050919050565b600081519050919050565b600081519050919050565b600081519050919050565b600081519050919050565b6000602082019050919050565b6000602082019050919050565b600082825260208201905092915050565b600082825260208201905092915050565b600082825260208201905092915050565b600082825260208201905092915050565b600081905092915050565b60006125748261259a565b9050919050565b60008115159050919050565b60008190506125958261262f565b919050565b600073ffffffffffffffffffffffffffffffffffffffff82169050919050565b600063ffffffff82169050919050565b60006125d582612587565b9050919050565b82818337600083830152505050565b60005b838110156126095780820151818401526020810190506125ee565b83811115612618576000848401525b50505050565b6000601f19601f8301169050919050565b6004811061263957fe5b50565b61264581612569565b811461265057600080fd5b50565b61265c8161257b565b811461266757600080fd5b50565b6004811061267757600080fd5b50565b612683816125ba565b811461268e57600080fd5b5056fea365627a7a72315820d9f4b0b1cdbdc6c7a38b81f36836efc0dfc65bdd7126e89b07f7a764d6a2c1f76c6578706572696d656e74616cf564736f6c63430005100040",
  "source": "pragma solidity ^0.5.0;\npragma experimental ABIEncoderV2;\n\n/// @title A smart contract for storing peer reviews\n/// @author Kaan Uzdogan uzdogan@mpdl.mpg.de\n/// @notice\n/// @dev\ncontract ReviewStorage {\n    // address[] usersAddresses; // Should we keep this?\n    address publonsAddress = 0x14B3a00C89BDdB6C0577E518FCA87eC19b1b2311;\n    enum Recommendation {NULL, ACCEPT, REVISE, REJECT}\n    struct Review {\n        string id;\n        string journalId; // ISSN\n        string publisher; // Publisher Name\n        string manuscriptId; // DOI?\n        string manuscriptHash;\n        uint32 timestamp; // Unix time (32 bits), when review is published\n        Recommendation recommendation;\n        string url;\n        bool verified;\n        address[] vouchers;\n        mapping(address => bool) vouchersMap; // Check if vouched by a certain address.\n    }\n    // Mapping from Review ids to Reviews.\n    mapping(string => Review) reviewsMap;\n    mapping(address => string[]) userReviewsIdsMap;\n\n    /// @notice Public method to add a review.\n    /// @dev Assumes the owner(author) of the review is the msg.sender\n    /// @param id - Id of the review generated by the client.\n    /// @param journalId - Typically ISSN number of the journal\n    /// @param publisher - The name of the publisher\n    /// @param manuscriptId - An identifier for the manuscript. This could be an internal id of a journal.\n    /// @param manuscriptHash - (Optional) Hash of the manuscript document\n    /// @param timestamp - uint32 Unix timestamp when review is published\n    /// @param recommendation - 0,1 or 2 for ACCEPT, REVIEW, REJECT\n    function addReview(\n        string memory id,\n        string memory journalId,\n        string memory publisher,\n        string memory manuscriptId,\n        string memory manuscriptHash,\n        uint32 timestamp,\n        Recommendation recommendation,\n        string memory url\n    ) public {\n        address author = msg.sender;\n\n        Review memory review = Review({\n            id: id,\n            journalId: journalId,\n            publisher: publisher,\n            manuscriptId: manuscriptId,\n            manuscriptHash: manuscriptHash,\n            timestamp: timestamp,\n            recommendation: recommendation,\n            url: url,\n            verified: false,\n            vouchers: new address[](0) // Init empty array\n        });\n        reviewsMap[id] = review;\n        userReviewsIdsMap[author].push(id);\n    }\n\n    function addMultipleReviews(\n        string[] memory ids,\n        string[] memory journalIds,\n        string[] memory publishers,\n        string[] memory manuscriptIds,\n        string[] memory manuscriptHashes,\n        uint32[] memory timestamps,\n        Recommendation[] memory recommendations,\n        string[] memory urls\n    ) public {\n        require(\n            ids.length == journalIds.length &&\n                journalIds.length == publishers.length &&\n                publishers.length == manuscriptIds.length &&\n                manuscriptIds.length == manuscriptHashes.length &&\n                manuscriptHashes.length == timestamps.length &&\n                timestamps.length == recommendations.length &&\n                recommendations.length == urls.length,\n            \"Parameter lengths dont match\"\n        );\n        uint24 length = uint24(journalIds.length);\n        address author = msg.sender;\n        for (uint256 i = 0; i < length; i++) {\n            Review storage review = reviewsMap[ids[i]];\n            review.id = ids[i];\n            review.journalId = journalIds[i];\n            review.publisher = publishers[i];\n            review.manuscriptId = manuscriptIds[i];\n            review.manuscriptHash = manuscriptHashes[i];\n            review.timestamp = timestamps[i];\n            review.recommendation = recommendations[i];\n            review.url = urls[i];\n            review.verified = false;\n            review.vouchers = new address[](0); // Init empty array\n            userReviewsIdsMap[author].push(ids[i]);\n        }\n    }\n\n    // TODO: REFACTOR, Repeating the code above.\n    function addMultipleReviewsAndVerifyByPublons(\n        string[] memory ids,\n        string[] memory journalIds,\n        string[] memory publishers,\n        string[] memory manuscriptIds,\n        string[] memory manuscriptHashes,\n        uint32[] memory timestamps,\n        Recommendation[] memory recommendations,\n        string[] memory urls,\n        bool[] memory verifieds\n    ) public {\n        require(\n            ids.length == journalIds.length &&\n                journalIds.length == publishers.length &&\n                publishers.length == manuscriptIds.length &&\n                manuscriptIds.length == manuscriptHashes.length &&\n                manuscriptHashes.length == timestamps.length &&\n                timestamps.length == recommendations.length &&\n                recommendations.length == urls.length &&\n                urls.length == verifieds.length,\n            \"Parameter lengths dont match\"\n        );\n        uint24 length = uint24(journalIds.length);\n        address author = msg.sender;\n        for (uint256 i = 0; i < length; i++) {\n            Review storage review = reviewsMap[ids[i]];\n            review.id = ids[i];\n            review.journalId = journalIds[i];\n            review.publisher = publishers[i];\n            review.manuscriptId = manuscriptIds[i];\n            review.manuscriptHash = manuscriptHashes[i];\n            review.timestamp = timestamps[i];\n            review.recommendation = recommendations[i];\n            review.url = urls[i];\n            if (verifieds[i]) {\n                review.verified = true;\n                review.vouchers = [publonsAddress]; // Add the publonsAddress as voucher.\n            } else {\n                review.verified = false;\n                review.vouchers = new address[](0); // Init empty array\n            }\n\n            userReviewsIdsMap[author].push(ids[i]);\n        }\n    }\n\n    /// @notice Returns the Review belonging to the paramater address on the parameter index.\n    /// @dev Returns the Review struct as an ordered key value object. e.g. {0: 'JOURNALID', 1: ....}\n    /// @param id - id of the review.\n    /// @return journalId\n    /// @return manuscriptId\n    /// @return manuscriptHash\n    /// @return timestamp\n    /// @return recommendation\n    /// @return verified - bool that is true if 2 or more accounts vouched the review.\n    /// @return vouchers - the list of addresses that vouched this review.\n    // TODO: Can have another function to retrieve private information of msg.sender.\n    function getReview(string memory id)\n        public\n        view\n        returns (\n            string memory,\n            string memory,\n            string memory,\n            string memory,\n            string memory,\n            uint32,\n            Recommendation,\n            string memory,\n            bool,\n            address[] memory\n        )\n    {\n        Review memory review = reviewsMap[id];\n        return (\n            review.id,\n            review.journalId,\n            review.publisher,\n            review.manuscriptId,\n            review.manuscriptHash,\n            review.timestamp,\n            review.recommendation,\n            review.url,\n            review.verified,\n            review.vouchers\n        );\n    }\n\n    function getReviewsArrayOfUser(address addr)\n        public\n        view\n        returns (string[] memory)\n    {\n        return userReviewsIdsMap[addr];\n    }\n\n    /// @notice Function to vouch a Review at the given address and index.\n    /// @dev Assumes the voucher is the msg.sender. Checks if the Review is already vouched by the same address.\n    /// @param id - id of the review\n    function vouch(string memory id) public {\n        // TODO: Can't vouch herself\n        address voucher = msg.sender; // TODO: Avoid being vouched by a contract\n        Review storage review = reviewsMap[id];\n        if (review.vouchersMap[voucher] == false) {\n            // If not vouched by current voucher.\n            review.vouchers.push(voucher); // Add to vouchers.\n            review.vouchersMap[voucher] = true; // Mark voucher true.\n        }\n        if (review.vouchers.length == 1) {\n            review.verified = true;\n        }\n    }\n\n    /// @notice Function to check if the Review at the given address and index is vouched by msg.sender8i.\n    /// @dev Assumes the voucher is the msg.sender.\n    /// @param id - id of the review\n    /// @return bool showing that Review is vouched by the msg.sender.\n    function hasVouched(string memory id) public view returns (bool) {\n        address voucher = msg.sender;\n        Review storage review = reviewsMap[id];\n        return review.vouchersMap[voucher];\n    }\n    /// @notice Function to check if the Review at the given address and index is verified. I.e. vouched by 2 or more accounts.\n    /// @param id - id of the review\n    /// @return bool showing if Review is verified.\n    function isVerified(string memory id) public view returns (bool) {\n        Review storage review = reviewsMap[id];\n        return review.verified;\n    }\n}\n",
  "sourcePath": "/home/uzdogan/Desktop/repos/peer-review-app/contracts/ReviewStorage.sol",
  "compiler": {
    "name": "solc",
    "version": "0.5.16+commit.9c3226ce.Emscripten.clang"
  },
  "schemaVersion": "3.0.16",
  "updatedAt": "2020-03-03T10:58:11.351Z",
  "devdoc": {
    "author": "Kaan Uzdogan uzdogan@mpdl.mpg.de",
    "methods": {
      "addReview(string,string,string,string,string,uint32,uint8,string)": {
        "details": "Assumes the owner(author) of the review is the msg.sender",
        "params": {
          "id": "- Id of the review generated by the client.",
          "journalId": "- Typically ISSN number of the journal",
          "manuscriptHash": "- (Optional) Hash of the manuscript document",
          "manuscriptId": "- An identifier for the manuscript. This could be an internal id of a journal.",
          "publisher": "- The name of the publisher",
          "recommendation": "- 0,1 or 2 for ACCEPT, REVIEW, REJECT",
          "timestamp": "- uint32 Unix timestamp when review is published"
        }
      },
      "getReview(string)": {
        "details": "Returns the Review struct as an ordered key value object. e.g. {0: 'JOURNALID', 1: ....}",
        "params": {
          "id": "- id of the review."
        },
        "return": "journalIdmanuscriptIdmanuscriptHashtimestamprecommendationverified - bool that is true if 2 or more accounts vouched the review.vouchers - the list of addresses that vouched this review."
      },
      "hasVouched(string)": {
        "details": "Assumes the voucher is the msg.sender.",
        "params": {
          "id": "- id of the review"
        },
        "return": "bool showing that Review is vouched by the msg.sender."
      },
      "isVerified(string)": {
        "params": {
          "id": "- id of the review"
        },
        "return": "bool showing if Review is verified."
      },
      "vouch(string)": {
        "details": "Assumes the voucher is the msg.sender. Checks if the Review is already vouched by the same address.",
        "params": {
          "id": "- id of the review"
        }
      }
    },
    "title": "A smart contract for storing peer reviews"
  },
  "userdoc": {
    "methods": {
      "addReview(string,string,string,string,string,uint32,uint8,string)": {
        "notice": "Public method to add a review."
      },
      "getReview(string)": {
        "notice": "Returns the Review belonging to the paramater address on the parameter index."
      },
      "hasVouched(string)": {
        "notice": "Function to check if the Review at the given address and index is vouched by msg.sender8i."
      },
      "isVerified(string)": {
        "notice": "Function to check if the Review at the given address and index is verified. I.e. vouched by 2 or more accounts."
      },
      "vouch(string)": {
        "notice": "Function to vouch a Review at the given address and index."
      }
    },
    "notice": "@dev"
  }
}