{
  "contractName": "ReviewStorage",
  "abi": [
    {
      "constant": false,
      "inputs": [
        {
          "name": "journalId",
          "type": "string"
        },
        {
          "name": "manuscriptId",
          "type": "string"
        },
        {
          "name": "timestamp",
          "type": "uint256"
        },
        {
          "name": "manuscriptHash",
          "type": "string"
        },
        {
          "name": "recommendation",
          "type": "uint8"
        }
      ],
      "name": "addReview",
      "outputs": [],
      "payable": false,
      "stateMutability": "nonpayable",
      "type": "function"
    },
    {
      "constant": true,
      "inputs": [
        {
          "name": "addr",
          "type": "address"
        },
        {
          "name": "i",
          "type": "uint8"
        }
      ],
      "name": "getReview",
      "outputs": [
        {
          "name": "",
          "type": "string"
        },
        {
          "name": "",
          "type": "string"
        },
        {
          "name": "",
          "type": "string"
        },
        {
          "name": "",
          "type": "uint256"
        },
        {
          "name": "",
          "type": "uint8"
        },
        {
          "name": "",
          "type": "bool"
        },
        {
          "name": "",
          "type": "address[]"
        }
      ],
      "payable": false,
      "stateMutability": "view",
      "type": "function"
    },
    {
      "constant": false,
      "inputs": [
        {
          "name": "addr",
          "type": "address"
        },
        {
          "name": "index",
          "type": "uint8"
        }
      ],
      "name": "vouch",
      "outputs": [],
      "payable": false,
      "stateMutability": "nonpayable",
      "type": "function"
    },
    {
      "constant": true,
      "inputs": [
        {
          "name": "i",
          "type": "uint8"
        }
      ],
      "name": "getNumber",
      "outputs": [
        {
          "name": "",
          "type": "uint256"
        }
      ],
      "payable": false,
      "stateMutability": "pure",
      "type": "function"
    }
  ],
  "bytecode": "0x608060405234801561001057600080fd5b50610df3806100206000396000f3fe608060405234801561001057600080fd5b506004361061004c5760003560e01c8063089c0f1614610051578063164e1917146102625780635f2049c5146102b3578063df864adb146104b3575b600080fd5b6100a06004803603604081101561006757600080fd5b81019080803573ffffffffffffffffffffffffffffffffffffffff169060200190929190803560ff1690602001909291905050506104f8565b604051808060200180602001806020018881526020018760028111156100c257fe5b60ff168152602001861515151581526020018060200185810385528c818151815260200191508051906020019080838360005b838110156101105780820151818401526020810190506100f5565b50505050905090810190601f16801561013d5780820380516001836020036101000a031916815260200191505b5085810384528b818151815260200191508051906020019080838360005b8381101561017657808201518184015260208101905061015b565b50505050905090810190601f1680156101a35780820380516001836020036101000a031916815260200191505b5085810383528a818151815260200191508051906020019080838360005b838110156101dc5780820151818401526020810190506101c1565b50505050905090810190601f1680156102095780820380516001836020036101000a031916815260200191505b50858103825286818151815260200191508051906020019060200280838360005b8381101561024557808201518184015260208101905061022a565b505050509050019b50505050505050505050505060405180910390f35b6102b16004803603604081101561027857600080fd5b81019080803573ffffffffffffffffffffffffffffffffffffffff169060200190929190803560ff169060200190929190505050610946565b005b6104b1600480360360a08110156102c957600080fd5b81019080803590602001906401000000008111156102e657600080fd5b8201836020820111156102f857600080fd5b8035906020019184600183028401116401000000008311171561031a57600080fd5b91908080601f016020809104026020016040519081016040528093929190818152602001838380828437600081840152601f19601f8201169050808301925050505050505091929192908035906020019064010000000081111561037d57600080fd5b82018360208201111561038f57600080fd5b803590602001918460018302840111640100000000831117156103b157600080fd5b91908080601f016020809104026020016040519081016040528093929190818152602001838380828437600081840152601f19601f820116905080830192505050505050509192919290803590602001909291908035906020019064010000000081111561041e57600080fd5b82018360208201111561043057600080fd5b8035906020019184600183028401116401000000008311171561045257600080fd5b91908080601f016020809104026020016040519081016040528093929190818152602001838380828437600081840152601f19601f820116905080830192505050505050509192919290803560ff169060200190929190505050610a40565b005b6104e2600480360360208110156104c957600080fd5b81019080803560ff169060200190929190505050610bfe565b6040518082815260200191505060405180910390f35b60608060606000806000606080600160008b73ffffffffffffffffffffffffffffffffffffffff1673ffffffffffffffffffffffffffffffffffffffff168152602001908152602001600020805480602002602001604051908101604052809291908181526020016000905b8282101561085c57838290600052602060002090600602016040518060e0016040529081600082018054600181600116156101000203166002900480601f0160208091040260200160405190810160405280929190818152602001828054600181600116156101000203166002900480156106205780601f106105f557610100808354040283529160200191610620565b820191906000526020600020905b81548152906001019060200180831161060357829003601f168201915b50505050508152602001600182018054600181600116156101000203166002900480601f0160208091040260200160405190810160405280929190818152602001828054600181600116156101000203166002900480156106c25780601f10610697576101008083540402835291602001916106c2565b820191906000526020600020905b8154815290600101906020018083116106a557829003601f168201915b50505050508152602001600282018054600181600116156101000203166002900480601f0160208091040260200160405190810160405280929190818152602001828054600181600116156101000203166002900480156107645780601f1061073957610100808354040283529160200191610764565b820191906000526020600020905b81548152906001019060200180831161074757829003601f168201915b50505050508152602001600382015481526020016004820160009054906101000a900460ff16600281111561079557fe5b60028111156107a057fe5b81526020016004820160019054906101000a900460ff161515151581526020016005820180548060200260200160405190810160405280929190818152602001828054801561084457602002820191906000526020600020905b8160009054906101000a900473ffffffffffffffffffffffffffffffffffffffff1673ffffffffffffffffffffffffffffffffffffffff16815260200190600101908083116107fa575b50505050508152505081526020019060010190610564565b505050509050808960ff168151811061087157fe5b602002602001015160000151818a60ff168151811061088c57fe5b602002602001015160200151828b60ff16815181106108a757fe5b602002602001015160400151838c60ff16815181106108c257fe5b602002602001015160600151848d60ff16815181106108dd57fe5b602002602001015160800151858e60ff16815181106108f857fe5b602002602001015160a00151868f60ff168151811061091357fe5b602002602001015160c0015186965085955084945080905097509750975097509750975097505092959891949750929550565b6000600160008473ffffffffffffffffffffffffffffffffffffffff1673ffffffffffffffffffffffffffffffffffffffff1681526020019081526020016000208260ff168154811061099557fe5b90600052602060002090600602019050806005013390806001815401808255809150509060018203906000526020600020016000909192909190916101000a81548173ffffffffffffffffffffffffffffffffffffffff021916908373ffffffffffffffffffffffffffffffffffffffff16021790555050600281600501805490501415610a3b5760018160040160016101000a81548160ff0219169083151502179055505b505050565b6000339050610a4d610c0b565b6040518060e00160405280888152602001878152602001858152602001868152602001846002811115610a7c57fe5b81526020016000151581526020016000604051908082528060200260200182016040528015610aba5781602001602082028038833980820191505090505b508152509050600160008373ffffffffffffffffffffffffffffffffffffffff1673ffffffffffffffffffffffffffffffffffffffff16815260200190815260200160002081908060018154018082558091505090600182039060005260206000209060060201600090919290919091506000820151816000019080519060200190610b47929190610c55565b506020820151816001019080519060200190610b64929190610c55565b506040820151816002019080519060200190610b81929190610c55565b506060820151816003015560808201518160040160006101000a81548160ff02191690836002811115610bb057fe5b021790555060a08201518160040160016101000a81548160ff02191690831515021790555060c0820151816005019080519060200190610bf1929190610cd5565b5050505050505050505050565b60008160ff169050919050565b6040518060e001604052806060815260200160608152602001606081526020016000815260200160006002811115610c3f57fe5b8152602001600015158152602001606081525090565b828054600181600116156101000203166002900490600052602060002090601f016020900481019282601f10610c9657805160ff1916838001178555610cc4565b82800160010185558215610cc4579182015b82811115610cc3578251825591602001919060010190610ca8565b5b509050610cd19190610d5f565b5090565b828054828255906000526020600020908101928215610d4e579160200282015b82811115610d4d5782518260006101000a81548173ffffffffffffffffffffffffffffffffffffffff021916908373ffffffffffffffffffffffffffffffffffffffff16021790555091602001919060010190610cf5565b5b509050610d5b9190610d84565b5090565b610d8191905b80821115610d7d576000816000905550600101610d65565b5090565b90565b610dc491905b80821115610dc057600081816101000a81549073ffffffffffffffffffffffffffffffffffffffff021916905550600101610d8a565b5090565b9056fea165627a7a7230582069bb6b9c1c57783a68cc6bc18d1d6b34a85ce4b0c3ad459d8300205762b76a490029",
  "source": "pragma solidity ^0.5.0;\n\ncontract ReviewStorage {\n  address[] usersAddresses;\n  enum Recommendation { ACCEPT, REVISE, REJECT }\n  struct Review {\n    string journalId; // ISSN\n    string manuscriptId; // DOI?\n    string manuscriptHash;\n    uint timestamp; // Timestamp since unix epoch, when review is published\n    Recommendation recommendation;\n    bool verified;\n    address[] vouchers;\n  }\n  mapping (address => Review[]) reviewsMap;\n\n\n  function addReview(string memory journalId, string memory manuscriptId, uint timestamp,\n  string memory manuscriptHash, Recommendation recommendation) public {\n    address sender = msg.sender;\n    Review memory review = Review({\n      journalId : journalId,\n      manuscriptId : manuscriptId,\n      manuscriptHash: manuscriptHash,\n      timestamp : timestamp,\n      recommendation : recommendation,\n      verified: false,\n      vouchers: new address[](0)\n    });\n    reviewsMap[sender].push(review);\n  }\n  // function getReviewCount() public view returns(uint32 count){\n  //   return reviewsMap[addr].length;\n  // }\n\n  // Get Review for any address.\n  // Can have another function to retrieve private information of msg.sender.\n  function getReview(address addr, uint8 i) public view returns (string memory, string memory,\n    string memory, uint, Recommendation, bool, address[] memory) {\n    Review[] memory reviews = reviewsMap[addr];\n    return (reviews[i].journalId, reviews[i].manuscriptId, reviews[i].manuscriptHash,\n      reviews[i].timestamp, reviews[i].recommendation, reviews[i].verified, reviews[i].vouchers);\n  }\n\n  function vouch(address addr, uint8 index) public {\n    Review storage review = reviewsMap[addr][index];\n    review.vouchers.push(msg.sender);\n    if(review.vouchers.length == 2){\n      review.verified = true;\n    }\n  }\n\n  function getNumber(uint8 i) public pure returns (uint) {\n    return (i);\n  }\n  // function verifyReview()\n}\n",
  "sourcePath": "/home/kuzdogan/Desktop/repos/peer-review-app/contracts/ReviewStorage.sol",
  "compiler": {
    "name": "solc",
    "version": "0.5.8+commit.23d335f2.Emscripten.clang"
  },
  "schemaVersion": "3.0.11",
  "updatedAt": "2019-10-08T13:06:36.036Z",
  "devdoc": {
    "methods": {}
  },
  "userdoc": {
    "methods": {}
  }
}