{
  "contractName": "ReviewStorage",
  "abi": [
    {
      "anonymous": false,
      "inputs": [
        {
          "indexed": true,
          "internalType": "address",
          "name": "oldRelayHub",
          "type": "address"
        },
        {
          "indexed": true,
          "internalType": "address",
          "name": "newRelayHub",
          "type": "address"
        }
      ],
      "name": "RelayHubChanged",
      "type": "event"
    },
    {
      "constant": true,
      "inputs": [],
      "name": "getHubAddr",
      "outputs": [
        {
          "internalType": "address",
          "name": "",
          "type": "address"
        }
      ],
      "payable": false,
      "stateMutability": "view",
      "type": "function"
    },
    {
      "constant": false,
      "inputs": [],
      "name": "initialize",
      "outputs": [],
      "payable": false,
      "stateMutability": "nonpayable",
      "type": "function"
    },
    {
      "constant": false,
      "inputs": [
        {
          "internalType": "bytes",
          "name": "context",
          "type": "bytes"
        },
        {
          "internalType": "bool",
          "name": "success",
          "type": "bool"
        },
        {
          "internalType": "uint256",
          "name": "actualCharge",
          "type": "uint256"
        },
        {
          "internalType": "bytes32",
          "name": "preRetVal",
          "type": "bytes32"
        }
      ],
      "name": "postRelayedCall",
      "outputs": [],
      "payable": false,
      "stateMutability": "nonpayable",
      "type": "function"
    },
    {
      "constant": false,
      "inputs": [
        {
          "internalType": "bytes",
          "name": "context",
          "type": "bytes"
        }
      ],
      "name": "preRelayedCall",
      "outputs": [
        {
          "internalType": "bytes32",
          "name": "",
          "type": "bytes32"
        }
      ],
      "payable": false,
      "stateMutability": "nonpayable",
      "type": "function"
    },
    {
      "constant": true,
      "inputs": [],
      "name": "relayHubVersion",
      "outputs": [
        {
          "internalType": "string",
          "name": "",
          "type": "string"
        }
      ],
      "payable": false,
      "stateMutability": "view",
      "type": "function"
    },
    {
      "constant": false,
      "inputs": [],
      "name": "setDefaultRelayHub",
      "outputs": [],
      "payable": false,
      "stateMutability": "nonpayable",
      "type": "function"
    },
    {
      "constant": false,
      "inputs": [
        {
          "internalType": "string",
          "name": "id",
          "type": "string"
        },
        {
          "internalType": "string",
          "name": "journalId",
          "type": "string"
        },
        {
          "internalType": "string",
          "name": "publisher",
          "type": "string"
        },
        {
          "internalType": "string",
          "name": "manuscriptId",
          "type": "string"
        },
        {
          "internalType": "string",
          "name": "manuscriptHash",
          "type": "string"
        },
        {
          "internalType": "uint32",
          "name": "timestamp",
          "type": "uint32"
        },
        {
          "internalType": "enum ReviewStorage.Recommendation",
          "name": "recommendation",
          "type": "uint8"
        },
        {
          "internalType": "string",
          "name": "url",
          "type": "string"
        }
      ],
      "name": "addReview",
      "outputs": [],
      "payable": false,
      "stateMutability": "nonpayable",
      "type": "function"
    },
    {
      "constant": false,
      "inputs": [
        {
          "internalType": "string[]",
          "name": "ids",
          "type": "string[]"
        },
        {
          "internalType": "string[]",
          "name": "journalIds",
          "type": "string[]"
        },
        {
          "internalType": "string[]",
          "name": "publishers",
          "type": "string[]"
        },
        {
          "internalType": "string[]",
          "name": "manuscriptIds",
          "type": "string[]"
        },
        {
          "internalType": "string[]",
          "name": "manuscriptHashes",
          "type": "string[]"
        },
        {
          "internalType": "uint32[]",
          "name": "timestamps",
          "type": "uint32[]"
        },
        {
          "internalType": "enum ReviewStorage.Recommendation[]",
          "name": "recommendations",
          "type": "uint8[]"
        },
        {
          "internalType": "string[]",
          "name": "urls",
          "type": "string[]"
        }
      ],
      "name": "addMultipleReviews",
      "outputs": [],
      "payable": false,
      "stateMutability": "nonpayable",
      "type": "function"
    },
    {
      "constant": false,
      "inputs": [
        {
          "internalType": "string[]",
          "name": "ids",
          "type": "string[]"
        },
        {
          "internalType": "string[]",
          "name": "journalIds",
          "type": "string[]"
        },
        {
          "internalType": "string[]",
          "name": "publishers",
          "type": "string[]"
        },
        {
          "internalType": "string[]",
          "name": "manuscriptIds",
          "type": "string[]"
        },
        {
          "internalType": "string[]",
          "name": "manuscriptHashes",
          "type": "string[]"
        },
        {
          "internalType": "uint32[]",
          "name": "timestamps",
          "type": "uint32[]"
        },
        {
          "internalType": "enum ReviewStorage.Recommendation[]",
          "name": "recommendations",
          "type": "uint8[]"
        },
        {
          "internalType": "string[]",
          "name": "urls",
          "type": "string[]"
        },
        {
          "internalType": "bool[]",
          "name": "verifieds",
          "type": "bool[]"
        }
      ],
      "name": "addMultipleReviewsAndVerifyByPublons",
      "outputs": [],
      "payable": false,
      "stateMutability": "nonpayable",
      "type": "function"
    },
    {
      "constant": true,
      "inputs": [
        {
          "internalType": "string",
          "name": "id",
          "type": "string"
        }
      ],
      "name": "getReview",
      "outputs": [
        {
          "internalType": "string",
          "name": "",
          "type": "string"
        },
        {
          "internalType": "string",
          "name": "",
          "type": "string"
        },
        {
          "internalType": "string",
          "name": "",
          "type": "string"
        },
        {
          "internalType": "string",
          "name": "",
          "type": "string"
        },
        {
          "internalType": "string",
          "name": "",
          "type": "string"
        },
        {
          "internalType": "uint32",
          "name": "",
          "type": "uint32"
        },
        {
          "internalType": "enum ReviewStorage.Recommendation",
          "name": "",
          "type": "uint8"
        },
        {
          "internalType": "string",
          "name": "",
          "type": "string"
        },
        {
          "internalType": "bool",
          "name": "",
          "type": "bool"
        },
        {
          "internalType": "address[]",
          "name": "",
          "type": "address[]"
        }
      ],
      "payable": false,
      "stateMutability": "view",
      "type": "function"
    },
    {
      "constant": true,
      "inputs": [
        {
          "internalType": "address",
          "name": "addr",
          "type": "address"
        }
      ],
      "name": "getReviewsArrayOfUser",
      "outputs": [
        {
          "internalType": "string[]",
          "name": "",
          "type": "string[]"
        }
      ],
      "payable": false,
      "stateMutability": "view",
      "type": "function"
    },
    {
      "constant": false,
      "inputs": [
        {
          "internalType": "string",
          "name": "id",
          "type": "string"
        }
      ],
      "name": "vouch",
      "outputs": [],
      "payable": false,
      "stateMutability": "nonpayable",
      "type": "function"
    },
    {
      "constant": true,
      "inputs": [
        {
          "internalType": "string",
          "name": "id",
          "type": "string"
        }
      ],
      "name": "hasVouched",
      "outputs": [
        {
          "internalType": "bool",
          "name": "",
          "type": "bool"
        }
      ],
      "payable": false,
      "stateMutability": "view",
      "type": "function"
    },
    {
      "constant": true,
      "inputs": [
        {
          "internalType": "string",
          "name": "id",
          "type": "string"
        }
      ],
      "name": "isVerified",
      "outputs": [
        {
          "internalType": "bool",
          "name": "",
          "type": "bool"
        }
      ],
      "payable": false,
      "stateMutability": "view",
      "type": "function"
    },
    {
      "constant": true,
      "inputs": [
        {
          "internalType": "address",
          "name": "relay",
          "type": "address"
        },
        {
          "internalType": "address",
          "name": "from",
          "type": "address"
        },
        {
          "internalType": "bytes",
          "name": "encodedFunction",
          "type": "bytes"
        },
        {
          "internalType": "uint256",
          "name": "transactionFee",
          "type": "uint256"
        },
        {
          "internalType": "uint256",
          "name": "gasPrice",
          "type": "uint256"
        },
        {
          "internalType": "uint256",
          "name": "gasLimit",
          "type": "uint256"
        },
        {
          "internalType": "uint256",
          "name": "nonce",
          "type": "uint256"
        },
        {
          "internalType": "bytes",
          "name": "approvalData",
          "type": "bytes"
        },
        {
          "internalType": "uint256",
          "name": "maxPossibleCharge",
          "type": "uint256"
        }
      ],
      "name": "acceptRelayedCall",
      "outputs": [
        {
          "internalType": "uint256",
          "name": "",
          "type": "uint256"
        },
        {
          "internalType": "bytes",
          "name": "",
          "type": "bytes"
        }
      ],
      "payable": false,
      "stateMutability": "view",
      "type": "function"
    }
  ],
  "bytecode": "0x60806040527314b3a00c89bddb6c0577e518fca87ec19b1b2311603460006101000a81548173ffffffffffffffffffffffffffffffffffffffff021916908373ffffffffffffffffffffffffffffffffffffffff16021790555061341b806100686000396000f3fe608060405234801561001057600080fd5b50600436106100f55760003560e01c80638129fc1c11610097578063b61873cf11610066578063b61873cf1461027c578063bfd95fd1146102ac578063e06e0e22146102c8578063f4ec8423146102e4576100f5565b80638129fc1c146101ea57806383947ea0146101f4578063ad61ccd514610225578063b444dc7514610243576100f5565b8063436fc97f116100d3578063436fc97f146101645780636a6e15531461018057806374e861d61461019c57806380274db7146101ba576100f5565b80631220e2ff146100fa5780631690130114610104578063234c76d514610134575b600080fd5b610102610300565b005b61011e6004803603610119919081019061234a565b61031f565b60405161012b9190612e61565b60405180910390f35b61014e60048036036101499190810190612848565b610447565b60405161015b9190612e83565b60405180910390f35b61017e600480360361017991908101906125e5565b610484565b005b61019a60048036036101959190810190612473565b6108b0565b005b6101a4610c22565b6040516101b19190612e46565b60405180910390f35b6101d460048036036101cf9190810190612783565b610c4c565b6040516101e19190612e9e565b60405180910390f35b6101f2610d18565b005b61020e60048036036102099190810190612373565b610e61565b60405161021c929190613048565b60405180910390f35b61022d610e81565b60405161023a9190612eb9565b60405180910390f35b61025d60048036036102589190810190612848565b610ebe565b6040516102739a99989796959493929190612edb565b60405180910390f35b61029660048036036102919190810190612848565b611436565b6040516102a39190612e83565b60405180910390f35b6102c660048036036102c19190810190612889565b6114bd565b005b6102e260048036036102dd91908101906127c8565b611744565b005b6102fe60048036036102f99190810190612848565b611810565b005b61031d73d216153c06e857cd7f72665e0af1d7d82172f49461198f565b565b6060603660008373ffffffffffffffffffffffffffffffffffffffff1673ffffffffffffffffffffffffffffffffffffffff168152602001908152602001600020805480602002602001604051908101604052809291908181526020016000905b8282101561043c578382906000526020600020018054600181600116156101000203166002900480601f0160208091040260200160405190810160405280929190818152602001828054600181600116156101000203166002900480156104285780601f106103fd57610100808354040283529160200191610428565b820191906000526020600020905b81548152906001019060200180831161040b57829003601f168201915b505050505081526020019060010190610380565b505050509050919050565b60008060358360405161045a9190612e2f565b908152602001604051809103902090508060070160009054906101000a900460ff16915050919050565b87518951148015610496575086518851145b80156104a3575085518751145b80156104b0575084518651145b80156104bd575083518551145b80156104ca575082518451145b80156104d7575081518351145b80156104e4575080518251145b610523576040517f08c379a000000000000000000000000000000000000000000000000000000000815260040161051a90612fc8565b60405180910390fd5b6000885190506000610533611b34565b905060008090505b8262ffffff168110156108a257600060358d838151811061055857fe5b602002602001015160405161056d9190612e18565b908152602001604051809103902090508c828151811061058957fe5b60200260200101518160000190805190602001906105a8929190611c71565b508b82815181106105b557fe5b60200260200101518160010190805190602001906105d4929190611c71565b508a82815181106105e157fe5b6020026020010151816002019080519060200190610600929190611c71565b5089828151811061060d57fe5b602002602001015181600301908051906020019061062c929190611c71565b5088828151811061063957fe5b6020026020010151816004019080519060200190610658929190611c71565b5087828151811061066557fe5b60200260200101518160050160006101000a81548163ffffffff021916908363ffffffff16021790555086828151811061069b57fe5b60200260200101518160050160046101000a81548160ff021916908360038111156106c257fe5b02179055508582815181106106d357fe5b60200260200101518160060190805190602001906106f2929190611c71565b508482815181106106ff57fe5b60200260200101511561079e5760018160070160006101000a81548160ff0219169083151502179055506040518060200160405280603460009054906101000a900473ffffffffffffffffffffffffffffffffffffffff1673ffffffffffffffffffffffffffffffffffffffff1673ffffffffffffffffffffffffffffffffffffffff1681525081600801906001610798929190611cf1565b50610805565b60008160070160006101000a81548160ff02191690831515021790555060006040519080825280602002602001820160405280156107eb5781602001602082028038833980820191505090505b50816008019080519060200190610803929190611d7b565b505b603660008473ffffffffffffffffffffffffffffffffffffffff1673ffffffffffffffffffffffffffffffffffffffff1681526020019081526020016000208d838151811061085057fe5b60200260200101519080600181540180825580915050906001820390600052602060002001600090919290919091509080519060200190610892929190611c71565b505050808060010191505061053b565b505050505050505050505050565b865188511480156108c2575085518751145b80156108cf575084518651145b80156108dc575083518551145b80156108e9575082518451145b80156108f6575081518351145b8015610903575080518251145b610942576040517f08c379a000000000000000000000000000000000000000000000000000000000815260040161093990612fc8565b60405180910390fd5b6000875190506000610952611b34565b905060008090505b8262ffffff16811015610c1557600060358c838151811061097757fe5b602002602001015160405161098c9190612e18565b908152602001604051809103902090508b82815181106109a857fe5b60200260200101518160000190805190602001906109c7929190611c71565b508a82815181106109d457fe5b60200260200101518160010190805190602001906109f3929190611c71565b50898281518110610a0057fe5b6020026020010151816002019080519060200190610a1f929190611c71565b50888281518110610a2c57fe5b6020026020010151816003019080519060200190610a4b929190611c71565b50878281518110610a5857fe5b6020026020010151816004019080519060200190610a77929190611c71565b50868281518110610a8457fe5b60200260200101518160050160006101000a81548163ffffffff021916908363ffffffff160217905550858281518110610aba57fe5b60200260200101518160050160046101000a81548160ff02191690836003811115610ae157fe5b0217905550848281518110610af257fe5b6020026020010151816006019080519060200190610b11929190611c71565b5060008160070160006101000a81548160ff0219169083151502179055506000604051908082528060200260200182016040528015610b5f5781602001602082028038833980820191505090505b50816008019080519060200190610b77929190611d7b565b50603660008473ffffffffffffffffffffffffffffffffffffffff1673ffffffffffffffffffffffffffffffffffffffff1681526020019081526020016000208c8381518110610bc357fe5b60200260200101519080600181540180825580915050906001820390600052602060002001600090919290919091509080519060200190610c05929190611c71565b505050808060010191505061095a565b5050505050505050505050565b6000603360009054906101000a900473ffffffffffffffffffffffffffffffffffffffff16905090565b6000610c56610c22565b73ffffffffffffffffffffffffffffffffffffffff163373ffffffffffffffffffffffffffffffffffffffff1614610cc3576040517f08c379a0000000000000000000000000000000000000000000000000000000008152600401610cba90613028565b60405180910390fd5b610d1083838080601f016020809104026020016040519081016040528093929190818152602001838380828437600081840152601f19601f82011690508083019250505050505050611ba1565b905092915050565b600060019054906101000a900460ff1680610d375750610d36611ba8565b5b80610d4e57506000809054906101000a900460ff16155b610d8d576040517f08c379a0000000000000000000000000000000000000000000000000000000008152600401610d8490612fe8565b60405180910390fd5b60008060019054906101000a900460ff161590508015610ddd576001600060016101000a81548160ff02191690831515021790555060016000806101000a81548160ff0219169083151502179055505b600073ffffffffffffffffffffffffffffffffffffffff16603360009054906101000a900473ffffffffffffffffffffffffffffffffffffffff1673ffffffffffffffffffffffffffffffffffffffff161415610e3d57610e3c610300565b5b8015610e5e5760008060016101000a81548160ff0219169083151502179055505b50565b60006060610e6d611bbf565b915091509b509b9950505050505050505050565b60606040518060400160405280600581526020017f312e302e30000000000000000000000000000000000000000000000000000000815250905090565b6060806060806060600080606060006060610ed7611e05565b60358c604051610ee79190612e2f565b908152602001604051809103902060405180610140016040529081600082018054600181600116156101000203166002900480601f016020809104026020016040519081016040528092919081815260200182805460018160011615610100020316600290048015610f9a5780601f10610f6f57610100808354040283529160200191610f9a565b820191906000526020600020905b815481529060010190602001808311610f7d57829003601f168201915b50505050508152602001600182018054600181600116156101000203166002900480601f01602080910402602001604051908101604052809291908181526020018280546001816001161561010002031660029004801561103c5780601f106110115761010080835404028352916020019161103c565b820191906000526020600020905b81548152906001019060200180831161101f57829003601f168201915b50505050508152602001600282018054600181600116156101000203166002900480601f0160208091040260200160405190810160405280929190818152602001828054600181600116156101000203166002900480156110de5780601f106110b3576101008083540402835291602001916110de565b820191906000526020600020905b8154815290600101906020018083116110c157829003601f168201915b50505050508152602001600382018054600181600116156101000203166002900480601f0160208091040260200160405190810160405280929190818152602001828054600181600116156101000203166002900480156111805780601f1061115557610100808354040283529160200191611180565b820191906000526020600020905b81548152906001019060200180831161116357829003601f168201915b50505050508152602001600482018054600181600116156101000203166002900480601f0160208091040260200160405190810160405280929190818152602001828054600181600116156101000203166002900480156112225780601f106111f757610100808354040283529160200191611222565b820191906000526020600020905b81548152906001019060200180831161120557829003601f168201915b505050505081526020016005820160009054906101000a900463ffffffff1663ffffffff1663ffffffff1681526020016005820160049054906101000a900460ff16600381111561126f57fe5b600381111561127a57fe5b8152602001600682018054600181600116156101000203166002900480601f0160208091040260200160405190810160405280929190818152602001828054600181600116156101000203166002900480156113175780601f106112ec57610100808354040283529160200191611317565b820191906000526020600020905b8154815290600101906020018083116112fa57829003601f168201915b505050505081526020016007820160009054906101000a900460ff16151515158152602001600882018054806020026020016040519081016040528092919081815260200182805480156113c057602002820191906000526020600020905b8160009054906101000a900473ffffffffffffffffffffffffffffffffffffffff1673ffffffffffffffffffffffffffffffffffffffff1681526020019060010190808311611376575b5050505050815250509050806000015181602001518260400151836060015184608001518560a001518660c001518760e001518861010001518961012001518999508898508797508696508595508292508090509a509a509a509a509a509a509a509a509a509a50509193959799509193959799565b600080611441611b34565b905060006035846040516114559190612e2f565b908152602001604051809103902090508060090160008373ffffffffffffffffffffffffffffffffffffffff1673ffffffffffffffffffffffffffffffffffffffff16815260200190815260200160002060009054906101000a900460ff1692505050919050565b60006114c7611b34565b90506114d1611e05565b6040518061014001604052808b81526020018a81526020018981526020018881526020018781526020018663ffffffff16815260200185600381111561151357fe5b815260200184815260200160001515815260200160006040519080825280602002602001820160405280156115575781602001602082028038833980820191505090505b5081525090508060358b60405161156e9190612e2f565b90815260200160405180910390206000820151816000019080519060200190611598929190611e6b565b5060208201518160010190805190602001906115b5929190611e6b565b5060408201518160020190805190602001906115d2929190611e6b565b5060608201518160030190805190602001906115ef929190611e6b565b50608082015181600401908051906020019061160c929190611e6b565b5060a08201518160050160006101000a81548163ffffffff021916908363ffffffff16021790555060c08201518160050160046101000a81548160ff0219169083600381111561165857fe5b021790555060e0820151816006019080519060200190611679929190611e6b565b506101008201518160070160006101000a81548160ff0219169083151502179055506101208201518160080190805190602001906116b8929190611eeb565b50905050603660008373ffffffffffffffffffffffffffffffffffffffff1673ffffffffffffffffffffffffffffffffffffffff1681526020019081526020016000208a9080600181540180825580915050906001820390600052602060002001600090919290919091509080519060200190611736929190611c71565b505050505050505050505050565b61174c610c22565b73ffffffffffffffffffffffffffffffffffffffff163373ffffffffffffffffffffffffffffffffffffffff16146117b9576040517f08c379a00000000000000000000000000000000000000000000000000000000081526004016117b090613028565b60405180910390fd5b61180985858080601f016020809104026020016040519081016040528093929190818152602001838380828437600081840152601f19601f82011690508083019250505050505050848484611be3565b5050505050565b600061181a611b34565b9050600060358360405161182e9190612e2f565b90815260200160405180910390209050600015158160090160008473ffffffffffffffffffffffffffffffffffffffff1673ffffffffffffffffffffffffffffffffffffffff16815260200190815260200160002060009054906101000a900460ff161515141561195c57806008018290806001815401808255809150509060018203906000526020600020016000909192909190916101000a81548173ffffffffffffffffffffffffffffffffffffffff021916908373ffffffffffffffffffffffffffffffffffffffff1602179055505060018160090160008473ffffffffffffffffffffffffffffffffffffffff1673ffffffffffffffffffffffffffffffffffffffff16815260200190815260200160002060006101000a81548160ff0219169083151502179055505b60018160080180549050141561198a5760018160070160006101000a81548160ff0219169083151502179055505b505050565b6000603360009054906101000a900473ffffffffffffffffffffffffffffffffffffffff169050600073ffffffffffffffffffffffffffffffffffffffff168273ffffffffffffffffffffffffffffffffffffffff161415611a26576040517f08c379a0000000000000000000000000000000000000000000000000000000008152600401611a1d90612fa8565b60405180910390fd5b8073ffffffffffffffffffffffffffffffffffffffff168273ffffffffffffffffffffffffffffffffffffffff161415611a95576040517f08c379a0000000000000000000000000000000000000000000000000000000008152600401611a8c90613008565b60405180910390fd5b8173ffffffffffffffffffffffffffffffffffffffff168173ffffffffffffffffffffffffffffffffffffffff167fb9f84b8e65164b14439ae3620df0a4d8786d896996c0282b683f9d8c08f046e860405160405180910390a381603360006101000a81548173ffffffffffffffffffffffffffffffffffffffff021916908373ffffffffffffffffffffffffffffffffffffffff1602179055505050565b6000603360009054906101000a900473ffffffffffffffffffffffffffffffffffffffff1673ffffffffffffffffffffffffffffffffffffffff163373ffffffffffffffffffffffffffffffffffffffff1614611b9357339050611b9e565b611b9b611be9565b90505b90565b6000919050565b6000803090506000813b9050600081149250505090565b60006060611bdb60405180602001604052806000815250611c61565b915091509091565b50505050565b600060606000368080601f016020809104026020016040519081016040528093929190818152602001838380828437600081840152601f19601f820116905080830192505050505050509050600080369050905073ffffffffffffffffffffffffffffffffffffffff81830151169250829250505090565b6000606060008391509150915091565b828054600181600116156101000203166002900490600052602060002090601f016020900481019282601f10611cb257805160ff1916838001178555611ce0565b82800160010185558215611ce0579182015b82811115611cdf578251825591602001919060010190611cc4565b5b509050611ced9190611f75565b5090565b828054828255906000526020600020908101928215611d6a579160200282015b82811115611d695782518260006101000a81548173ffffffffffffffffffffffffffffffffffffffff021916908373ffffffffffffffffffffffffffffffffffffffff16021790555091602001919060010190611d11565b5b509050611d779190611f9a565b5090565b828054828255906000526020600020908101928215611df4579160200282015b82811115611df35782518260006101000a81548173ffffffffffffffffffffffffffffffffffffffff021916908373ffffffffffffffffffffffffffffffffffffffff16021790555091602001919060010190611d9b565b5b509050611e019190611f9a565b5090565b6040518061014001604052806060815260200160608152602001606081526020016060815260200160608152602001600063ffffffff16815260200160006003811115611e4e57fe5b815260200160608152602001600015158152602001606081525090565b828054600181600116156101000203166002900490600052602060002090601f016020900481019282601f10611eac57805160ff1916838001178555611eda565b82800160010185558215611eda579182015b82811115611ed9578251825591602001919060010190611ebe565b5b509050611ee79190611f75565b5090565b828054828255906000526020600020908101928215611f64579160200282015b82811115611f635782518260006101000a81548173ffffffffffffffffffffffffffffffffffffffff021916908373ffffffffffffffffffffffffffffffffffffffff16021790555091602001919060010190611f0b565b5b509050611f719190611f9a565b5090565b611f9791905b80821115611f93576000816000905550600101611f7b565b5090565b90565b611fda91905b80821115611fd657600081816101000a81549073ffffffffffffffffffffffffffffffffffffffff021916905550600101611fa0565b5090565b90565b600081359050611fec81613355565b92915050565b600082601f83011261200357600080fd5b8135612016612011826130a5565b613078565b9150818183526020840193506020810190508385602084028201111561203b57600080fd5b60005b8381101561206b578161205188826121ef565b84526020840193506020830192505060018101905061203e565b5050505092915050565b600082601f83011261208657600080fd5b8135612099612094826130cd565b613078565b915081818352602084019350602081019050838560208402820111156120be57600080fd5b60005b838110156120ee57816120d48882612263565b8452602084019350602083019250506001810190506120c1565b5050505092915050565b600082601f83011261210957600080fd5b813561211c612117826130f5565b613078565b9150818183526020840193506020810190508360005b8381101561216257813586016121488882612278565b845260208401935060208301925050600181019050612132565b5050505092915050565b600082601f83011261217d57600080fd5b813561219061218b8261311d565b613078565b915081818352602084019350602081019050838560208402820111156121b557600080fd5b60005b838110156121e557816121cb8882612335565b8452602084019350602083019250506001810190506121b8565b5050505092915050565b6000813590506121fe8161336c565b92915050565b60008135905061221381613383565b92915050565b60008083601f84011261222b57600080fd5b8235905067ffffffffffffffff81111561224457600080fd5b60208301915083600182028301111561225c57600080fd5b9250929050565b6000813590506122728161339a565b92915050565b600082601f83011261228957600080fd5b813561229c61229782613145565b613078565b915080825260208301602083018583830111156122b857600080fd5b6122c38382846132f5565b50505092915050565b600082601f8301126122dd57600080fd5b81356122f06122eb82613171565b613078565b9150808252602083016020830185838301111561230c57600080fd5b6123178382846132f5565b50505092915050565b60008135905061232f816133aa565b92915050565b600081359050612344816133c1565b92915050565b60006020828403121561235c57600080fd5b600061236a84828501611fdd565b91505092915050565b60008060008060008060008060008060006101208c8e03121561239557600080fd5b60006123a38e828f01611fdd565b9b505060206123b48e828f01611fdd565b9a505060408c013567ffffffffffffffff8111156123d157600080fd5b6123dd8e828f01612219565b995099505060606123f08e828f01612320565b97505060806124018e828f01612320565b96505060a06124128e828f01612320565b95505060c06124238e828f01612320565b94505060e08c013567ffffffffffffffff81111561244057600080fd5b61244c8e828f01612219565b93509350506101006124608e828f01612320565b9150509295989b509295989b9093969950565b600080600080600080600080610100898b03121561249057600080fd5b600089013567ffffffffffffffff8111156124aa57600080fd5b6124b68b828c016120f8565b985050602089013567ffffffffffffffff8111156124d357600080fd5b6124df8b828c016120f8565b975050604089013567ffffffffffffffff8111156124fc57600080fd5b6125088b828c016120f8565b965050606089013567ffffffffffffffff81111561252557600080fd5b6125318b828c016120f8565b955050608089013567ffffffffffffffff81111561254e57600080fd5b61255a8b828c016120f8565b94505060a089013567ffffffffffffffff81111561257757600080fd5b6125838b828c0161216c565b93505060c089013567ffffffffffffffff8111156125a057600080fd5b6125ac8b828c01612075565b92505060e089013567ffffffffffffffff8111156125c957600080fd5b6125d58b828c016120f8565b9150509295985092959890939650565b60008060008060008060008060006101208a8c03121561260457600080fd5b60008a013567ffffffffffffffff81111561261e57600080fd5b61262a8c828d016120f8565b99505060208a013567ffffffffffffffff81111561264757600080fd5b6126538c828d016120f8565b98505060408a013567ffffffffffffffff81111561267057600080fd5b61267c8c828d016120f8565b97505060608a013567ffffffffffffffff81111561269957600080fd5b6126a58c828d016120f8565b96505060808a013567ffffffffffffffff8111156126c257600080fd5b6126ce8c828d016120f8565b95505060a08a013567ffffffffffffffff8111156126eb57600080fd5b6126f78c828d0161216c565b94505060c08a013567ffffffffffffffff81111561271457600080fd5b6127208c828d01612075565b93505060e08a013567ffffffffffffffff81111561273d57600080fd5b6127498c828d016120f8565b9250506101008a013567ffffffffffffffff81111561276757600080fd5b6127738c828d01611ff2565b9150509295985092959850929598565b6000806020838503121561279657600080fd5b600083013567ffffffffffffffff8111156127b057600080fd5b6127bc85828601612219565b92509250509250929050565b6000806000806000608086880312156127e057600080fd5b600086013567ffffffffffffffff8111156127fa57600080fd5b61280688828901612219565b95509550506020612819888289016121ef565b935050604061282a88828901612320565b925050606061283b88828901612204565b9150509295509295909350565b60006020828403121561285a57600080fd5b600082013567ffffffffffffffff81111561287457600080fd5b612880848285016122cc565b91505092915050565b600080600080600080600080610100898b0312156128a657600080fd5b600089013567ffffffffffffffff8111156128c057600080fd5b6128cc8b828c016122cc565b985050602089013567ffffffffffffffff8111156128e957600080fd5b6128f58b828c016122cc565b975050604089013567ffffffffffffffff81111561291257600080fd5b61291e8b828c016122cc565b965050606089013567ffffffffffffffff81111561293b57600080fd5b6129478b828c016122cc565b955050608089013567ffffffffffffffff81111561296457600080fd5b6129708b828c016122cc565b94505060a06129818b828c01612335565b93505060c06129928b828c01612263565b92505060e089013567ffffffffffffffff8111156129af57600080fd5b6129bb8b828c016122cc565b9150509295985092959890939650565b60006129d783836129f7565b60208301905092915050565b60006129ef8383612bb8565b905092915050565b612a008161326e565b82525050565b612a0f8161326e565b82525050565b6000612a20826131bd565b612a2a818561320e565b9350612a358361319d565b8060005b83811015612a66578151612a4d88826129cb565b9750612a58836131f4565b925050600181019050612a39565b5085935050505092915050565b6000612a7e826131c8565b612a88818561321f565b935083602082028501612a9a856131ad565b8060005b85811015612ad65784840389528151612ab785826129e3565b9450612ac283613201565b925060208a01995050600181019050612a9e565b50829750879550505050505092915050565b612af181613280565b82525050565b612b008161328c565b82525050565b6000612b11826131d3565b612b1b8185613230565b9350612b2b818560208601613304565b612b3481613337565b840191505092915050565b612b48816132e3565b82525050565b6000612b59826131e9565b612b638185613252565b9350612b73818560208601613304565b612b7c81613337565b840191505092915050565b6000612b92826131e9565b612b9c8185613263565b9350612bac818560208601613304565b80840191505092915050565b6000612bc3826131de565b612bcd8185613241565b9350612bdd818560208601613304565b612be681613337565b840191505092915050565b6000612bfc826131de565b612c068185613263565b9350612c16818560208601613304565b80840191505092915050565b6000612c2f602e83613252565b91507f47534e526563697069656e743a206e65772052656c617948756220697320746860008301527f65207a65726f20616464726573730000000000000000000000000000000000006020830152604082019050919050565b6000612c95601c83613252565b91507f506172616d65746572206c656e6774687320646f6e74206d61746368000000006000830152602082019050919050565b6000612cd5602e83613252565b91507f436f6e747261637420696e7374616e63652068617320616c726561647920626560008301527f656e20696e697469616c697a65640000000000000000000000000000000000006020830152604082019050919050565b6000612d3b602d83613252565b91507f47534e526563697069656e743a206e65772052656c617948756220697320746860008301527f652063757272656e74206f6e65000000000000000000000000000000000000006020830152604082019050919050565b6000612da1602483613252565b91507f47534e526563697069656e743a2063616c6c6572206973206e6f742052656c6160008301527f79487562000000000000000000000000000000000000000000000000000000006020830152604082019050919050565b612e03816132c9565b82525050565b612e12816132d3565b82525050565b6000612e248284612bf1565b915081905092915050565b6000612e3b8284612b87565b915081905092915050565b6000602082019050612e5b6000830184612a06565b92915050565b60006020820190508181036000830152612e7b8184612a73565b905092915050565b6000602082019050612e986000830184612ae8565b92915050565b6000602082019050612eb36000830184612af7565b92915050565b60006020820190508181036000830152612ed38184612b4e565b905092915050565b6000610140820190508181036000830152612ef6818d612b4e565b90508181036020830152612f0a818c612b4e565b90508181036040830152612f1e818b612b4e565b90508181036060830152612f32818a612b4e565b90508181036080830152612f468189612b4e565b9050612f5560a0830188612e09565b612f6260c0830187612b3f565b81810360e0830152612f748186612b4e565b9050612f84610100830185612ae8565b818103610120830152612f978184612a15565b90509b9a5050505050505050505050565b60006020820190508181036000830152612fc181612c22565b9050919050565b60006020820190508181036000830152612fe181612c88565b9050919050565b6000602082019050818103600083015261300181612cc8565b9050919050565b6000602082019050818103600083015261302181612d2e565b9050919050565b6000602082019050818103600083015261304181612d94565b9050919050565b600060408201905061305d6000830185612dfa565b818103602083015261306f8184612b06565b90509392505050565b6000604051905081810181811067ffffffffffffffff8211171561309b57600080fd5b8060405250919050565b600067ffffffffffffffff8211156130bc57600080fd5b602082029050602081019050919050565b600067ffffffffffffffff8211156130e457600080fd5b602082029050602081019050919050565b600067ffffffffffffffff82111561310c57600080fd5b602082029050602081019050919050565b600067ffffffffffffffff82111561313457600080fd5b602082029050602081019050919050565b600067ffffffffffffffff82111561315c57600080fd5b601f19601f8301169050602081019050919050565b600067ffffffffffffffff82111561318857600080fd5b601f19601f8301169050602081019050919050565b6000819050602082019050919050565b6000819050602082019050919050565b600081519050919050565b600081519050919050565b600081519050919050565b600081519050919050565b600081519050919050565b6000602082019050919050565b6000602082019050919050565b600082825260208201905092915050565b600082825260208201905092915050565b600082825260208201905092915050565b600082825260208201905092915050565b600082825260208201905092915050565b600081905092915050565b6000613279826132a9565b9050919050565b60008115159050919050565b6000819050919050565b60008190506132a482613348565b919050565b600073ffffffffffffffffffffffffffffffffffffffff82169050919050565b6000819050919050565b600063ffffffff82169050919050565b60006132ee82613296565b9050919050565b82818337600083830152505050565b60005b83811015613322578082015181840152602081019050613307565b83811115613331576000848401525b50505050565b6000601f19601f8301169050919050565b6004811061335257fe5b50565b61335e8161326e565b811461336957600080fd5b50565b61337581613280565b811461338057600080fd5b50565b61338c8161328c565b811461339757600080fd5b50565b600481106133a757600080fd5b50565b6133b3816132c9565b81146133be57600080fd5b50565b6133ca816132d3565b81146133d557600080fd5b5056fea365627a7a7231582084a9068e158e408f72703fcce0bb2e5703d54f4f0943dabb1de224739c507c986c6578706572696d656e74616cf564736f6c63430005100040",
  "source": "pragma solidity ^0.5.6;\npragma experimental ABIEncoderV2;\n\n/// @title A smart contract for storing peer reviews\n/// @author Kaan Uzdogan uzdogan@mpdl.mpg.de\n/// @notice\n/// @dev\n\nimport \"@openzeppelin/contracts-ethereum-package/contracts/GSN/GSNRecipient.sol\";\n\ncontract ReviewStorage is GSNRecipient {\n    // address[] usersAddresses; // Should we keep this?\n    address publonsAddress = 0x14B3a00C89BDdB6C0577E518FCA87eC19b1b2311;\n    enum Recommendation {NULL, ACCEPT, REVISE, REJECT}\n    struct Review {\n        string id;\n        string journalId; // ISSN\n        string publisher; // Publisher Name\n        string manuscriptId; // DOI?\n        string manuscriptHash;\n        uint32 timestamp; // Unix time (32 bits), when review is published\n        Recommendation recommendation;\n        string url;\n        bool verified;\n        address[] vouchers;\n        mapping(address => bool) vouchersMap; // Check if vouched by a certain address.\n    }\n    // Mapping from Review ids to Reviews.\n    mapping(string => Review) reviewsMap;\n    mapping(address => string[]) userReviewsIdsMap;\n\n    /// @notice Public method to add a review.\n    /// @dev Assumes the owner(author) of the review is the _msgSender()\n    /// @param id - Id of the review generated by the client.\n    /// @param journalId - Typically ISSN number of the journal\n    /// @param publisher - The name of the publisher\n    /// @param manuscriptId - An identifier for the manuscript. This could be an internal id of a journal.\n    /// @param manuscriptHash - (Optional) Hash of the manuscript document\n    /// @param timestamp - uint32 Unix timestamp when review is published\n    /// @param recommendation - 0,1 or 2 for ACCEPT, REVIEW, REJECT\n    function addReview(\n        string memory id,\n        string memory journalId,\n        string memory publisher,\n        string memory manuscriptId,\n        string memory manuscriptHash,\n        uint32 timestamp,\n        Recommendation recommendation,\n        string memory url\n    ) public {\n        address author = _msgSender();\n\n        Review memory review = Review({\n            id: id,\n            journalId: journalId,\n            publisher: publisher,\n            manuscriptId: manuscriptId,\n            manuscriptHash: manuscriptHash,\n            timestamp: timestamp,\n            recommendation: recommendation,\n            url: url,\n            verified: false,\n            vouchers: new address[](0) // Init empty array\n        });\n        reviewsMap[id] = review;\n        userReviewsIdsMap[author].push(id);\n    }\n\n    function addMultipleReviews(\n        string[] memory ids,\n        string[] memory journalIds,\n        string[] memory publishers,\n        string[] memory manuscriptIds,\n        string[] memory manuscriptHashes,\n        uint32[] memory timestamps,\n        Recommendation[] memory recommendations,\n        string[] memory urls\n    ) public {\n        require(\n            ids.length == journalIds.length &&\n                journalIds.length == publishers.length &&\n                publishers.length == manuscriptIds.length &&\n                manuscriptIds.length == manuscriptHashes.length &&\n                manuscriptHashes.length == timestamps.length &&\n                timestamps.length == recommendations.length &&\n                recommendations.length == urls.length,\n            \"Parameter lengths dont match\"\n        );\n        uint24 length = uint24(journalIds.length);\n        address author = _msgSender();\n        for (uint256 i = 0; i < length; i++) {\n            Review storage review = reviewsMap[ids[i]];\n            review.id = ids[i];\n            review.journalId = journalIds[i];\n            review.publisher = publishers[i];\n            review.manuscriptId = manuscriptIds[i];\n            review.manuscriptHash = manuscriptHashes[i];\n            review.timestamp = timestamps[i];\n            review.recommendation = recommendations[i];\n            review.url = urls[i];\n            review.verified = false;\n            review.vouchers = new address[](0); // Init empty array\n            userReviewsIdsMap[author].push(ids[i]);\n        }\n    }\n\n    // TODO: REFACTOR, Repeating the code above.\n    function addMultipleReviewsAndVerifyByPublons(\n        string[] memory ids,\n        string[] memory journalIds,\n        string[] memory publishers,\n        string[] memory manuscriptIds,\n        string[] memory manuscriptHashes,\n        uint32[] memory timestamps,\n        Recommendation[] memory recommendations,\n        string[] memory urls,\n        bool[] memory verifieds\n    ) public {\n        require(\n            ids.length == journalIds.length &&\n                journalIds.length == publishers.length &&\n                publishers.length == manuscriptIds.length &&\n                manuscriptIds.length == manuscriptHashes.length &&\n                manuscriptHashes.length == timestamps.length &&\n                timestamps.length == recommendations.length &&\n                recommendations.length == urls.length &&\n                urls.length == verifieds.length,\n            \"Parameter lengths dont match\"\n        );\n        uint24 length = uint24(journalIds.length);\n        address author = _msgSender();\n        for (uint256 i = 0; i < length; i++) {\n            Review storage review = reviewsMap[ids[i]];\n            review.id = ids[i];\n            review.journalId = journalIds[i];\n            review.publisher = publishers[i];\n            review.manuscriptId = manuscriptIds[i];\n            review.manuscriptHash = manuscriptHashes[i];\n            review.timestamp = timestamps[i];\n            review.recommendation = recommendations[i];\n            review.url = urls[i];\n            if (verifieds[i]) {\n                review.verified = true;\n                review.vouchers = [publonsAddress]; // Add the publonsAddress as voucher.\n            } else {\n                review.verified = false;\n                review.vouchers = new address[](0); // Init empty array\n            }\n\n            userReviewsIdsMap[author].push(ids[i]);\n        }\n    }\n\n    /// @notice Returns the Review belonging to the paramater address on the parameter index.\n    /// @dev Returns the Review struct as an ordered key value object. e.g. {0: 'JOURNALID', 1: ....}\n    /// @param id - id of the review.\n    /// @return journalId\n    /// @return manuscriptId\n    /// @return manuscriptHash\n    /// @return timestamp\n    /// @return recommendation\n    /// @return verified - bool that is true if 2 or more accounts vouched the review.\n    /// @return vouchers - the list of addresses that vouched this review.\n    // TODO: Can have another function to retrieve private information of _msgSender().\n    function getReview(string memory id)\n        public\n        view\n        returns (\n            string memory,\n            string memory,\n            string memory,\n            string memory,\n            string memory,\n            uint32,\n            Recommendation,\n            string memory,\n            bool,\n            address[] memory\n        )\n    {\n        Review memory review = reviewsMap[id];\n        return (\n            review.id,\n            review.journalId,\n            review.publisher,\n            review.manuscriptId,\n            review.manuscriptHash,\n            review.timestamp,\n            review.recommendation,\n            review.url,\n            review.verified,\n            review.vouchers\n        );\n    }\n\n    function getReviewsArrayOfUser(address addr)\n        public\n        view\n        returns (string[] memory)\n    {\n        return userReviewsIdsMap[addr];\n    }\n\n    /// @notice Function to vouch a Review at the given address and index.\n    /// @dev Assumes the voucher is the _msgSender(). Checks if the Review is already vouched by the same address.\n    /// @param id - id of the review\n    function vouch(string memory id) public {\n        // TODO: Can't vouch herself\n        address voucher = _msgSender(); // TODO: Avoid being vouched by a contract\n        Review storage review = reviewsMap[id];\n        if (review.vouchersMap[voucher] == false) {\n            // If not vouched by current voucher.\n            review.vouchers.push(voucher); // Add to vouchers.\n            review.vouchersMap[voucher] = true; // Mark voucher true.\n        }\n        if (review.vouchers.length == 1) {\n            review.verified = true;\n        }\n    }\n\n    /// @notice Function to check if the Review at the given address and index is vouched by _msgSender()8i.\n    /// @dev Assumes the voucher is the _msgSender().\n    /// @param id - id of the review\n    /// @return bool showing that Review is vouched by the _msgSender().\n    function hasVouched(string memory id) public view returns (bool) {\n        address voucher = _msgSender();\n        Review storage review = reviewsMap[id];\n        return review.vouchersMap[voucher];\n    }\n    /// @notice Function to check if the Review at the given address and index is verified. I.e. vouched by 2 or more accounts.\n    /// @param id - id of the review\n    /// @return bool showing if Review is verified.\n    function isVerified(string memory id) public view returns (bool) {\n        Review storage review = reviewsMap[id];\n        return review.verified;\n    }\n\n    /// @notice Function to accept a gas station relayed call, can implement additional authentication - currently wide open\n\n    function acceptRelayedCall(\n        address relay,\n        address from,\n        bytes calldata encodedFunction,\n        uint256 transactionFee,\n        uint256 gasPrice,\n        uint256 gasLimit,\n        uint256 nonce,\n        bytes calldata approvalData,\n        uint256 maxPossibleCharge\n    ) external view returns (uint256, bytes memory) {\n        return _approveRelayedCall();\n    }\n\n    // We won't do any pre or post processing, so leave _preRelayedCall and _postRelayedCall empty\n    function _preRelayedCall(bytes memory context) internal returns (bytes32) {\n    }\n\n    function _postRelayedCall(bytes memory context, bool, uint256 actualCharge, bytes32) internal {\n    }\n}\n",
  "sourcePath": "/home/james/Bloxberg/peer-review-app/contracts/ReviewStorage.sol",
  "compiler": {
    "name": "solc",
    "version": "0.5.16+commit.9c3226ce.Emscripten.clang"
  },
  "schemaVersion": "3.0.19",
  "updatedAt": "2020-02-27T13:05:23.034Z",
  "devdoc": {
    "methods": {
      "addReview(string,string,string,string,string,uint32,uint8,string)": {
        "details": "Assumes the owner(author) of the review is the _msgSender()",
        "params": {
          "id": "- Id of the review generated by the client.",
          "journalId": "- Typically ISSN number of the journal",
          "manuscriptHash": "- (Optional) Hash of the manuscript document",
          "manuscriptId": "- An identifier for the manuscript. This could be an internal id of a journal.",
          "publisher": "- The name of the publisher",
          "recommendation": "- 0,1 or 2 for ACCEPT, REVIEW, REJECT",
          "timestamp": "- uint32 Unix timestamp when review is published"
        }
      },
      "getHubAddr()": {
        "details": "Returns the address of the {IRelayHub} contract for this recipient."
      },
      "getReview(string)": {
        "details": "Returns the Review struct as an ordered key value object. e.g. {0: 'JOURNALID', 1: ....}",
        "params": {
          "id": "- id of the review."
        },
        "return": "journalIdmanuscriptIdmanuscriptHashtimestamprecommendationverified - bool that is true if 2 or more accounts vouched the review.vouchers - the list of addresses that vouched this review."
      },
      "hasVouched(string)": {
        "details": "Assumes the voucher is the _msgSender().",
        "params": {
          "id": "- id of the review"
        },
        "return": "bool showing that Review is vouched by the _msgSender()."
      },
      "isVerified(string)": {
        "params": {
          "id": "- id of the review"
        },
        "return": "bool showing if Review is verified."
      },
      "postRelayedCall(bytes,bool,uint256,bytes32)": {
        "details": "See `IRelayRecipient.postRelayedCall`.     * This function should not be overriden directly, use `_postRelayedCall` instead.     * * Requirements:     * - the caller must be the `RelayHub` contract."
      },
      "preRelayedCall(bytes)": {
        "details": "See `IRelayRecipient.preRelayedCall`.     * This function should not be overriden directly, use `_preRelayedCall` instead.     * * Requirements:     * - the caller must be the `RelayHub` contract."
      },
      "relayHubVersion()": {
        "details": "Returns the version string of the {IRelayHub} for which this recipient implementation was built. If {_upgradeRelayHub} is used, the new {IRelayHub} instance should be compatible with this version."
      },
      "vouch(string)": {
        "details": "Assumes the voucher is the _msgSender(). Checks if the Review is already vouched by the same address.",
        "params": {
          "id": "- id of the review"
        }
      }
    }
  },
  "userdoc": {
    "methods": {
      "acceptRelayedCall(address,address,bytes,uint256,uint256,uint256,uint256,bytes,uint256)": {
        "notice": "Function to accept a gas station relayed call, can implement additional authentication - currently wide open"
      },
      "addReview(string,string,string,string,string,uint32,uint8,string)": {
        "notice": "Public method to add a review."
      },
      "getReview(string)": {
        "notice": "Returns the Review belonging to the paramater address on the parameter index."
      },
      "hasVouched(string)": {
        "notice": "Function to check if the Review at the given address and index is vouched by _msgSender()8i."
      },
      "isVerified(string)": {
        "notice": "Function to check if the Review at the given address and index is verified. I.e. vouched by 2 or more accounts."
      },
      "vouch(string)": {
        "notice": "Function to vouch a Review at the given address and index."
      }
    }
  }
}