{
  "contractName": "ReviewStorage",
  "abi": [
    {
      "anonymous": false,
      "inputs": [
        {
          "indexed": true,
          "internalType": "address",
          "name": "oldRelayHub",
          "type": "address"
        },
        {
          "indexed": true,
          "internalType": "address",
          "name": "newRelayHub",
          "type": "address"
        }
      ],
      "name": "RelayHubChanged",
      "type": "event"
    },
    {
      "anonymous": false,
      "inputs": [
        {
          "indexed": true,
          "internalType": "address",
          "name": "_from",
          "type": "address"
        },
        {
          "indexed": false,
          "internalType": "string",
          "name": "id",
          "type": "string"
        }
      ],
      "name": "ReviewAdded",
      "type": "event"
    },
    {
      "constant": true,
      "inputs": [],
      "name": "getHubAddr",
      "outputs": [
        {
          "internalType": "address",
          "name": "",
          "type": "address"
        }
      ],
      "payable": false,
      "stateMutability": "view",
      "type": "function"
    },
    {
      "constant": false,
      "inputs": [],
      "name": "initialize",
      "outputs": [],
      "payable": false,
      "stateMutability": "nonpayable",
      "type": "function"
    },
    {
      "constant": false,
      "inputs": [
        {
          "internalType": "bytes",
          "name": "context",
          "type": "bytes"
        },
        {
          "internalType": "bool",
          "name": "success",
          "type": "bool"
        },
        {
          "internalType": "uint256",
          "name": "actualCharge",
          "type": "uint256"
        },
        {
          "internalType": "bytes32",
          "name": "preRetVal",
          "type": "bytes32"
        }
      ],
      "name": "postRelayedCall",
      "outputs": [],
      "payable": false,
      "stateMutability": "nonpayable",
      "type": "function"
    },
    {
      "constant": false,
      "inputs": [
        {
          "internalType": "bytes",
          "name": "context",
          "type": "bytes"
        }
      ],
      "name": "preRelayedCall",
      "outputs": [
        {
          "internalType": "bytes32",
          "name": "",
          "type": "bytes32"
        }
      ],
      "payable": false,
      "stateMutability": "nonpayable",
      "type": "function"
    },
    {
      "constant": true,
      "inputs": [],
      "name": "relayHubVersion",
      "outputs": [
        {
          "internalType": "string",
          "name": "",
          "type": "string"
        }
      ],
      "payable": false,
      "stateMutability": "view",
      "type": "function"
    },
    {
      "constant": false,
      "inputs": [],
      "name": "setDefaultRelayHub",
      "outputs": [],
      "payable": false,
      "stateMutability": "nonpayable",
      "type": "function"
    },
    {
      "constant": false,
      "inputs": [
        {
          "internalType": "string",
          "name": "id",
          "type": "string"
        },
        {
          "internalType": "string",
          "name": "journalId",
          "type": "string"
        },
        {
          "internalType": "string",
          "name": "publisher",
          "type": "string"
        },
        {
          "internalType": "string",
          "name": "manuscriptId",
          "type": "string"
        },
        {
          "internalType": "string",
          "name": "manuscriptHash",
          "type": "string"
        },
        {
          "internalType": "uint32",
          "name": "timestamp",
          "type": "uint32"
        },
        {
          "internalType": "enum ReviewStorage.Recommendation",
          "name": "recommendation",
          "type": "uint8"
        },
        {
          "internalType": "string",
          "name": "url",
          "type": "string"
        }
      ],
      "name": "addReview",
      "outputs": [],
      "payable": false,
      "stateMutability": "nonpayable",
      "type": "function"
    },
    {
      "constant": false,
      "inputs": [
        {
          "internalType": "string[]",
          "name": "ids",
          "type": "string[]"
        },
        {
          "internalType": "string[]",
          "name": "journalIds",
          "type": "string[]"
        },
        {
          "internalType": "string[]",
          "name": "publishers",
          "type": "string[]"
        },
        {
          "internalType": "string[]",
          "name": "manuscriptIds",
          "type": "string[]"
        },
        {
          "internalType": "string[]",
          "name": "manuscriptHashes",
          "type": "string[]"
        },
        {
          "internalType": "uint32[]",
          "name": "timestamps",
          "type": "uint32[]"
        },
        {
          "internalType": "enum ReviewStorage.Recommendation[]",
          "name": "recommendations",
          "type": "uint8[]"
        },
        {
          "internalType": "string[]",
          "name": "urls",
          "type": "string[]"
        }
      ],
      "name": "addMultipleReviews",
      "outputs": [],
      "payable": false,
      "stateMutability": "nonpayable",
      "type": "function"
    },
    {
      "constant": false,
      "inputs": [
        {
          "internalType": "string[]",
          "name": "ids",
          "type": "string[]"
        },
        {
          "internalType": "string[]",
          "name": "journalIds",
          "type": "string[]"
        },
        {
          "internalType": "string[]",
          "name": "publishers",
          "type": "string[]"
        },
        {
          "internalType": "string[]",
          "name": "manuscriptIds",
          "type": "string[]"
        },
        {
          "internalType": "string[]",
          "name": "manuscriptHashes",
          "type": "string[]"
        },
        {
          "internalType": "uint32[]",
          "name": "timestamps",
          "type": "uint32[]"
        },
        {
          "internalType": "enum ReviewStorage.Recommendation[]",
          "name": "recommendations",
          "type": "uint8[]"
        },
        {
          "internalType": "string[]",
          "name": "urls",
          "type": "string[]"
        },
        {
          "internalType": "bool[]",
          "name": "verifieds",
          "type": "bool[]"
        }
      ],
      "name": "addMultipleReviewsAndVerifyByPublons",
      "outputs": [],
      "payable": false,
      "stateMutability": "nonpayable",
      "type": "function"
    },
    {
      "constant": true,
      "inputs": [
        {
          "internalType": "string",
          "name": "id",
          "type": "string"
        }
      ],
      "name": "getReview",
      "outputs": [
        {
          "internalType": "string",
          "name": "",
          "type": "string"
        },
        {
          "internalType": "string",
          "name": "",
          "type": "string"
        },
        {
          "internalType": "string",
          "name": "",
          "type": "string"
        },
        {
          "internalType": "string",
          "name": "",
          "type": "string"
        },
        {
          "internalType": "string",
          "name": "",
          "type": "string"
        },
        {
          "internalType": "uint32",
          "name": "",
          "type": "uint32"
        },
        {
          "internalType": "enum ReviewStorage.Recommendation",
          "name": "",
          "type": "uint8"
        },
        {
          "internalType": "string",
          "name": "",
          "type": "string"
        },
        {
          "internalType": "bool",
          "name": "",
          "type": "bool"
        },
        {
          "internalType": "address[]",
          "name": "",
          "type": "address[]"
        }
      ],
      "payable": false,
      "stateMutability": "view",
      "type": "function"
    },
    {
      "constant": true,
      "inputs": [
        {
          "internalType": "address",
          "name": "addr",
          "type": "address"
        }
      ],
      "name": "getReviewsArrayOfUser",
      "outputs": [
        {
          "internalType": "string[]",
          "name": "",
          "type": "string[]"
        }
      ],
      "payable": false,
      "stateMutability": "view",
      "type": "function"
    },
    {
      "constant": false,
      "inputs": [
        {
          "internalType": "string",
          "name": "id",
          "type": "string"
        }
      ],
      "name": "vouch",
      "outputs": [],
      "payable": false,
      "stateMutability": "nonpayable",
      "type": "function"
    },
    {
      "constant": true,
      "inputs": [
        {
          "internalType": "string",
          "name": "id",
          "type": "string"
        }
      ],
      "name": "hasVouched",
      "outputs": [
        {
          "internalType": "bool",
          "name": "",
          "type": "bool"
        }
      ],
      "payable": false,
      "stateMutability": "view",
      "type": "function"
    },
    {
      "constant": true,
      "inputs": [
        {
          "internalType": "string",
          "name": "id",
          "type": "string"
        }
      ],
      "name": "isVerified",
      "outputs": [
        {
          "internalType": "bool",
          "name": "",
          "type": "bool"
        }
      ],
      "payable": false,
      "stateMutability": "view",
      "type": "function"
    },
    {
      "constant": true,
      "inputs": [
        {
          "internalType": "address",
          "name": "relay",
          "type": "address"
        },
        {
          "internalType": "address",
          "name": "from",
          "type": "address"
        },
        {
          "internalType": "bytes",
          "name": "encodedFunction",
          "type": "bytes"
        },
        {
          "internalType": "uint256",
          "name": "transactionFee",
          "type": "uint256"
        },
        {
          "internalType": "uint256",
          "name": "gasPrice",
          "type": "uint256"
        },
        {
          "internalType": "uint256",
          "name": "gasLimit",
          "type": "uint256"
        },
        {
          "internalType": "uint256",
          "name": "nonce",
          "type": "uint256"
        },
        {
          "internalType": "bytes",
          "name": "approvalData",
          "type": "bytes"
        },
        {
          "internalType": "uint256",
          "name": "maxPossibleCharge",
          "type": "uint256"
        }
      ],
      "name": "acceptRelayedCall",
      "outputs": [
        {
          "internalType": "uint256",
          "name": "",
          "type": "uint256"
        },
        {
          "internalType": "bytes",
          "name": "",
          "type": "bytes"
        }
      ],
      "payable": false,
      "stateMutability": "view",
      "type": "function"
    }
  ],
  "bytecode": "0x60806040527314b3a00c89bddb6c0577e518fca87ec19b1b2311603460006101000a81548173ffffffffffffffffffffffffffffffffffffffff021916908373ffffffffffffffffffffffffffffffffffffffff160217905550613586806100686000396000f3fe608060405234801561001057600080fd5b50600436106100f55760003560e01c80638129fc1c11610097578063b61873cf11610066578063b61873cf1461027c578063bfd95fd1146102ac578063e06e0e22146102c8578063f4ec8423146102e4576100f5565b80638129fc1c146101ea57806383947ea0146101f4578063ad61ccd514610225578063b444dc7514610243576100f5565b8063436fc97f116100d3578063436fc97f146101645780636a6e15531461018057806374e861d61461019c57806380274db7146101ba576100f5565b80631220e2ff146100fa5780631690130114610104578063234c76d514610134575b600080fd5b610102610300565b005b61011e6004803603610119919081019061245a565b61031f565b60405161012b9190612faa565b60405180910390f35b61014e60048036036101499190810190612958565b610447565b60405161015b9190612fcc565b60405180910390f35b61017e600480360361017991908101906126f5565b610484565b005b61019a60048036036101959190810190612583565b610911565b005b6101a4610ce4565b6040516101b19190612f8f565b60405180910390f35b6101d460048036036101cf9190810190612893565b610d0e565b6040516101e19190612fe7565b60405180910390f35b6101f2610dda565b005b61020e60048036036102099190810190612483565b610f23565b60405161021c9291906131b3565b60405180910390f35b61022d610f43565b60405161023a9190613024565b60405180910390f35b61025d60048036036102589190810190612958565b610f80565b6040516102739a99989796959493929190613046565b60405180910390f35b61029660048036036102919190810190612958565b6114f8565b6040516102a39190612fcc565b60405180910390f35b6102c660048036036102c19190810190612999565b61157f565b005b6102e260048036036102dd91908101906128d8565b611854565b005b6102fe60048036036102f99190810190612958565b611920565b005b61031d73d216153c06e857cd7f72665e0af1d7d82172f494611a9f565b565b6060603660008373ffffffffffffffffffffffffffffffffffffffff1673ffffffffffffffffffffffffffffffffffffffff168152602001908152602001600020805480602002602001604051908101604052809291908181526020016000905b8282101561043c578382906000526020600020018054600181600116156101000203166002900480601f0160208091040260200160405190810160405280929190818152602001828054600181600116156101000203166002900480156104285780601f106103fd57610100808354040283529160200191610428565b820191906000526020600020905b81548152906001019060200180831161040b57829003601f168201915b505050505081526020019060010190610380565b505050509050919050565b60008060358360405161045a9190612f78565b908152602001604051809103902090508060070160009054906101000a900460ff16915050919050565b87518951148015610496575086518851145b80156104a3575085518751145b80156104b0575084518651145b80156104bd575083518551145b80156104ca575082518451145b80156104d7575081518351145b80156104e4575080518251145b610523576040517f08c379a000000000000000000000000000000000000000000000000000000000815260040161051a90613133565b60405180910390fd5b6000885190506000610533611c44565b905060008090505b8262ffffff1681101561090357600060358d838151811061055857fe5b602002602001015160405161056d9190612f61565b908152602001604051809103902090508c828151811061058957fe5b60200260200101518160000190805190602001906105a8929190611d81565b508b82815181106105b557fe5b60200260200101518160010190805190602001906105d4929190611d81565b508a82815181106105e157fe5b6020026020010151816002019080519060200190610600929190611d81565b5089828151811061060d57fe5b602002602001015181600301908051906020019061062c929190611d81565b5088828151811061063957fe5b6020026020010151816004019080519060200190610658929190611d81565b5087828151811061066557fe5b60200260200101518160050160006101000a81548163ffffffff021916908363ffffffff16021790555086828151811061069b57fe5b60200260200101518160050160046101000a81548160ff021916908360038111156106c257fe5b02179055508582815181106106d357fe5b60200260200101518160060190805190602001906106f2929190611d81565b508482815181106106ff57fe5b60200260200101511561079e5760018160070160006101000a81548160ff0219169083151502179055506040518060200160405280603460009054906101000a900473ffffffffffffffffffffffffffffffffffffffff1673ffffffffffffffffffffffffffffffffffffffff1673ffffffffffffffffffffffffffffffffffffffff1681525081600801906001610798929190611e01565b50610805565b60008160070160006101000a81548160ff02191690831515021790555060006040519080825280602002602001820160405280156107eb5781602001602082028038833980820191505090505b50816008019080519060200190610803929190611e8b565b505b603660008473ffffffffffffffffffffffffffffffffffffffff1673ffffffffffffffffffffffffffffffffffffffff1681526020019081526020016000208d838151811061085057fe5b60200260200101519080600181540180825580915050906001820390600052602060002001600090919290919091509080519060200190610892929190611d81565b50508273ffffffffffffffffffffffffffffffffffffffff167f735a8465cb95c1119a0a9c5bfe794f848896e77bf9ba97f9115c49a08e5b54eb8e84815181106108d857fe5b60200260200101516040516108ed9190613002565b60405180910390a250808060010191505061053b565b505050505050505050505050565b86518851148015610923575085518751145b8015610930575084518651145b801561093d575083518551145b801561094a575082518451145b8015610957575081518351145b8015610964575080518251145b6109a3576040517f08c379a000000000000000000000000000000000000000000000000000000000815260040161099a90613133565b60405180910390fd5b60008751905060006109b3611c44565b905060008090505b8262ffffff16811015610cd757600060358c83815181106109d857fe5b60200260200101516040516109ed9190612f61565b908152602001604051809103902090508b8281518110610a0957fe5b6020026020010151816000019080519060200190610a28929190611d81565b508a8281518110610a3557fe5b6020026020010151816001019080519060200190610a54929190611d81565b50898281518110610a6157fe5b6020026020010151816002019080519060200190610a80929190611d81565b50888281518110610a8d57fe5b6020026020010151816003019080519060200190610aac929190611d81565b50878281518110610ab957fe5b6020026020010151816004019080519060200190610ad8929190611d81565b50868281518110610ae557fe5b60200260200101518160050160006101000a81548163ffffffff021916908363ffffffff160217905550858281518110610b1b57fe5b60200260200101518160050160046101000a81548160ff02191690836003811115610b4257fe5b0217905550848281518110610b5357fe5b6020026020010151816006019080519060200190610b72929190611d81565b5060008160070160006101000a81548160ff0219169083151502179055506000604051908082528060200260200182016040528015610bc05781602001602082028038833980820191505090505b50816008019080519060200190610bd8929190611e8b565b50603660008473ffffffffffffffffffffffffffffffffffffffff1673ffffffffffffffffffffffffffffffffffffffff1681526020019081526020016000208c8381518110610c2457fe5b60200260200101519080600181540180825580915050906001820390600052602060002001600090919290919091509080519060200190610c66929190611d81565b50508273ffffffffffffffffffffffffffffffffffffffff167f735a8465cb95c1119a0a9c5bfe794f848896e77bf9ba97f9115c49a08e5b54eb8d8481518110610cac57fe5b6020026020010151604051610cc19190613002565b60405180910390a25080806001019150506109bb565b5050505050505050505050565b6000603360009054906101000a900473ffffffffffffffffffffffffffffffffffffffff16905090565b6000610d18610ce4565b73ffffffffffffffffffffffffffffffffffffffff163373ffffffffffffffffffffffffffffffffffffffff1614610d85576040517f08c379a0000000000000000000000000000000000000000000000000000000008152600401610d7c90613193565b60405180910390fd5b610dd283838080601f016020809104026020016040519081016040528093929190818152602001838380828437600081840152601f19601f82011690508083019250505050505050611cb1565b905092915050565b600060019054906101000a900460ff1680610df95750610df8611cb8565b5b80610e1057506000809054906101000a900460ff16155b610e4f576040517f08c379a0000000000000000000000000000000000000000000000000000000008152600401610e4690613153565b60405180910390fd5b60008060019054906101000a900460ff161590508015610e9f576001600060016101000a81548160ff02191690831515021790555060016000806101000a81548160ff0219169083151502179055505b600073ffffffffffffffffffffffffffffffffffffffff16603360009054906101000a900473ffffffffffffffffffffffffffffffffffffffff1673ffffffffffffffffffffffffffffffffffffffff161415610eff57610efe610300565b5b8015610f205760008060016101000a81548160ff0219169083151502179055505b50565b60006060610f2f611ccf565b915091509b509b9950505050505050505050565b60606040518060400160405280600581526020017f312e302e30000000000000000000000000000000000000000000000000000000815250905090565b6060806060806060600080606060006060610f99611f15565b60358c604051610fa99190612f78565b908152602001604051809103902060405180610140016040529081600082018054600181600116156101000203166002900480601f01602080910402602001604051908101604052809291908181526020018280546001816001161561010002031660029004801561105c5780601f106110315761010080835404028352916020019161105c565b820191906000526020600020905b81548152906001019060200180831161103f57829003601f168201915b50505050508152602001600182018054600181600116156101000203166002900480601f0160208091040260200160405190810160405280929190818152602001828054600181600116156101000203166002900480156110fe5780601f106110d3576101008083540402835291602001916110fe565b820191906000526020600020905b8154815290600101906020018083116110e157829003601f168201915b50505050508152602001600282018054600181600116156101000203166002900480601f0160208091040260200160405190810160405280929190818152602001828054600181600116156101000203166002900480156111a05780601f10611175576101008083540402835291602001916111a0565b820191906000526020600020905b81548152906001019060200180831161118357829003601f168201915b50505050508152602001600382018054600181600116156101000203166002900480601f0160208091040260200160405190810160405280929190818152602001828054600181600116156101000203166002900480156112425780601f1061121757610100808354040283529160200191611242565b820191906000526020600020905b81548152906001019060200180831161122557829003601f168201915b50505050508152602001600482018054600181600116156101000203166002900480601f0160208091040260200160405190810160405280929190818152602001828054600181600116156101000203166002900480156112e45780601f106112b9576101008083540402835291602001916112e4565b820191906000526020600020905b8154815290600101906020018083116112c757829003601f168201915b505050505081526020016005820160009054906101000a900463ffffffff1663ffffffff1663ffffffff1681526020016005820160049054906101000a900460ff16600381111561133157fe5b600381111561133c57fe5b8152602001600682018054600181600116156101000203166002900480601f0160208091040260200160405190810160405280929190818152602001828054600181600116156101000203166002900480156113d95780601f106113ae576101008083540402835291602001916113d9565b820191906000526020600020905b8154815290600101906020018083116113bc57829003601f168201915b505050505081526020016007820160009054906101000a900460ff161515151581526020016008820180548060200260200160405190810160405280929190818152602001828054801561148257602002820191906000526020600020905b8160009054906101000a900473ffffffffffffffffffffffffffffffffffffffff1673ffffffffffffffffffffffffffffffffffffffff1681526020019060010190808311611438575b5050505050815250509050806000015181602001518260400151836060015184608001518560a001518660c001518760e001518861010001518961012001518999508898508797508696508595508292508090509a509a509a509a509a509a509a509a509a509a50509193959799509193959799565b600080611503611c44565b905060006035846040516115179190612f78565b908152602001604051809103902090508060090160008373ffffffffffffffffffffffffffffffffffffffff1673ffffffffffffffffffffffffffffffffffffffff16815260200190815260200160002060009054906101000a900460ff1692505050919050565b6000611589611c44565b9050611593611f15565b6040518061014001604052808b81526020018a81526020018981526020018881526020018781526020018663ffffffff1681526020018560038111156115d557fe5b815260200184815260200160001515815260200160006040519080825280602002602001820160405280156116195781602001602082028038833980820191505090505b5081525090508060358b6040516116309190612f78565b9081526020016040518091039020600082015181600001908051906020019061165a929190611f7b565b506020820151816001019080519060200190611677929190611f7b565b506040820151816002019080519060200190611694929190611f7b565b5060608201518160030190805190602001906116b1929190611f7b565b5060808201518160040190805190602001906116ce929190611f7b565b5060a08201518160050160006101000a81548163ffffffff021916908363ffffffff16021790555060c08201518160050160046101000a81548160ff0219169083600381111561171a57fe5b021790555060e082015181600601908051906020019061173b929190611f7b565b506101008201518160070160006101000a81548160ff02191690831515021790555061012082015181600801908051906020019061177a929190611ffb565b50905050603660008373ffffffffffffffffffffffffffffffffffffffff1673ffffffffffffffffffffffffffffffffffffffff1681526020019081526020016000208a90806001815401808255809150509060018203906000526020600020016000909192909190915090805190602001906117f8929190611d81565b50508173ffffffffffffffffffffffffffffffffffffffff167f735a8465cb95c1119a0a9c5bfe794f848896e77bf9ba97f9115c49a08e5b54eb8b6040516118409190613024565b60405180910390a250505050505050505050565b61185c610ce4565b73ffffffffffffffffffffffffffffffffffffffff163373ffffffffffffffffffffffffffffffffffffffff16146118c9576040517f08c379a00000000000000000000000000000000000000000000000000000000081526004016118c090613193565b60405180910390fd5b61191985858080601f016020809104026020016040519081016040528093929190818152602001838380828437600081840152601f19601f82011690508083019250505050505050848484611cf3565b5050505050565b600061192a611c44565b9050600060358360405161193e9190612f78565b90815260200160405180910390209050600015158160090160008473ffffffffffffffffffffffffffffffffffffffff1673ffffffffffffffffffffffffffffffffffffffff16815260200190815260200160002060009054906101000a900460ff1615151415611a6c57806008018290806001815401808255809150509060018203906000526020600020016000909192909190916101000a81548173ffffffffffffffffffffffffffffffffffffffff021916908373ffffffffffffffffffffffffffffffffffffffff1602179055505060018160090160008473ffffffffffffffffffffffffffffffffffffffff1673ffffffffffffffffffffffffffffffffffffffff16815260200190815260200160002060006101000a81548160ff0219169083151502179055505b600181600801805490501415611a9a5760018160070160006101000a81548160ff0219169083151502179055505b505050565b6000603360009054906101000a900473ffffffffffffffffffffffffffffffffffffffff169050600073ffffffffffffffffffffffffffffffffffffffff168273ffffffffffffffffffffffffffffffffffffffff161415611b36576040517f08c379a0000000000000000000000000000000000000000000000000000000008152600401611b2d90613113565b60405180910390fd5b8073ffffffffffffffffffffffffffffffffffffffff168273ffffffffffffffffffffffffffffffffffffffff161415611ba5576040517f08c379a0000000000000000000000000000000000000000000000000000000008152600401611b9c90613173565b60405180910390fd5b8173ffffffffffffffffffffffffffffffffffffffff168173ffffffffffffffffffffffffffffffffffffffff167fb9f84b8e65164b14439ae3620df0a4d8786d896996c0282b683f9d8c08f046e860405160405180910390a381603360006101000a81548173ffffffffffffffffffffffffffffffffffffffff021916908373ffffffffffffffffffffffffffffffffffffffff1602179055505050565b6000603360009054906101000a900473ffffffffffffffffffffffffffffffffffffffff1673ffffffffffffffffffffffffffffffffffffffff163373ffffffffffffffffffffffffffffffffffffffff1614611ca357339050611cae565b611cab611cf9565b90505b90565b6000919050565b6000803090506000813b9050600081149250505090565b60006060611ceb60405180602001604052806000815250611d71565b915091509091565b50505050565b600060606000368080601f016020809104026020016040519081016040528093929190818152602001838380828437600081840152601f19601f820116905080830192505050505050509050600080369050905073ffffffffffffffffffffffffffffffffffffffff81830151169250829250505090565b6000606060008391509150915091565b828054600181600116156101000203166002900490600052602060002090601f016020900481019282601f10611dc257805160ff1916838001178555611df0565b82800160010185558215611df0579182015b82811115611def578251825591602001919060010190611dd4565b5b509050611dfd9190612085565b5090565b828054828255906000526020600020908101928215611e7a579160200282015b82811115611e795782518260006101000a81548173ffffffffffffffffffffffffffffffffffffffff021916908373ffffffffffffffffffffffffffffffffffffffff16021790555091602001919060010190611e21565b5b509050611e8791906120aa565b5090565b828054828255906000526020600020908101928215611f04579160200282015b82811115611f035782518260006101000a81548173ffffffffffffffffffffffffffffffffffffffff021916908373ffffffffffffffffffffffffffffffffffffffff16021790555091602001919060010190611eab565b5b509050611f1191906120aa565b5090565b6040518061014001604052806060815260200160608152602001606081526020016060815260200160608152602001600063ffffffff16815260200160006003811115611f5e57fe5b815260200160608152602001600015158152602001606081525090565b828054600181600116156101000203166002900490600052602060002090601f016020900481019282601f10611fbc57805160ff1916838001178555611fea565b82800160010185558215611fea579182015b82811115611fe9578251825591602001919060010190611fce565b5b509050611ff79190612085565b5090565b828054828255906000526020600020908101928215612074579160200282015b828111156120735782518260006101000a81548173ffffffffffffffffffffffffffffffffffffffff021916908373ffffffffffffffffffffffffffffffffffffffff1602179055509160200191906001019061201b565b5b50905061208191906120aa565b5090565b6120a791905b808211156120a357600081600090555060010161208b565b5090565b90565b6120ea91905b808211156120e657600081816101000a81549073ffffffffffffffffffffffffffffffffffffffff0219169055506001016120b0565b5090565b90565b6000813590506120fc816134c0565b92915050565b600082601f83011261211357600080fd5b813561212661212182613210565b6131e3565b9150818183526020840193506020810190508385602084028201111561214b57600080fd5b60005b8381101561217b578161216188826122ff565b84526020840193506020830192505060018101905061214e565b5050505092915050565b600082601f83011261219657600080fd5b81356121a96121a482613238565b6131e3565b915081818352602084019350602081019050838560208402820111156121ce57600080fd5b60005b838110156121fe57816121e48882612373565b8452602084019350602083019250506001810190506121d1565b5050505092915050565b600082601f83011261221957600080fd5b813561222c61222782613260565b6131e3565b9150818183526020840193506020810190508360005b8381101561227257813586016122588882612388565b845260208401935060208301925050600181019050612242565b5050505092915050565b600082601f83011261228d57600080fd5b81356122a061229b82613288565b6131e3565b915081818352602084019350602081019050838560208402820111156122c557600080fd5b60005b838110156122f557816122db8882612445565b8452602084019350602083019250506001810190506122c8565b5050505092915050565b60008135905061230e816134d7565b92915050565b600081359050612323816134ee565b92915050565b60008083601f84011261233b57600080fd5b8235905067ffffffffffffffff81111561235457600080fd5b60208301915083600182028301111561236c57600080fd5b9250929050565b60008135905061238281613505565b92915050565b600082601f83011261239957600080fd5b81356123ac6123a7826132b0565b6131e3565b915080825260208301602083018583830111156123c857600080fd5b6123d3838284613460565b50505092915050565b600082601f8301126123ed57600080fd5b81356124006123fb826132dc565b6131e3565b9150808252602083016020830185838301111561241c57600080fd5b612427838284613460565b50505092915050565b60008135905061243f81613515565b92915050565b6000813590506124548161352c565b92915050565b60006020828403121561246c57600080fd5b600061247a848285016120ed565b91505092915050565b60008060008060008060008060008060006101208c8e0312156124a557600080fd5b60006124b38e828f016120ed565b9b505060206124c48e828f016120ed565b9a505060408c013567ffffffffffffffff8111156124e157600080fd5b6124ed8e828f01612329565b995099505060606125008e828f01612430565b97505060806125118e828f01612430565b96505060a06125228e828f01612430565b95505060c06125338e828f01612430565b94505060e08c013567ffffffffffffffff81111561255057600080fd5b61255c8e828f01612329565b93509350506101006125708e828f01612430565b9150509295989b509295989b9093969950565b600080600080600080600080610100898b0312156125a057600080fd5b600089013567ffffffffffffffff8111156125ba57600080fd5b6125c68b828c01612208565b985050602089013567ffffffffffffffff8111156125e357600080fd5b6125ef8b828c01612208565b975050604089013567ffffffffffffffff81111561260c57600080fd5b6126188b828c01612208565b965050606089013567ffffffffffffffff81111561263557600080fd5b6126418b828c01612208565b955050608089013567ffffffffffffffff81111561265e57600080fd5b61266a8b828c01612208565b94505060a089013567ffffffffffffffff81111561268757600080fd5b6126938b828c0161227c565b93505060c089013567ffffffffffffffff8111156126b057600080fd5b6126bc8b828c01612185565b92505060e089013567ffffffffffffffff8111156126d957600080fd5b6126e58b828c01612208565b9150509295985092959890939650565b60008060008060008060008060006101208a8c03121561271457600080fd5b60008a013567ffffffffffffffff81111561272e57600080fd5b61273a8c828d01612208565b99505060208a013567ffffffffffffffff81111561275757600080fd5b6127638c828d01612208565b98505060408a013567ffffffffffffffff81111561278057600080fd5b61278c8c828d01612208565b97505060608a013567ffffffffffffffff8111156127a957600080fd5b6127b58c828d01612208565b96505060808a013567ffffffffffffffff8111156127d257600080fd5b6127de8c828d01612208565b95505060a08a013567ffffffffffffffff8111156127fb57600080fd5b6128078c828d0161227c565b94505060c08a013567ffffffffffffffff81111561282457600080fd5b6128308c828d01612185565b93505060e08a013567ffffffffffffffff81111561284d57600080fd5b6128598c828d01612208565b9250506101008a013567ffffffffffffffff81111561287757600080fd5b6128838c828d01612102565b9150509295985092959850929598565b600080602083850312156128a657600080fd5b600083013567ffffffffffffffff8111156128c057600080fd5b6128cc85828601612329565b92509250509250929050565b6000806000806000608086880312156128f057600080fd5b600086013567ffffffffffffffff81111561290a57600080fd5b61291688828901612329565b95509550506020612929888289016122ff565b935050604061293a88828901612430565b925050606061294b88828901612314565b9150509295509295909350565b60006020828403121561296a57600080fd5b600082013567ffffffffffffffff81111561298457600080fd5b612990848285016123dc565b91505092915050565b600080600080600080600080610100898b0312156129b657600080fd5b600089013567ffffffffffffffff8111156129d057600080fd5b6129dc8b828c016123dc565b985050602089013567ffffffffffffffff8111156129f957600080fd5b612a058b828c016123dc565b975050604089013567ffffffffffffffff811115612a2257600080fd5b612a2e8b828c016123dc565b965050606089013567ffffffffffffffff811115612a4b57600080fd5b612a578b828c016123dc565b955050608089013567ffffffffffffffff811115612a7457600080fd5b612a808b828c016123dc565b94505060a0612a918b828c01612445565b93505060c0612aa28b828c01612373565b92505060e089013567ffffffffffffffff811115612abf57600080fd5b612acb8b828c016123dc565b9150509295985092959890939650565b6000612ae78383612b07565b60208301905092915050565b6000612aff8383612cc8565b905092915050565b612b10816133d9565b82525050565b612b1f816133d9565b82525050565b6000612b3082613328565b612b3a8185613379565b9350612b4583613308565b8060005b83811015612b76578151612b5d8882612adb565b9750612b688361335f565b925050600181019050612b49565b5085935050505092915050565b6000612b8e82613333565b612b98818561338a565b935083602082028501612baa85613318565b8060005b85811015612be65784840389528151612bc78582612af3565b9450612bd28361336c565b925060208a01995050600181019050612bae565b50829750879550505050505092915050565b612c01816133eb565b82525050565b612c10816133f7565b82525050565b6000612c218261333e565b612c2b818561339b565b9350612c3b81856020860161346f565b612c44816134a2565b840191505092915050565b612c588161344e565b82525050565b6000612c6982613354565b612c7381856133bd565b9350612c8381856020860161346f565b612c8c816134a2565b840191505092915050565b6000612ca282613354565b612cac81856133ce565b9350612cbc81856020860161346f565b80840191505092915050565b6000612cd382613349565b612cdd81856133ac565b9350612ced81856020860161346f565b612cf6816134a2565b840191505092915050565b6000612d0c82613349565b612d1681856133bd565b9350612d2681856020860161346f565b612d2f816134a2565b840191505092915050565b6000612d4582613349565b612d4f81856133ce565b9350612d5f81856020860161346f565b80840191505092915050565b6000612d78602e836133bd565b91507f47534e526563697069656e743a206e65772052656c617948756220697320746860008301527f65207a65726f20616464726573730000000000000000000000000000000000006020830152604082019050919050565b6000612dde601c836133bd565b91507f506172616d65746572206c656e6774687320646f6e74206d61746368000000006000830152602082019050919050565b6000612e1e602e836133bd565b91507f436f6e747261637420696e7374616e63652068617320616c726561647920626560008301527f656e20696e697469616c697a65640000000000000000000000000000000000006020830152604082019050919050565b6000612e84602d836133bd565b91507f47534e526563697069656e743a206e65772052656c617948756220697320746860008301527f652063757272656e74206f6e65000000000000000000000000000000000000006020830152604082019050919050565b6000612eea6024836133bd565b91507f47534e526563697069656e743a2063616c6c6572206973206e6f742052656c6160008301527f79487562000000000000000000000000000000000000000000000000000000006020830152604082019050919050565b612f4c81613434565b82525050565b612f5b8161343e565b82525050565b6000612f6d8284612d3a565b915081905092915050565b6000612f848284612c97565b915081905092915050565b6000602082019050612fa46000830184612b16565b92915050565b60006020820190508181036000830152612fc48184612b83565b905092915050565b6000602082019050612fe16000830184612bf8565b92915050565b6000602082019050612ffc6000830184612c07565b92915050565b6000602082019050818103600083015261301c8184612d01565b905092915050565b6000602082019050818103600083015261303e8184612c5e565b905092915050565b6000610140820190508181036000830152613061818d612c5e565b90508181036020830152613075818c612c5e565b90508181036040830152613089818b612c5e565b9050818103606083015261309d818a612c5e565b905081810360808301526130b18189612c5e565b90506130c060a0830188612f52565b6130cd60c0830187612c4f565b81810360e08301526130df8186612c5e565b90506130ef610100830185612bf8565b8181036101208301526131028184612b25565b90509b9a5050505050505050505050565b6000602082019050818103600083015261312c81612d6b565b9050919050565b6000602082019050818103600083015261314c81612dd1565b9050919050565b6000602082019050818103600083015261316c81612e11565b9050919050565b6000602082019050818103600083015261318c81612e77565b9050919050565b600060208201905081810360008301526131ac81612edd565b9050919050565b60006040820190506131c86000830185612f43565b81810360208301526131da8184612c16565b90509392505050565b6000604051905081810181811067ffffffffffffffff8211171561320657600080fd5b8060405250919050565b600067ffffffffffffffff82111561322757600080fd5b602082029050602081019050919050565b600067ffffffffffffffff82111561324f57600080fd5b602082029050602081019050919050565b600067ffffffffffffffff82111561327757600080fd5b602082029050602081019050919050565b600067ffffffffffffffff82111561329f57600080fd5b602082029050602081019050919050565b600067ffffffffffffffff8211156132c757600080fd5b601f19601f8301169050602081019050919050565b600067ffffffffffffffff8211156132f357600080fd5b601f19601f8301169050602081019050919050565b6000819050602082019050919050565b6000819050602082019050919050565b600081519050919050565b600081519050919050565b600081519050919050565b600081519050919050565b600081519050919050565b6000602082019050919050565b6000602082019050919050565b600082825260208201905092915050565b600082825260208201905092915050565b600082825260208201905092915050565b600082825260208201905092915050565b600082825260208201905092915050565b600081905092915050565b60006133e482613414565b9050919050565b60008115159050919050565b6000819050919050565b600081905061340f826134b3565b919050565b600073ffffffffffffffffffffffffffffffffffffffff82169050919050565b6000819050919050565b600063ffffffff82169050919050565b600061345982613401565b9050919050565b82818337600083830152505050565b60005b8381101561348d578082015181840152602081019050613472565b8381111561349c576000848401525b50505050565b6000601f19601f8301169050919050565b600481106134bd57fe5b50565b6134c9816133d9565b81146134d457600080fd5b50565b6134e0816133eb565b81146134eb57600080fd5b50565b6134f7816133f7565b811461350257600080fd5b50565b6004811061351257600080fd5b50565b61351e81613434565b811461352957600080fd5b50565b6135358161343e565b811461354057600080fd5b5056fea365627a7a7231582005eb7914d9cca7c900c4e93861c6211cf4e613d5b7b24161eacf02d1f5c59e6c6c6578706572696d656e74616cf564736f6c63430005110040",
  "source": "pragma solidity ^0.5.6;\npragma experimental ABIEncoderV2;\n\n/// @title A smart contract for storing peer reviews\n/// @author Kaan Uzdogan uzdogan@mpdl.mpg.de\n/// @notice\n/// @dev\n\nimport \"@openzeppelin/contracts-ethereum-package/contracts/GSN/GSNRecipient.sol\";\n\n\ncontract ReviewStorage is GSNRecipient {\n    // address[] usersAddresses; // Should we keep this?\n    event ReviewAdded(address indexed _from, string id);\n    address publonsAddress = 0x14B3a00C89BDdB6C0577E518FCA87eC19b1b2311;\n    enum Recommendation {NULL, ACCEPT, REVISE, REJECT}\n    struct Review {\n        string id;\n        string journalId; // ISSN\n        string publisher; // Publisher Name\n        string manuscriptId; // DOI?\n        string manuscriptHash;\n        uint32 timestamp; // Unix time (32 bits), when review is published\n        Recommendation recommendation;\n        string url;\n        bool verified;\n        address[] vouchers;\n        mapping(address => bool) vouchersMap; // Check if vouched by a certain address.\n    }\n    // Mapping from Review ids to Reviews.\n    mapping(string => Review) reviewsMap;\n    mapping(address => string[]) userReviewsIdsMap;\n\n    /// @notice Public method to add a review.\n    /// @dev Assumes the owner(author) of the review is the _msgSender()\n    /// @param id - Id of the review generated by the client.\n    /// @param journalId - Typically ISSN number of the journal\n    /// @param publisher - The name of the publisher\n    /// @param manuscriptId - An identifier for the manuscript. This could be an internal id of a journal.\n    /// @param manuscriptHash - (Optional) Hash of the manuscript document\n    /// @param timestamp - uint32 Unix timestamp when review is published\n    /// @param recommendation - 0,1 or 2 for ACCEPT, REVIEW, REJECT\n    function addReview(\n        string memory id,\n        string memory journalId,\n        string memory publisher,\n        string memory manuscriptId,\n        string memory manuscriptHash,\n        uint32 timestamp,\n        Recommendation recommendation,\n        string memory url\n    ) public {\n        address author = _msgSender();\n\n        Review memory review = Review({\n            id: id,\n            journalId: journalId,\n            publisher: publisher,\n            manuscriptId: manuscriptId,\n            manuscriptHash: manuscriptHash,\n            timestamp: timestamp,\n            recommendation: recommendation,\n            url: url,\n            verified: false,\n            vouchers: new address[](0) // Init empty array\n        });\n        reviewsMap[id] = review;\n        userReviewsIdsMap[author].push(id);\n        emit ReviewAdded(author, id);\n    }\n\n    function addMultipleReviews(\n        string[] memory ids,\n        string[] memory journalIds,\n        string[] memory publishers,\n        string[] memory manuscriptIds,\n        string[] memory manuscriptHashes,\n        uint32[] memory timestamps,\n        Recommendation[] memory recommendations,\n        string[] memory urls\n    ) public {\n        require(\n            ids.length == journalIds.length &&\n                journalIds.length == publishers.length &&\n                publishers.length == manuscriptIds.length &&\n                manuscriptIds.length == manuscriptHashes.length &&\n                manuscriptHashes.length == timestamps.length &&\n                timestamps.length == recommendations.length &&\n                recommendations.length == urls.length,\n            \"Parameter lengths dont match\"\n        );\n        uint24 length = uint24(journalIds.length);\n        address author = _msgSender();\n        for (uint256 i = 0; i < length; i++) {\n            Review storage review = reviewsMap[ids[i]];\n            review.id = ids[i];\n            review.journalId = journalIds[i];\n            review.publisher = publishers[i];\n            review.manuscriptId = manuscriptIds[i];\n            review.manuscriptHash = manuscriptHashes[i];\n            review.timestamp = timestamps[i];\n            review.recommendation = recommendations[i];\n            review.url = urls[i];\n            review.verified = false;\n            review.vouchers = new address[](0); // Init empty array\n            userReviewsIdsMap[author].push(ids[i]);\n            emit ReviewAdded(author, ids[i]);\n        }\n    }\n\n    // TODO: REFACTOR, Repeating the code above.\n    function addMultipleReviewsAndVerifyByPublons(\n        string[] memory ids,\n        string[] memory journalIds,\n        string[] memory publishers,\n        string[] memory manuscriptIds,\n        string[] memory manuscriptHashes,\n        uint32[] memory timestamps,\n        Recommendation[] memory recommendations,\n        string[] memory urls,\n        bool[] memory verifieds\n    ) public {\n        require(\n            ids.length == journalIds.length &&\n                journalIds.length == publishers.length &&\n                publishers.length == manuscriptIds.length &&\n                manuscriptIds.length == manuscriptHashes.length &&\n                manuscriptHashes.length == timestamps.length &&\n                timestamps.length == recommendations.length &&\n                recommendations.length == urls.length &&\n                urls.length == verifieds.length,\n            \"Parameter lengths dont match\"\n        );\n        uint24 length = uint24(journalIds.length);\n        address author = _msgSender();\n        for (uint256 i = 0; i < length; i++) {\n            Review storage review = reviewsMap[ids[i]];\n            review.id = ids[i];\n            review.journalId = journalIds[i];\n            review.publisher = publishers[i];\n            review.manuscriptId = manuscriptIds[i];\n            review.manuscriptHash = manuscriptHashes[i];\n            review.timestamp = timestamps[i];\n            review.recommendation = recommendations[i];\n            review.url = urls[i];\n            if (verifieds[i]) {\n                review.verified = true;\n                review.vouchers = [publonsAddress]; // Add the publonsAddress as voucher.\n            } else {\n                review.verified = false;\n                review.vouchers = new address[](0); // Init empty array\n            }\n            userReviewsIdsMap[author].push(ids[i]);\n            emit ReviewAdded(author, ids[i]);\n        }\n    }\n\n    /// @notice Returns the Review belonging to the paramater address on the parameter index.\n    /// @dev Returns the Review struct as an ordered key value object. e.g. {0: 'JOURNALID', 1: ....}\n    /// @param id - id of the review.\n    /// @return journalId\n    /// @return manuscriptId\n    /// @return manuscriptHash\n    /// @return timestamp\n    /// @return recommendation\n    /// @return verified - bool that is true if 2 or more accounts vouched the review.\n    /// @return vouchers - the list of addresses that vouched this review.\n    // TODO: Can have another function to retrieve private information of _msgSender().\n    function getReview(string memory id)\n        public\n        view\n        returns (\n            string memory,\n            string memory,\n            string memory,\n            string memory,\n            string memory,\n            uint32,\n            Recommendation,\n            string memory,\n            bool,\n            address[] memory\n        )\n    {\n        Review memory review = reviewsMap[id];\n        return (\n            review.id,\n            review.journalId,\n            review.publisher,\n            review.manuscriptId,\n            review.manuscriptHash,\n            review.timestamp,\n            review.recommendation,\n            review.url,\n            review.verified,\n            review.vouchers\n        );\n    }\n\n    function getReviewsArrayOfUser(address addr)\n        public\n        view\n        returns (string[] memory)\n    {\n        return userReviewsIdsMap[addr];\n    }\n\n    /// @notice Function to vouch a Review at the given address and index.\n    /// @dev Assumes the voucher is the _msgSender(). Checks if the Review is already vouched by the same address.\n    /// @param id - id of the review\n    function vouch(string memory id) public {\n        // TODO: Can't vouch herself\n        address voucher = _msgSender(); // TODO: Avoid being vouched by a contract\n        Review storage review = reviewsMap[id];\n        if (review.vouchersMap[voucher] == false) {\n            // If not vouched by current voucher.\n            review.vouchers.push(voucher); // Add to vouchers.\n            review.vouchersMap[voucher] = true; // Mark voucher true.\n        }\n        if (review.vouchers.length == 1) {\n            review.verified = true;\n        }\n    }\n\n    /// @notice Function to check if the Review at the given address and index is vouched by _msgSender()8i.\n    /// @dev Assumes the voucher is the _msgSender().\n    /// @param id - id of the review\n    /// @return bool showing that Review is vouched by the _msgSender().\n    function hasVouched(string memory id) public view returns (bool) {\n        address voucher = _msgSender();\n        Review storage review = reviewsMap[id];\n        return review.vouchersMap[voucher];\n    }\n\n    /// @notice Function to check if the Review at the given address and index is verified. I.e. vouched by 2 or more accounts.\n    /// @param id - id of the review\n    /// @return bool showing if Review is verified.\n    function isVerified(string memory id) public view returns (bool) {\n        Review storage review = reviewsMap[id];\n        return review.verified;\n    }\n\n    /// @notice Function to accept a gas station relayed call, can implement additional authentication - currently wide open\n\n    function acceptRelayedCall(\n        address relay,\n        address from,\n        bytes calldata encodedFunction,\n        uint256 transactionFee,\n        uint256 gasPrice,\n        uint256 gasLimit,\n        uint256 nonce,\n        bytes calldata approvalData,\n        uint256 maxPossibleCharge\n    ) external view returns (uint256, bytes memory) {\n        return _approveRelayedCall();\n    }\n\n    // We won't do any pre or post processing, so leave _preRelayedCall and _postRelayedCall empty\n    function _preRelayedCall(bytes memory context) internal returns (bytes32) {}\n\n    function _postRelayedCall(\n        bytes memory context,\n        bool,\n        uint256 actualCharge,\n        bytes32\n    ) internal {}\n}\n",
  "sourcePath": "/home/kuzdogan/Desktop/repos/peer-review-app/contracts/ReviewStorage.sol",
  "compiler": {
    "name": "solc",
    "version": "0.5.17+commit.d19bba13.Emscripten.clang"
  },
  "schemaVersion": "3.0.11",
  "updatedAt": "2020-03-30T15:32:03.086Z",
  "devdoc": {
    "methods": {
      "addReview(string,string,string,string,string,uint32,uint8,string)": {
        "details": "Assumes the owner(author) of the review is the _msgSender()",
        "params": {
          "id": "- Id of the review generated by the client.",
          "journalId": "- Typically ISSN number of the journal",
          "manuscriptHash": "- (Optional) Hash of the manuscript document",
          "manuscriptId": "- An identifier for the manuscript. This could be an internal id of a journal.",
          "publisher": "- The name of the publisher",
          "recommendation": "- 0,1 or 2 for ACCEPT, REVIEW, REJECT",
          "timestamp": "- uint32 Unix timestamp when review is published"
        }
      },
      "getHubAddr()": {
        "details": "Returns the address of the {IRelayHub} contract for this recipient."
      },
      "getReview(string)": {
        "details": "Returns the Review struct as an ordered key value object. e.g. {0: 'JOURNALID', 1: ....}",
        "params": {
          "id": "- id of the review."
        },
        "return": "journalIdmanuscriptIdmanuscriptHashtimestamprecommendationverified - bool that is true if 2 or more accounts vouched the review.vouchers - the list of addresses that vouched this review."
      },
      "hasVouched(string)": {
        "details": "Assumes the voucher is the _msgSender().",
        "params": {
          "id": "- id of the review"
        },
        "return": "bool showing that Review is vouched by the _msgSender()."
      },
      "isVerified(string)": {
        "params": {
          "id": "- id of the review"
        },
        "return": "bool showing if Review is verified."
      },
      "postRelayedCall(bytes,bool,uint256,bytes32)": {
        "details": "See `IRelayRecipient.postRelayedCall`.     * This function should not be overriden directly, use `_postRelayedCall` instead.     * * Requirements:     * - the caller must be the `RelayHub` contract."
      },
      "preRelayedCall(bytes)": {
        "details": "See `IRelayRecipient.preRelayedCall`.     * This function should not be overriden directly, use `_preRelayedCall` instead.     * * Requirements:     * - the caller must be the `RelayHub` contract."
      },
      "relayHubVersion()": {
        "details": "Returns the version string of the {IRelayHub} for which this recipient implementation was built. If {_upgradeRelayHub} is used, the new {IRelayHub} instance should be compatible with this version."
      },
      "vouch(string)": {
        "details": "Assumes the voucher is the _msgSender(). Checks if the Review is already vouched by the same address.",
        "params": {
          "id": "- id of the review"
        }
      }
    }
  },
  "userdoc": {
    "methods": {
      "acceptRelayedCall(address,address,bytes,uint256,uint256,uint256,uint256,bytes,uint256)": {
        "notice": "Function to accept a gas station relayed call, can implement additional authentication - currently wide open"
      },
      "addReview(string,string,string,string,string,uint32,uint8,string)": {
        "notice": "Public method to add a review."
      },
      "getReview(string)": {
        "notice": "Returns the Review belonging to the paramater address on the parameter index."
      },
      "hasVouched(string)": {
        "notice": "Function to check if the Review at the given address and index is vouched by _msgSender()8i."
      },
      "isVerified(string)": {
        "notice": "Function to check if the Review at the given address and index is verified. I.e. vouched by 2 or more accounts."
      },
      "vouch(string)": {
        "notice": "Function to vouch a Review at the given address and index."
      }
    }
  }
}