{
  "contractName": "ReviewStorage",
  "abi": [
    {
      "anonymous": false,
      "inputs": [
        {
          "indexed": true,
          "internalType": "address",
          "name": "oldRelayHub",
          "type": "address"
        },
        {
          "indexed": true,
          "internalType": "address",
          "name": "newRelayHub",
          "type": "address"
        }
      ],
      "name": "RelayHubChanged",
      "type": "event"
    },
    {
      "anonymous": false,
      "inputs": [
        {
          "indexed": true,
          "internalType": "address",
          "name": "from",
          "type": "address"
        },
        {
          "indexed": false,
          "internalType": "string",
          "name": "id",
          "type": "string"
        }
      ],
      "name": "ReviewAdded",
      "type": "event"
    },
    {
      "anonymous": false,
      "inputs": [
        {
          "indexed": true,
          "internalType": "address",
          "name": "from",
          "type": "address"
        },
        {
          "indexed": false,
          "internalType": "string",
          "name": "id",
          "type": "string"
        }
      ],
      "name": "ReviewDeleted",
      "type": "event"
    },
    {
      "anonymous": false,
      "inputs": [
        {
          "indexed": true,
          "internalType": "address",
          "name": "from",
          "type": "address"
        },
        {
          "indexed": false,
          "internalType": "string",
          "name": "id",
          "type": "string"
        }
      ],
      "name": "ReviewVouched",
      "type": "event"
    },
    {
      "constant": true,
      "inputs": [],
      "name": "getHubAddr",
      "outputs": [
        {
          "internalType": "address",
          "name": "",
          "type": "address"
        }
      ],
      "payable": false,
      "stateMutability": "view",
      "type": "function"
    },
    {
      "constant": false,
      "inputs": [
        {
          "internalType": "bytes",
          "name": "context",
          "type": "bytes"
        },
        {
          "internalType": "bool",
          "name": "success",
          "type": "bool"
        },
        {
          "internalType": "uint256",
          "name": "actualCharge",
          "type": "uint256"
        },
        {
          "internalType": "bytes32",
          "name": "preRetVal",
          "type": "bytes32"
        }
      ],
      "name": "postRelayedCall",
      "outputs": [],
      "payable": false,
      "stateMutability": "nonpayable",
      "type": "function"
    },
    {
      "constant": false,
      "inputs": [
        {
          "internalType": "bytes",
          "name": "context",
          "type": "bytes"
        }
      ],
      "name": "preRelayedCall",
      "outputs": [
        {
          "internalType": "bytes32",
          "name": "",
          "type": "bytes32"
        }
      ],
      "payable": false,
      "stateMutability": "nonpayable",
      "type": "function"
    },
    {
      "constant": true,
      "inputs": [],
      "name": "relayHubVersion",
      "outputs": [
        {
          "internalType": "string",
          "name": "",
          "type": "string"
        }
      ],
      "payable": false,
      "stateMutability": "view",
      "type": "function"
    },
    {
      "constant": false,
      "inputs": [],
      "name": "setDefaultRelayHub",
      "outputs": [],
      "payable": false,
      "stateMutability": "nonpayable",
      "type": "function"
    },
    {
      "constant": false,
      "inputs": [],
      "name": "initialize",
      "outputs": [],
      "payable": false,
      "stateMutability": "nonpayable",
      "type": "function"
    },
    {
      "constant": false,
      "inputs": [
        {
          "internalType": "string",
          "name": "id",
          "type": "string"
        },
        {
          "internalType": "string",
          "name": "journalId",
          "type": "string"
        },
        {
          "internalType": "string",
          "name": "publisher",
          "type": "string"
        },
        {
          "internalType": "string",
          "name": "manuscriptId",
          "type": "string"
        },
        {
          "internalType": "string",
          "name": "manuscriptHash",
          "type": "string"
        },
        {
          "internalType": "uint32",
          "name": "timestamp",
          "type": "uint32"
        },
        {
          "internalType": "enum ReviewStorage.Recommendation",
          "name": "recommendation",
          "type": "uint8"
        },
        {
          "internalType": "string",
          "name": "url",
          "type": "string"
        }
      ],
      "name": "addReview",
      "outputs": [],
      "payable": false,
      "stateMutability": "nonpayable",
      "type": "function"
    },
    {
      "constant": false,
      "inputs": [
        {
          "internalType": "string[]",
          "name": "ids",
          "type": "string[]"
        },
        {
          "internalType": "string[]",
          "name": "journalIds",
          "type": "string[]"
        },
        {
          "internalType": "string[]",
          "name": "publishers",
          "type": "string[]"
        },
        {
          "internalType": "string[]",
          "name": "manuscriptIds",
          "type": "string[]"
        },
        {
          "internalType": "string[]",
          "name": "manuscriptHashes",
          "type": "string[]"
        },
        {
          "internalType": "uint32[]",
          "name": "timestamps",
          "type": "uint32[]"
        },
        {
          "internalType": "enum ReviewStorage.Recommendation[]",
          "name": "recommendations",
          "type": "uint8[]"
        },
        {
          "internalType": "string[]",
          "name": "urls",
          "type": "string[]"
        }
      ],
      "name": "addMultipleReviews",
      "outputs": [],
      "payable": false,
      "stateMutability": "nonpayable",
      "type": "function"
    },
    {
      "constant": false,
      "inputs": [
        {
          "internalType": "string[]",
          "name": "ids",
          "type": "string[]"
        },
        {
          "internalType": "string[]",
          "name": "journalIds",
          "type": "string[]"
        },
        {
          "internalType": "string[]",
          "name": "publishers",
          "type": "string[]"
        },
        {
          "internalType": "string[]",
          "name": "manuscriptIds",
          "type": "string[]"
        },
        {
          "internalType": "string[]",
          "name": "manuscriptHashes",
          "type": "string[]"
        },
        {
          "internalType": "uint32[]",
          "name": "timestamps",
          "type": "uint32[]"
        },
        {
          "internalType": "enum ReviewStorage.Recommendation[]",
          "name": "recommendations",
          "type": "uint8[]"
        },
        {
          "internalType": "string[]",
          "name": "urls",
          "type": "string[]"
        },
        {
          "internalType": "bool[]",
          "name": "verifieds",
          "type": "bool[]"
        }
      ],
      "name": "addMultipleReviewsAndVerifyByPublons",
      "outputs": [],
      "payable": false,
      "stateMutability": "nonpayable",
      "type": "function"
    },
    {
      "constant": true,
      "inputs": [
        {
          "internalType": "string",
          "name": "id",
          "type": "string"
        }
      ],
      "name": "getReview",
      "outputs": [
        {
          "internalType": "string",
          "name": "",
          "type": "string"
        },
        {
          "internalType": "address",
          "name": "",
          "type": "address"
        },
        {
          "internalType": "string",
          "name": "",
          "type": "string"
        },
        {
          "internalType": "string",
          "name": "",
          "type": "string"
        },
        {
          "internalType": "string",
          "name": "",
          "type": "string"
        },
        {
          "internalType": "string",
          "name": "",
          "type": "string"
        },
        {
          "internalType": "uint32",
          "name": "",
          "type": "uint32"
        },
        {
          "internalType": "enum ReviewStorage.Recommendation",
          "name": "",
          "type": "uint8"
        },
        {
          "internalType": "string",
          "name": "",
          "type": "string"
        },
        {
          "internalType": "bool",
          "name": "",
          "type": "bool"
        },
        {
          "internalType": "address[]",
          "name": "",
          "type": "address[]"
        }
      ],
      "payable": false,
      "stateMutability": "view",
      "type": "function"
    },
    {
      "constant": true,
      "inputs": [
        {
          "internalType": "address",
          "name": "addr",
          "type": "address"
        }
      ],
      "name": "getReviewsArrayOfUser",
      "outputs": [
        {
          "internalType": "string[]",
          "name": "",
          "type": "string[]"
        }
      ],
      "payable": false,
      "stateMutability": "view",
      "type": "function"
    },
    {
      "constant": false,
      "inputs": [
        {
          "internalType": "string",
          "name": "id",
          "type": "string"
        }
      ],
      "name": "deleteReview",
      "outputs": [],
      "payable": false,
      "stateMutability": "nonpayable",
      "type": "function"
    },
    {
      "constant": false,
      "inputs": [
        {
          "internalType": "string",
          "name": "id",
          "type": "string"
        }
      ],
      "name": "vouchReview",
      "outputs": [],
      "payable": false,
      "stateMutability": "nonpayable",
      "type": "function"
    },
    {
      "constant": true,
      "inputs": [
        {
          "internalType": "string",
          "name": "id",
          "type": "string"
        }
      ],
      "name": "hasVouched",
      "outputs": [
        {
          "internalType": "bool",
          "name": "",
          "type": "bool"
        }
      ],
      "payable": false,
      "stateMutability": "view",
      "type": "function"
    },
    {
      "constant": true,
      "inputs": [
        {
          "internalType": "string",
          "name": "id",
          "type": "string"
        }
      ],
      "name": "isVerified",
      "outputs": [
        {
          "internalType": "bool",
          "name": "",
          "type": "bool"
        }
      ],
      "payable": false,
      "stateMutability": "view",
      "type": "function"
    },
    {
      "constant": true,
      "inputs": [
        {
          "internalType": "address",
          "name": "relay",
          "type": "address"
        },
        {
          "internalType": "address",
          "name": "from",
          "type": "address"
        },
        {
          "internalType": "bytes",
          "name": "encodedFunction",
          "type": "bytes"
        },
        {
          "internalType": "uint256",
          "name": "transactionFee",
          "type": "uint256"
        },
        {
          "internalType": "uint256",
          "name": "gasPrice",
          "type": "uint256"
        },
        {
          "internalType": "uint256",
          "name": "gasLimit",
          "type": "uint256"
        },
        {
          "internalType": "uint256",
          "name": "nonce",
          "type": "uint256"
        },
        {
          "internalType": "bytes",
          "name": "approvalData",
          "type": "bytes"
        },
        {
          "internalType": "uint256",
          "name": "maxPossibleCharge",
          "type": "uint256"
        }
      ],
      "name": "acceptRelayedCall",
      "outputs": [
        {
          "internalType": "uint256",
          "name": "",
          "type": "uint256"
        },
        {
          "internalType": "bytes",
          "name": "",
          "type": "bytes"
        }
      ],
      "payable": false,
      "stateMutability": "view",
      "type": "function"
    }
  ],
  "bytecode": "0x6080604052613e3e806100136000396000f3fe608060405234801561001057600080fd5b50600436106101005760003560e01c806383947ea011610097578063b444dc7511610066578063b444dc7514610286578063b61873cf146102c0578063bfd95fd1146102f0578063e06e0e221461030c57610100565b806383947ea0146101ff5780639afc912414610230578063a47be8001461024c578063ad61ccd51461026857610100565b80636a6e1553116100d35780636a6e15531461018b57806374e861d6146101a757806380274db7146101c55780638129fc1c146101f557610100565b80631220e2ff14610105578063169013011461010f578063234c76d51461013f578063436fc97f1461016f575b600080fd5b61010d610328565b005b61012960048036036101249190810190612d03565b610347565b6040516101369190613853565b60405180910390f35b61015960048036036101549190810190613201565b61046f565b6040516101669190613875565b60405180910390f35b61018960048036036101849190810190612f9e565b6104ac565b005b6101a560048036036101a09190810190612e2c565b610a37565b005b6101af610f02565b6040516101bc9190613838565b60405180910390f35b6101df60048036036101da919081019061313c565b610f2c565b6040516101ec9190613890565b60405180910390f35b6101fd610ff8565b005b61021960048036036102149190810190612d2c565b61113e565b604051610227929190613a6b565b60405180910390f35b61024a60048036036102459190810190613201565b61115e565b005b61026660048036036102619190810190613201565b61132b565b005b610270611568565b60405161027d91906138cd565b60405180910390f35b6102a0600480360361029b9190810190613201565b6115a5565b6040516102b79b9a999897969594939291906138ef565b60405180910390f35b6102da60048036036102d59190810190613201565b611ba6565b6040516102e79190613875565b60405180910390f35b61030a60048036036103059190810190613242565b611c2d565b005b61032660048036036103219190810190613181565b611fe2565b005b61034573d216153c06e857cd7f72665e0af1d7d82172f4946120ae565b565b6060603660008373ffffffffffffffffffffffffffffffffffffffff1673ffffffffffffffffffffffffffffffffffffffff168152602001908152602001600020805480602002602001604051908101604052809291908181526020016000905b82821015610464578382906000526020600020018054600181600116156101000203166002900480601f0160208091040260200160405190810160405280929190818152602001828054600181600116156101000203166002900480156104505780601f1061042557610100808354040283529160200191610450565b820191906000526020600020905b81548152906001019060200180831161043357829003601f168201915b5050505050815260200190600101906103a8565b505050509050919050565b6000806035836040516104829190613821565b908152602001604051809103902090508060080160009054906101000a900460ff16915050919050565b875189511480156104be575086518851145b80156104cb575085518751145b80156104d8575084518651145b80156104e5575083518551145b80156104f2575082518451145b80156104ff575081518351145b801561050c575080518251145b61054b576040517f08c379a0000000000000000000000000000000000000000000000000000000008152600401610542906139eb565b60405180910390fd5b600088519050600061055b612253565b90506000603660008373ffffffffffffffffffffffffffffffffffffffff1673ffffffffffffffffffffffffffffffffffffffff16815260200190815260200160002080549050905060008090505b8362ffffff168163ffffffff161015610a2857600060358e8363ffffffff16815181106105d357fe5b60200260200101516040516105e8919061380a565b908152602001604051809103902090508d8263ffffffff168151811061060a57fe5b60200260200101518160000190805190602001906106299291906124d9565b508183018160010160006101000a81548163ffffffff021916908363ffffffff160217905550838160010160046101000a81548173ffffffffffffffffffffffffffffffffffffffff021916908373ffffffffffffffffffffffffffffffffffffffff1602179055508c8263ffffffff16815181106106a457fe5b60200260200101518160020190805190602001906106c39291906124d9565b508b8263ffffffff16815181106106d657fe5b60200260200101518160030190805190602001906106f59291906124d9565b508a8263ffffffff168151811061070857fe5b60200260200101518160040190805190602001906107279291906124d9565b50898263ffffffff168151811061073a57fe5b60200260200101518160050190805190602001906107599291906124d9565b50888263ffffffff168151811061076c57fe5b60200260200101518160060160006101000a81548163ffffffff021916908363ffffffff160217905550878263ffffffff16815181106107a857fe5b60200260200101518160060160046101000a81548160ff021916908360038111156107cf57fe5b0217905550868263ffffffff16815181106107e657fe5b60200260200101518160070190805190602001906108059291906124d9565b50858263ffffffff168151811061081857fe5b6020026020010151156108b75760018160080160006101000a81548160ff0219169083151502179055506040518060200160405280603460009054906101000a900473ffffffffffffffffffffffffffffffffffffffff1673ffffffffffffffffffffffffffffffffffffffff1673ffffffffffffffffffffffffffffffffffffffff16815250816009019060016108b1929190612559565b5061091e565b60008160080160006101000a81548160ff02191690831515021790555060006040519080825280602002602001820160405280156109045781602001602082028038833980820191505090505b5081600901908051906020019061091c9291906125e3565b505b603660008573ffffffffffffffffffffffffffffffffffffffff1673ffffffffffffffffffffffffffffffffffffffff1681526020019081526020016000208e8363ffffffff168151811061096f57fe5b602002602001015190806001815401808255809150509060018203906000526020600020016000909192909190915090805190602001906109b19291906124d9565b50508373ffffffffffffffffffffffffffffffffffffffff167f735a8465cb95c1119a0a9c5bfe794f848896e77bf9ba97f9115c49a08e5b54eb8f8463ffffffff16815181106109fd57fe5b6020026020010151604051610a1291906138ab565b60405180910390a25080806001019150506105aa565b50505050505050505050505050565b86518851148015610a49575085518751145b8015610a56575084518651145b8015610a63575083518551145b8015610a70575082518451145b8015610a7d575081518351145b8015610a8a575080518251145b610ac9576040517f08c379a0000000000000000000000000000000000000000000000000000000008152600401610ac0906139eb565b60405180910390fd5b6000875190506000610ad9612253565b90506000603660008373ffffffffffffffffffffffffffffffffffffffff1673ffffffffffffffffffffffffffffffffffffffff16815260200190815260200160002080549050905060008090505b8362ffffff168163ffffffff161015610ef457600060358d8363ffffffff1681518110610b5157fe5b6020026020010151604051610b66919061380a565b908152602001604051809103902090508c8263ffffffff1681518110610b8857fe5b6020026020010151816000019080519060200190610ba79291906124d9565b508183018160010160006101000a81548163ffffffff021916908363ffffffff160217905550838160010160046101000a81548173ffffffffffffffffffffffffffffffffffffffff021916908373ffffffffffffffffffffffffffffffffffffffff1602179055508b8263ffffffff1681518110610c2257fe5b6020026020010151816002019080519060200190610c419291906124d9565b508a8263ffffffff1681518110610c5457fe5b6020026020010151816003019080519060200190610c739291906124d9565b50898263ffffffff1681518110610c8657fe5b6020026020010151816004019080519060200190610ca59291906124d9565b50888263ffffffff1681518110610cb857fe5b6020026020010151816005019080519060200190610cd79291906124d9565b50878263ffffffff1681518110610cea57fe5b60200260200101518160060160006101000a81548163ffffffff021916908363ffffffff160217905550868263ffffffff1681518110610d2657fe5b60200260200101518160060160046101000a81548160ff02191690836003811115610d4d57fe5b0217905550858263ffffffff1681518110610d6457fe5b6020026020010151816007019080519060200190610d839291906124d9565b5060008160080160006101000a81548160ff0219169083151502179055506000604051908082528060200260200182016040528015610dd15781602001602082028038833980820191505090505b50816009019080519060200190610de99291906125e3565b50603660008573ffffffffffffffffffffffffffffffffffffffff1673ffffffffffffffffffffffffffffffffffffffff1681526020019081526020016000208d8363ffffffff1681518110610e3b57fe5b60200260200101519080600181540180825580915050906001820390600052602060002001600090919290919091509080519060200190610e7d9291906124d9565b50508373ffffffffffffffffffffffffffffffffffffffff167f735a8465cb95c1119a0a9c5bfe794f848896e77bf9ba97f9115c49a08e5b54eb8e8463ffffffff1681518110610ec957fe5b6020026020010151604051610ede91906138ab565b60405180910390a2508080600101915050610b28565b505050505050505050505050565b6000603360009054906101000a900473ffffffffffffffffffffffffffffffffffffffff16905090565b6000610f36610f02565b73ffffffffffffffffffffffffffffffffffffffff163373ffffffffffffffffffffffffffffffffffffffff1614610fa3576040517f08c379a0000000000000000000000000000000000000000000000000000000008152600401610f9a90613a4b565b60405180910390fd5b610ff083838080601f016020809104026020016040519081016040528093929190818152602001838380828437600081840152601f19601f820116905080830192505050505050506122c0565b905092915050565b600060019054906101000a900460ff168061101757506110166122c7565b5b8061102e57506000809054906101000a900460ff16155b61106d576040517f08c379a000000000000000000000000000000000000000000000000000000000815260040161106490613a0b565b60405180910390fd5b60008060019054906101000a900460ff1615905080156110bd576001600060016101000a81548160ff02191690831515021790555060016000806101000a81548160ff0219169083151502179055505b6110c56122de565b7314b3a00c89bddb6c0577e518fca87ec19b1b2311603460006101000a81548173ffffffffffffffffffffffffffffffffffffffff021916908373ffffffffffffffffffffffffffffffffffffffff160217905550801561113b5760008060016101000a81548160ff0219169083151502179055505b50565b6000606061114a612427565b915091509b509b9950505050505050505050565b6000611168612253565b9050600060358360405161117c9190613821565b908152602001604051809103902090506000151581600a0160008473ffffffffffffffffffffffffffffffffffffffff1673ffffffffffffffffffffffffffffffffffffffff16815260200190815260200160002060009054906101000a900460ff16151514156112aa57806009018290806001815401808255809150509060018203906000526020600020016000909192909190916101000a81548173ffffffffffffffffffffffffffffffffffffffff021916908373ffffffffffffffffffffffffffffffffffffffff16021790555050600181600a0160008473ffffffffffffffffffffffffffffffffffffffff1673ffffffffffffffffffffffffffffffffffffffff16815260200190815260200160002060006101000a81548160ff0219169083151502179055505b6001816009018054905014156112d85760018160080160006101000a81548160ff0219169083151502179055505b8173ffffffffffffffffffffffffffffffffffffffff167fd711a413c20a3ad10703b8530d027f633ff441c124e9dd328480b8e2070b49618460405161131e91906138cd565b60405180910390a2505050565b600060358260405161133d9190613821565b9081526020016040518091039020905060008160010160009054906101000a900463ffffffff16905060008260010160049054906101000a900473ffffffffffffffffffffffffffffffffffffffff16905060008263ffffffff1690505b6001603660008473ffffffffffffffffffffffffffffffffffffffff1673ffffffffffffffffffffffffffffffffffffffff16815260200190815260200160002080549050038110156114c057603660008373ffffffffffffffffffffffffffffffffffffffff1673ffffffffffffffffffffffffffffffffffffffff168152602001908152602001600020600182018154811061143557fe5b90600052602060002001603660008473ffffffffffffffffffffffffffffffffffffffff1673ffffffffffffffffffffffffffffffffffffffff168152602001908152602001600020828154811061148957fe5b9060005260206000200190805460018160011615610100020316600290046114b292919061266d565b50808060010191505061139b565b50603660008273ffffffffffffffffffffffffffffffffffffffff1673ffffffffffffffffffffffffffffffffffffffff16815260200190815260200160002080548091906001900361151391906126f4565b508073ffffffffffffffffffffffffffffffffffffffff167ff8611cc11b4db806ae78ddde333ca7d59df355dcd99d6bcfab95fd925ca098f38560405161155a91906138cd565b60405180910390a250505050565b60606040518060400160405280600581526020017f312e302e30000000000000000000000000000000000000000000000000000000815250905090565b606060006060806060806000806060600060606115c0612720565b60358d6040516115d09190613821565b908152602001604051809103902060405180610180016040529081600082018054600181600116156101000203166002900480601f0160208091040260200160405190810160405280929190818152602001828054600181600116156101000203166002900480156116835780601f1061165857610100808354040283529160200191611683565b820191906000526020600020905b81548152906001019060200180831161166657829003601f168201915b505050505081526020016001820160009054906101000a900463ffffffff1663ffffffff1663ffffffff1681526020016001820160049054906101000a900473ffffffffffffffffffffffffffffffffffffffff1673ffffffffffffffffffffffffffffffffffffffff1673ffffffffffffffffffffffffffffffffffffffff168152602001600282018054600181600116156101000203166002900480601f0160208091040260200160405190810160405280929190818152602001828054600181600116156101000203166002900480156117a15780601f10611776576101008083540402835291602001916117a1565b820191906000526020600020905b81548152906001019060200180831161178457829003601f168201915b50505050508152602001600382018054600181600116156101000203166002900480601f0160208091040260200160405190810160405280929190818152602001828054600181600116156101000203166002900480156118435780601f1061181857610100808354040283529160200191611843565b820191906000526020600020905b81548152906001019060200180831161182657829003601f168201915b50505050508152602001600482018054600181600116156101000203166002900480601f0160208091040260200160405190810160405280929190818152602001828054600181600116156101000203166002900480156118e55780601f106118ba576101008083540402835291602001916118e5565b820191906000526020600020905b8154815290600101906020018083116118c857829003601f168201915b50505050508152602001600582018054600181600116156101000203166002900480601f0160208091040260200160405190810160405280929190818152602001828054600181600116156101000203166002900480156119875780601f1061195c57610100808354040283529160200191611987565b820191906000526020600020905b81548152906001019060200180831161196a57829003601f168201915b505050505081526020016006820160009054906101000a900463ffffffff1663ffffffff1663ffffffff1681526020016006820160049054906101000a900460ff1660038111156119d457fe5b60038111156119df57fe5b8152602001600782018054600181600116156101000203166002900480601f016020809104026020016040519081016040528092919081815260200182805460018160011615610100020316600290048015611a7c5780601f10611a5157610100808354040283529160200191611a7c565b820191906000526020600020905b815481529060010190602001808311611a5f57829003601f168201915b505050505081526020016008820160009054906101000a900460ff1615151515815260200160098201805480602002602001604051908101604052809291908181526020018280548015611b2557602002820191906000526020600020905b8160009054906101000a900473ffffffffffffffffffffffffffffffffffffffff1673ffffffffffffffffffffffffffffffffffffffff1681526020019060010190808311611adb575b505050505081525050905080600001518160400151826060015183608001518460a001518560c001518660e001518761010001518861012001518961014001518a61016001518a9a508898508797508696508595508292508090509b509b509b509b509b509b509b509b509b509b509b505091939597999b90929496989a50565b600080611bb1612253565b90506000603584604051611bc59190613821565b9081526020016040518091039020905080600a0160008373ffffffffffffffffffffffffffffffffffffffff1673ffffffffffffffffffffffffffffffffffffffff16815260200190815260200160002060009054906101000a900460ff1692505050919050565b6000611c37612253565b90506000603660008373ffffffffffffffffffffffffffffffffffffffff1673ffffffffffffffffffffffffffffffffffffffff168152602001908152602001600020805490509050611c88612720565b6040518061018001604052808c81526020018363ffffffff1681526020018473ffffffffffffffffffffffffffffffffffffffff1681526020018b81526020018a81526020018981526020018881526020018763ffffffff168152602001866003811115611cf257fe5b81526020018581526020016000151581526020016000604051908082528060200260200182016040528015611d365781602001602082028038833980820191505090505b5081525090508060358c604051611d4d9190613821565b90815260200160405180910390206000820151816000019080519060200190611d779291906127b0565b5060208201518160010160006101000a81548163ffffffff021916908363ffffffff16021790555060408201518160010160046101000a81548173ffffffffffffffffffffffffffffffffffffffff021916908373ffffffffffffffffffffffffffffffffffffffff1602179055506060820151816002019080519060200190611e029291906127b0565b506080820151816003019080519060200190611e1f9291906127b0565b5060a0820151816004019080519060200190611e3c9291906127b0565b5060c0820151816005019080519060200190611e599291906127b0565b5060e08201518160060160006101000a81548163ffffffff021916908363ffffffff1602179055506101008201518160060160046101000a81548160ff02191690836003811115611ea657fe5b0217905550610120820151816007019080519060200190611ec89291906127b0565b506101408201518160080160006101000a81548160ff021916908315150217905550610160820151816009019080519060200190611f07929190612830565b50905050603660008473ffffffffffffffffffffffffffffffffffffffff1673ffffffffffffffffffffffffffffffffffffffff1681526020019081526020016000208b9080600181540180825580915050906001820390600052602060002001600090919290919091509080519060200190611f859291906124d9565b50508273ffffffffffffffffffffffffffffffffffffffff167f735a8465cb95c1119a0a9c5bfe794f848896e77bf9ba97f9115c49a08e5b54eb8c604051611fcd91906138cd565b60405180910390a25050505050505050505050565b611fea610f02565b73ffffffffffffffffffffffffffffffffffffffff163373ffffffffffffffffffffffffffffffffffffffff1614612057576040517f08c379a000000000000000000000000000000000000000000000000000000000815260040161204e90613a4b565b60405180910390fd5b6120a785858080601f016020809104026020016040519081016040528093929190818152602001838380828437600081840152601f19601f8201169050808301925050505050505084848461244b565b5050505050565b6000603360009054906101000a900473ffffffffffffffffffffffffffffffffffffffff169050600073ffffffffffffffffffffffffffffffffffffffff168273ffffffffffffffffffffffffffffffffffffffff161415612145576040517f08c379a000000000000000000000000000000000000000000000000000000000815260040161213c906139cb565b60405180910390fd5b8073ffffffffffffffffffffffffffffffffffffffff168273ffffffffffffffffffffffffffffffffffffffff1614156121b4576040517f08c379a00000000000000000000000000000000000000000000000000000000081526004016121ab90613a2b565b60405180910390fd5b8173ffffffffffffffffffffffffffffffffffffffff168173ffffffffffffffffffffffffffffffffffffffff167fb9f84b8e65164b14439ae3620df0a4d8786d896996c0282b683f9d8c08f046e860405160405180910390a381603360006101000a81548173ffffffffffffffffffffffffffffffffffffffff021916908373ffffffffffffffffffffffffffffffffffffffff1602179055505050565b6000603360009054906101000a900473ffffffffffffffffffffffffffffffffffffffff1673ffffffffffffffffffffffffffffffffffffffff163373ffffffffffffffffffffffffffffffffffffffff16146122b2573390506122bd565b6122ba612451565b90505b90565b6000919050565b6000803090506000813b9050600081149250505090565b600060019054906101000a900460ff16806122fd57506122fc6122c7565b5b8061231457506000809054906101000a900460ff16155b612353576040517f08c379a000000000000000000000000000000000000000000000000000000000815260040161234a90613a0b565b60405180910390fd5b60008060019054906101000a900460ff1615905080156123a3576001600060016101000a81548160ff02191690831515021790555060016000806101000a81548160ff0219169083151502179055505b600073ffffffffffffffffffffffffffffffffffffffff16603360009054906101000a900473ffffffffffffffffffffffffffffffffffffffff1673ffffffffffffffffffffffffffffffffffffffff16141561240357612402610328565b5b80156124245760008060016101000a81548160ff0219169083151502179055505b50565b60006060612443604051806020016040528060008152506124c9565b915091509091565b50505050565b600060606000368080601f016020809104026020016040519081016040528093929190818152602001838380828437600081840152601f19601f820116905080830192505050505050509050600080369050905073ffffffffffffffffffffffffffffffffffffffff81830151169250829250505090565b6000606060008391509150915091565b828054600181600116156101000203166002900490600052602060002090601f016020900481019282601f1061251a57805160ff1916838001178555612548565b82800160010185558215612548579182015b8281111561254757825182559160200191906001019061252c565b5b50905061255591906128ba565b5090565b8280548282559060005260206000209081019282156125d2579160200282015b828111156125d15782518260006101000a81548173ffffffffffffffffffffffffffffffffffffffff021916908373ffffffffffffffffffffffffffffffffffffffff16021790555091602001919060010190612579565b5b5090506125df91906128df565b5090565b82805482825590600052602060002090810192821561265c579160200282015b8281111561265b5782518260006101000a81548173ffffffffffffffffffffffffffffffffffffffff021916908373ffffffffffffffffffffffffffffffffffffffff16021790555091602001919060010190612603565b5b50905061266991906128df565b5090565b828054600181600116156101000203166002900490600052602060002090601f016020900481019282601f106126a657805485556126e3565b828001600101855582156126e357600052602060002091601f016020900482015b828111156126e25782548255916001019190600101906126c7565b5b5090506126f091906128ba565b5090565b81548183558181111561271b5781836000526020600020918201910161271a9190612922565b5b505050565b60405180610180016040528060608152602001600063ffffffff168152602001600073ffffffffffffffffffffffffffffffffffffffff16815260200160608152602001606081526020016060815260200160608152602001600063ffffffff1681526020016000600381111561279357fe5b815260200160608152602001600015158152602001606081525090565b828054600181600116156101000203166002900490600052602060002090601f016020900481019282601f106127f157805160ff191683800117855561281f565b8280016001018555821561281f579182015b8281111561281e578251825591602001919060010190612803565b5b50905061282c91906128ba565b5090565b8280548282559060005260206000209081019282156128a9579160200282015b828111156128a85782518260006101000a81548173ffffffffffffffffffffffffffffffffffffffff021916908373ffffffffffffffffffffffffffffffffffffffff16021790555091602001919060010190612850565b5b5090506128b691906128df565b5090565b6128dc91905b808211156128d85760008160009055506001016128c0565b5090565b90565b61291f91905b8082111561291b57600081816101000a81549073ffffffffffffffffffffffffffffffffffffffff0219169055506001016128e5565b5090565b90565b61294b91905b80821115612947576000818161293e919061294e565b50600101612928565b5090565b90565b50805460018160011615610100020316600290046000825580601f106129745750612993565b601f01602090049060005260206000209081019061299291906128ba565b5b50565b6000813590506129a581613d78565b92915050565b600082601f8301126129bc57600080fd5b81356129cf6129ca82613ac8565b613a9b565b915081818352602084019350602081019050838560208402820111156129f457600080fd5b60005b83811015612a245781612a0a8882612ba8565b8452602084019350602083019250506001810190506129f7565b5050505092915050565b600082601f830112612a3f57600080fd5b8135612a52612a4d82613af0565b613a9b565b91508181835260208401935060208101905083856020840282011115612a7757600080fd5b60005b83811015612aa75781612a8d8882612c1c565b845260208401935060208301925050600181019050612a7a565b5050505092915050565b600082601f830112612ac257600080fd5b8135612ad5612ad082613b18565b613a9b565b9150818183526020840193506020810190508360005b83811015612b1b5781358601612b018882612c31565b845260208401935060208301925050600181019050612aeb565b5050505092915050565b600082601f830112612b3657600080fd5b8135612b49612b4482613b40565b613a9b565b91508181835260208401935060208101905083856020840282011115612b6e57600080fd5b60005b83811015612b9e5781612b848882612cee565b845260208401935060208301925050600181019050612b71565b5050505092915050565b600081359050612bb781613d8f565b92915050565b600081359050612bcc81613da6565b92915050565b60008083601f840112612be457600080fd5b8235905067ffffffffffffffff811115612bfd57600080fd5b602083019150836001820283011115612c1557600080fd5b9250929050565b600081359050612c2b81613dbd565b92915050565b600082601f830112612c4257600080fd5b8135612c55612c5082613b68565b613a9b565b91508082526020830160208301858383011115612c7157600080fd5b612c7c838284613d18565b50505092915050565b600082601f830112612c9657600080fd5b8135612ca9612ca482613b94565b613a9b565b91508082526020830160208301858383011115612cc557600080fd5b612cd0838284613d18565b50505092915050565b600081359050612ce881613dcd565b92915050565b600081359050612cfd81613de4565b92915050565b600060208284031215612d1557600080fd5b6000612d2384828501612996565b91505092915050565b60008060008060008060008060008060006101208c8e031215612d4e57600080fd5b6000612d5c8e828f01612996565b9b50506020612d6d8e828f01612996565b9a505060408c013567ffffffffffffffff811115612d8a57600080fd5b612d968e828f01612bd2565b99509950506060612da98e828f01612cd9565b9750506080612dba8e828f01612cd9565b96505060a0612dcb8e828f01612cd9565b95505060c0612ddc8e828f01612cd9565b94505060e08c013567ffffffffffffffff811115612df957600080fd5b612e058e828f01612bd2565b9350935050610100612e198e828f01612cd9565b9150509295989b509295989b9093969950565b600080600080600080600080610100898b031215612e4957600080fd5b600089013567ffffffffffffffff811115612e6357600080fd5b612e6f8b828c01612ab1565b985050602089013567ffffffffffffffff811115612e8c57600080fd5b612e988b828c01612ab1565b975050604089013567ffffffffffffffff811115612eb557600080fd5b612ec18b828c01612ab1565b965050606089013567ffffffffffffffff811115612ede57600080fd5b612eea8b828c01612ab1565b955050608089013567ffffffffffffffff811115612f0757600080fd5b612f138b828c01612ab1565b94505060a089013567ffffffffffffffff811115612f3057600080fd5b612f3c8b828c01612b25565b93505060c089013567ffffffffffffffff811115612f5957600080fd5b612f658b828c01612a2e565b92505060e089013567ffffffffffffffff811115612f8257600080fd5b612f8e8b828c01612ab1565b9150509295985092959890939650565b60008060008060008060008060006101208a8c031215612fbd57600080fd5b60008a013567ffffffffffffffff811115612fd757600080fd5b612fe38c828d01612ab1565b99505060208a013567ffffffffffffffff81111561300057600080fd5b61300c8c828d01612ab1565b98505060408a013567ffffffffffffffff81111561302957600080fd5b6130358c828d01612ab1565b97505060608a013567ffffffffffffffff81111561305257600080fd5b61305e8c828d01612ab1565b96505060808a013567ffffffffffffffff81111561307b57600080fd5b6130878c828d01612ab1565b95505060a08a013567ffffffffffffffff8111156130a457600080fd5b6130b08c828d01612b25565b94505060c08a013567ffffffffffffffff8111156130cd57600080fd5b6130d98c828d01612a2e565b93505060e08a013567ffffffffffffffff8111156130f657600080fd5b6131028c828d01612ab1565b9250506101008a013567ffffffffffffffff81111561312057600080fd5b61312c8c828d016129ab565b9150509295985092959850929598565b6000806020838503121561314f57600080fd5b600083013567ffffffffffffffff81111561316957600080fd5b61317585828601612bd2565b92509250509250929050565b60008060008060006080868803121561319957600080fd5b600086013567ffffffffffffffff8111156131b357600080fd5b6131bf88828901612bd2565b955095505060206131d288828901612ba8565b93505060406131e388828901612cd9565b92505060606131f488828901612bbd565b9150509295509295909350565b60006020828403121561321357600080fd5b600082013567ffffffffffffffff81111561322d57600080fd5b61323984828501612c85565b91505092915050565b600080600080600080600080610100898b03121561325f57600080fd5b600089013567ffffffffffffffff81111561327957600080fd5b6132858b828c01612c85565b985050602089013567ffffffffffffffff8111156132a257600080fd5b6132ae8b828c01612c85565b975050604089013567ffffffffffffffff8111156132cb57600080fd5b6132d78b828c01612c85565b965050606089013567ffffffffffffffff8111156132f457600080fd5b6133008b828c01612c85565b955050608089013567ffffffffffffffff81111561331d57600080fd5b6133298b828c01612c85565b94505060a061333a8b828c01612cee565b93505060c061334b8b828c01612c1c565b92505060e089013567ffffffffffffffff81111561336857600080fd5b6133748b828c01612c85565b9150509295985092959890939650565b600061339083836133b0565b60208301905092915050565b60006133a88383613571565b905092915050565b6133b981613c91565b82525050565b6133c881613c91565b82525050565b60006133d982613be0565b6133e38185613c31565b93506133ee83613bc0565b8060005b8381101561341f5781516134068882613384565b975061341183613c17565b9250506001810190506133f2565b5085935050505092915050565b600061343782613beb565b6134418185613c42565b93508360208202850161345385613bd0565b8060005b8581101561348f5784840389528151613470858261339c565b945061347b83613c24565b925060208a01995050600181019050613457565b50829750879550505050505092915050565b6134aa81613ca3565b82525050565b6134b981613caf565b82525050565b60006134ca82613bf6565b6134d48185613c53565b93506134e4818560208601613d27565b6134ed81613d5a565b840191505092915050565b61350181613d06565b82525050565b600061351282613c0c565b61351c8185613c75565b935061352c818560208601613d27565b61353581613d5a565b840191505092915050565b600061354b82613c0c565b6135558185613c86565b9350613565818560208601613d27565b80840191505092915050565b600061357c82613c01565b6135868185613c64565b9350613596818560208601613d27565b61359f81613d5a565b840191505092915050565b60006135b582613c01565b6135bf8185613c75565b93506135cf818560208601613d27565b6135d881613d5a565b840191505092915050565b60006135ee82613c01565b6135f88185613c86565b9350613608818560208601613d27565b80840191505092915050565b6000613621602e83613c75565b91507f47534e526563697069656e743a206e65772052656c617948756220697320746860008301527f65207a65726f20616464726573730000000000000000000000000000000000006020830152604082019050919050565b6000613687601c83613c75565b91507f506172616d65746572206c656e6774687320646f6e74206d61746368000000006000830152602082019050919050565b60006136c7602e83613c75565b91507f436f6e747261637420696e7374616e63652068617320616c726561647920626560008301527f656e20696e697469616c697a65640000000000000000000000000000000000006020830152604082019050919050565b600061372d602d83613c75565b91507f47534e526563697069656e743a206e65772052656c617948756220697320746860008301527f652063757272656e74206f6e65000000000000000000000000000000000000006020830152604082019050919050565b6000613793602483613c75565b91507f47534e526563697069656e743a2063616c6c6572206973206e6f742052656c6160008301527f79487562000000000000000000000000000000000000000000000000000000006020830152604082019050919050565b6137f581613cec565b82525050565b61380481613cf6565b82525050565b600061381682846135e3565b915081905092915050565b600061382d8284613540565b915081905092915050565b600060208201905061384d60008301846133bf565b92915050565b6000602082019050818103600083015261386d818461342c565b905092915050565b600060208201905061388a60008301846134a1565b92915050565b60006020820190506138a560008301846134b0565b92915050565b600060208201905081810360008301526138c581846135aa565b905092915050565b600060208201905081810360008301526138e78184613507565b905092915050565b600061016082019050818103600083015261390a818e613507565b9050613919602083018d6133bf565b818103604083015261392b818c613507565b9050818103606083015261393f818b613507565b90508181036080830152613953818a613507565b905081810360a08301526139678189613507565b905061397660c08301886137fb565b61398360e08301876134f8565b8181036101008301526139968186613507565b90506139a66101208301856134a1565b8181036101408301526139b981846133ce565b90509c9b505050505050505050505050565b600060208201905081810360008301526139e481613614565b9050919050565b60006020820190508181036000830152613a048161367a565b9050919050565b60006020820190508181036000830152613a24816136ba565b9050919050565b60006020820190508181036000830152613a4481613720565b9050919050565b60006020820190508181036000830152613a6481613786565b9050919050565b6000604082019050613a8060008301856137ec565b8181036020830152613a9281846134bf565b90509392505050565b6000604051905081810181811067ffffffffffffffff82111715613abe57600080fd5b8060405250919050565b600067ffffffffffffffff821115613adf57600080fd5b602082029050602081019050919050565b600067ffffffffffffffff821115613b0757600080fd5b602082029050602081019050919050565b600067ffffffffffffffff821115613b2f57600080fd5b602082029050602081019050919050565b600067ffffffffffffffff821115613b5757600080fd5b602082029050602081019050919050565b600067ffffffffffffffff821115613b7f57600080fd5b601f19601f8301169050602081019050919050565b600067ffffffffffffffff821115613bab57600080fd5b601f19601f8301169050602081019050919050565b6000819050602082019050919050565b6000819050602082019050919050565b600081519050919050565b600081519050919050565b600081519050919050565b600081519050919050565b600081519050919050565b6000602082019050919050565b6000602082019050919050565b600082825260208201905092915050565b600082825260208201905092915050565b600082825260208201905092915050565b600082825260208201905092915050565b600082825260208201905092915050565b600081905092915050565b6000613c9c82613ccc565b9050919050565b60008115159050919050565b6000819050919050565b6000819050613cc782613d6b565b919050565b600073ffffffffffffffffffffffffffffffffffffffff82169050919050565b6000819050919050565b600063ffffffff82169050919050565b6000613d1182613cb9565b9050919050565b82818337600083830152505050565b60005b83811015613d45578082015181840152602081019050613d2a565b83811115613d54576000848401525b50505050565b6000601f19601f8301169050919050565b60048110613d7557fe5b50565b613d8181613c91565b8114613d8c57600080fd5b50565b613d9881613ca3565b8114613da357600080fd5b50565b613daf81613caf565b8114613dba57600080fd5b50565b60048110613dca57600080fd5b50565b613dd681613cec565b8114613de157600080fd5b50565b613ded81613cf6565b8114613df857600080fd5b5056fea365627a7a7231582027c5d7afca93f43e1e18515484258566728e44ecdf9a1f6228e13b14a7d48a236c6578706572696d656e74616cf564736f6c63430005110040",
  "source": "pragma solidity ^0.5.6;\npragma experimental ABIEncoderV2;\n\n/// @title A smart contract for storing peer reviews\n/// @author Kaan Uzdogan uzdogan@mpdl.mpg.de\n/// @notice\n/// @dev\n\nimport \"@openzeppelin/contracts-ethereum-package/contracts/GSN/GSNRecipient.sol\";\n\n\ncontract ReviewStorage is GSNRecipient {\n    // address[] usersAddresses; // Should we keep this?\n    event ReviewAdded(address indexed from, string id);\n    event ReviewDeleted(address indexed from, string id);\n    event ReviewVouched(address indexed from, string id);\n    address publonsAddress;\n    enum Recommendation {NULL, ACCEPT, REVISE, REJECT}\n    struct Review {\n        string id;\n        uint32 index; // index in the array of review ids from userReviewsIdsMap[<address>]\n        address author;\n        string journalId; // ISSN\n        string publisher; // Publisher Name\n        string manuscriptId; // DOI?\n        string manuscriptHash;\n        uint32 timestamp; // Unix time (32 bits), when review is published\n        Recommendation recommendation;\n        string url;\n        bool verified;\n        address[] vouchers;\n        mapping(address => bool) vouchersMap; // Check if vouched by a certain address.\n    }\n    // Mapping from Review ids to Reviews.\n    mapping(string => Review) reviewsMap;\n    // Mapping from user address to an array of review Ids.\n    mapping(address => string[]) userReviewsIdsMap;\n\n    function initialize() public initializer {\n        GSNRecipient.initialize();\n        publonsAddress = 0x14B3a00C89BDdB6C0577E518FCA87eC19b1b2311;\n    }\n\n    /// @notice Public method to add a review.\n    /// @dev Assumes the owner(author) of the review is the _msgSender()\n    /// @param id - Id of the review generated by the client.\n    /// @param journalId - Typically ISSN number of the journal\n    /// @param publisher - The name of the publisher\n    /// @param manuscriptId - An identifier for the manuscript. This could be an internal id of a journal.\n    /// @param manuscriptHash - (Optional) Hash of the manuscript document\n    /// @param timestamp - uint32 Unix timestamp when review is published\n    /// @param recommendation - 0,1 or 2 for ACCEPT, REVIEW, REJECT\n    function addReview(\n        string memory id,\n        string memory journalId,\n        string memory publisher,\n        string memory manuscriptId,\n        string memory manuscriptHash,\n        uint32 timestamp,\n        Recommendation recommendation,\n        string memory url\n    ) public {\n        address author = _msgSender();\n        uint32 index = uint32(userReviewsIdsMap[author].length);\n\n        Review memory review = Review({\n            id: id,\n            index: index,\n            author: author,\n            journalId: journalId,\n            publisher: publisher,\n            manuscriptId: manuscriptId,\n            manuscriptHash: manuscriptHash,\n            timestamp: timestamp,\n            recommendation: recommendation,\n            url: url,\n            verified: false,\n            vouchers: new address[](0) // Init empty array\n        });\n        reviewsMap[id] = review;\n        userReviewsIdsMap[author].push(id);\n        emit ReviewAdded(author, id);\n    }\n\n    function addMultipleReviews(\n        string[] memory ids,\n        string[] memory journalIds,\n        string[] memory publishers,\n        string[] memory manuscriptIds,\n        string[] memory manuscriptHashes,\n        uint32[] memory timestamps,\n        Recommendation[] memory recommendations,\n        string[] memory urls\n    ) public {\n        require(\n            ids.length == journalIds.length &&\n                journalIds.length == publishers.length &&\n                publishers.length == manuscriptIds.length &&\n                manuscriptIds.length == manuscriptHashes.length &&\n                manuscriptHashes.length == timestamps.length &&\n                timestamps.length == recommendations.length &&\n                recommendations.length == urls.length,\n            \"Parameter lengths dont match\"\n        );\n        uint24 length = uint24(journalIds.length);\n        address author = _msgSender();\n        uint32 index = uint32(userReviewsIdsMap[author].length);\n\n        for (uint32 i = 0; i < length; i++) {\n            Review storage review = reviewsMap[ids[i]];\n            review.id = ids[i];\n            review.index = index + i;\n            review.author = author;\n            review.journalId = journalIds[i];\n            review.publisher = publishers[i];\n            review.manuscriptId = manuscriptIds[i];\n            review.manuscriptHash = manuscriptHashes[i];\n            review.timestamp = timestamps[i];\n            review.recommendation = recommendations[i];\n            review.url = urls[i];\n            review.verified = false;\n            review.vouchers = new address[](0); // Init empty array\n            userReviewsIdsMap[author].push(ids[i]);\n            emit ReviewAdded(author, ids[i]);\n        }\n    }\n\n    // TODO: REFACTOR, Repeating the code above.\n    function addMultipleReviewsAndVerifyByPublons(\n        string[] memory ids,\n        string[] memory journalIds,\n        string[] memory publishers,\n        string[] memory manuscriptIds,\n        string[] memory manuscriptHashes,\n        uint32[] memory timestamps,\n        Recommendation[] memory recommendations,\n        string[] memory urls,\n        bool[] memory verifieds\n    ) public {\n        require(\n            ids.length == journalIds.length &&\n                journalIds.length == publishers.length &&\n                publishers.length == manuscriptIds.length &&\n                manuscriptIds.length == manuscriptHashes.length &&\n                manuscriptHashes.length == timestamps.length &&\n                timestamps.length == recommendations.length &&\n                recommendations.length == urls.length &&\n                urls.length == verifieds.length,\n            \"Parameter lengths dont match\"\n        );\n        uint24 length = uint24(journalIds.length);\n        address author = _msgSender();\n        uint32 index = uint32(userReviewsIdsMap[author].length);\n\n        for (uint32 i = 0; i < length; i++) {\n            Review storage review = reviewsMap[ids[i]];\n            review.id = ids[i];\n            review.index = index + i;\n            review.author = author;\n            review.journalId = journalIds[i];\n            review.publisher = publishers[i];\n            review.manuscriptId = manuscriptIds[i];\n            review.manuscriptHash = manuscriptHashes[i];\n            review.timestamp = timestamps[i];\n            review.recommendation = recommendations[i];\n            review.url = urls[i];\n            if (verifieds[i]) {\n                review.verified = true;\n                review.vouchers = [publonsAddress]; // Add the publonsAddress as voucher.\n            } else {\n                review.verified = false;\n                review.vouchers = new address[](0); // Init empty array\n            }\n            userReviewsIdsMap[author].push(ids[i]);\n            emit ReviewAdded(author, ids[i]);\n        }\n    }\n\n    /// @notice Returns the Review belonging to the paramater address on the parameter index.\n    /// @dev Returns the Review struct as an ordered key value object. e.g. {0: 'JOURNALID', 1: ....}\n    /// @param id - id of the review.\n    /// @return journalId\n    /// @return manuscriptId\n    /// @return manuscriptHash\n    /// @return timestamp\n    /// @return recommendation\n    /// @return verified - bool that is true if 2 or more accounts vouched the review.\n    /// @return vouchers - the list of addresses that vouched this review.\n    // TODO: Can have another function to retrieve private information of _msgSender().\n    function getReview(string memory id)\n        public\n        view\n        returns (\n            string memory,\n            address,\n            string memory,\n            string memory,\n            string memory,\n            string memory,\n            uint32,\n            Recommendation,\n            string memory,\n            bool,\n            address[] memory\n        )\n    {\n        Review memory review = reviewsMap[id];\n        return (\n            review.id,\n            review.author,\n            review.journalId,\n            review.publisher,\n            review.manuscriptId,\n            review.manuscriptHash,\n            review.timestamp,\n            review.recommendation,\n            review.url,\n            review.verified,\n            review.vouchers\n        );\n    }\n\n    function getReviewsArrayOfUser(address addr)\n        public\n        view\n        returns (string[] memory)\n    {\n        return userReviewsIdsMap[addr];\n    }\n\n    function deleteReview(string memory id) public {\n        Review storage review = reviewsMap[id];\n        uint32 index = review.index;\n        address author = review.author;\n        // from: https://ethereum.stackexchange.com/questions/1527/how-to-delete-an-element-at-a-certain-index-in-an-array\n        for (uint256 i = index; i < userReviewsIdsMap[author].length - 1; i++) {\n            userReviewsIdsMap[author][i] = userReviewsIdsMap[author][i + 1];\n        }\n        userReviewsIdsMap[author].length--;\n        emit ReviewDeleted(author, id);\n    }\n\n    /// @notice Function to vouch a Review at the given address and index.\n    /// @dev Assumes the voucher is the _msgSender(). Checks if the Review is already vouched by the same address.\n    /// @param id - id of the review\n    function vouchReview(string memory id) public {\n        // TODO: Can't vouch herself\n        address voucher = _msgSender(); // TODO: Avoid being vouched by a contract\n        Review storage review = reviewsMap[id];\n        if (review.vouchersMap[voucher] == false) {\n            // If not vouched by current voucher.\n            review.vouchers.push(voucher); // Add to vouchers.\n            review.vouchersMap[voucher] = true; // Mark voucher true.\n        }\n        if (review.vouchers.length == 1) {\n            review.verified = true;\n        }\n        emit ReviewVouched(voucher, id);\n    }\n\n    /// @notice Function to check if the Review at the given address and index is vouched by _msgSender()8i.\n    /// @dev Assumes the voucher is the _msgSender().\n    /// @param id - id of the review\n    /// @return bool showing that Review is vouched by the _msgSender().\n    function hasVouched(string memory id) public view returns (bool) {\n        address voucher = _msgSender();\n        Review storage review = reviewsMap[id];\n        return review.vouchersMap[voucher];\n    }\n\n    /// @notice Function to check if the Review at the given address and index is verified. I.e. vouched by 2 or more accounts.\n    /// @param id - id of the review\n    /// @return bool showing if Review is verified.\n    function isVerified(string memory id) public view returns (bool) {\n        Review storage review = reviewsMap[id];\n        return review.verified;\n    }\n\n    /// @notice Function to accept a gas station relayed call, can implement additional authentication - currently wide open\n\n    function acceptRelayedCall(\n        address relay,\n        address from,\n        bytes calldata encodedFunction,\n        uint256 transactionFee,\n        uint256 gasPrice,\n        uint256 gasLimit,\n        uint256 nonce,\n        bytes calldata approvalData,\n        uint256 maxPossibleCharge\n    ) external view returns (uint256, bytes memory) {\n        return _approveRelayedCall();\n    }\n\n    // We won't do any pre or post processing, so leave _preRelayedCall and _postRelayedCall empty\n    function _preRelayedCall(bytes memory context) internal returns (bytes32) {}\n\n    function _postRelayedCall(\n        bytes memory context,\n        bool,\n        uint256 actualCharge,\n        bytes32\n    ) internal {}\n}\n",
  "sourcePath": "/home/kuzdogan/Desktop/repos/peer-review-app/contracts/ReviewStorage.sol",
  "compiler": {
    "name": "solc",
    "version": "0.5.17+commit.d19bba13.Emscripten.clang"
  },
  "schemaVersion": "3.0.11",
  "updatedAt": "2020-04-29T09:02:27.690Z",
  "devdoc": {
    "methods": {
      "addReview(string,string,string,string,string,uint32,uint8,string)": {
        "details": "Assumes the owner(author) of the review is the _msgSender()",
        "params": {
          "id": "- Id of the review generated by the client.",
          "journalId": "- Typically ISSN number of the journal",
          "manuscriptHash": "- (Optional) Hash of the manuscript document",
          "manuscriptId": "- An identifier for the manuscript. This could be an internal id of a journal.",
          "publisher": "- The name of the publisher",
          "recommendation": "- 0,1 or 2 for ACCEPT, REVIEW, REJECT",
          "timestamp": "- uint32 Unix timestamp when review is published"
        }
      },
      "getHubAddr()": {
        "details": "Returns the address of the {IRelayHub} contract for this recipient."
      },
      "getReview(string)": {
        "details": "Returns the Review struct as an ordered key value object. e.g. {0: 'JOURNALID', 1: ....}",
        "params": {
          "id": "- id of the review."
        },
        "return": "journalIdmanuscriptIdmanuscriptHashtimestamprecommendationverified - bool that is true if 2 or more accounts vouched the review.vouchers - the list of addresses that vouched this review."
      },
      "hasVouched(string)": {
        "details": "Assumes the voucher is the _msgSender().",
        "params": {
          "id": "- id of the review"
        },
        "return": "bool showing that Review is vouched by the _msgSender()."
      },
      "isVerified(string)": {
        "params": {
          "id": "- id of the review"
        },
        "return": "bool showing if Review is verified."
      },
      "postRelayedCall(bytes,bool,uint256,bytes32)": {
        "details": "See `IRelayRecipient.postRelayedCall`.     * This function should not be overriden directly, use `_postRelayedCall` instead.     * * Requirements:     * - the caller must be the `RelayHub` contract."
      },
      "preRelayedCall(bytes)": {
        "details": "See `IRelayRecipient.preRelayedCall`.     * This function should not be overriden directly, use `_preRelayedCall` instead.     * * Requirements:     * - the caller must be the `RelayHub` contract."
      },
      "relayHubVersion()": {
        "details": "Returns the version string of the {IRelayHub} for which this recipient implementation was built. If {_upgradeRelayHub} is used, the new {IRelayHub} instance should be compatible with this version."
      },
      "vouchReview(string)": {
        "details": "Assumes the voucher is the _msgSender(). Checks if the Review is already vouched by the same address.",
        "params": {
          "id": "- id of the review"
        }
      }
    }
  },
  "userdoc": {
    "methods": {
      "acceptRelayedCall(address,address,bytes,uint256,uint256,uint256,uint256,bytes,uint256)": {
        "notice": "Function to accept a gas station relayed call, can implement additional authentication - currently wide open"
      },
      "addReview(string,string,string,string,string,uint32,uint8,string)": {
        "notice": "Public method to add a review."
      },
      "getReview(string)": {
        "notice": "Returns the Review belonging to the paramater address on the parameter index."
      },
      "hasVouched(string)": {
        "notice": "Function to check if the Review at the given address and index is vouched by _msgSender()8i."
      },
      "isVerified(string)": {
        "notice": "Function to check if the Review at the given address and index is verified. I.e. vouched by 2 or more accounts."
      },
      "vouchReview(string)": {
        "notice": "Function to vouch a Review at the given address and index."
      }
    }
  }
}