{
  "contractName": "ReviewStorage",
  "abi": [
    {
      "anonymous": false,
      "inputs": [
        {
          "indexed": true,
          "internalType": "address",
          "name": "oldRelayHub",
          "type": "address"
        },
        {
          "indexed": true,
          "internalType": "address",
          "name": "newRelayHub",
          "type": "address"
        }
      ],
      "name": "RelayHubChanged",
      "type": "event"
    },
    {
      "anonymous": false,
      "inputs": [
        {
          "indexed": true,
          "internalType": "address",
          "name": "from",
          "type": "address"
        },
        {
          "indexed": false,
          "internalType": "string",
          "name": "id",
          "type": "string"
        }
      ],
      "name": "ReviewAdded",
      "type": "event"
    },
    {
      "anonymous": false,
      "inputs": [
        {
          "indexed": true,
          "internalType": "address",
          "name": "from",
          "type": "address"
        },
        {
          "indexed": false,
          "internalType": "string",
          "name": "id",
          "type": "string"
        }
      ],
      "name": "ReviewDeleted",
      "type": "event"
    },
    {
      "anonymous": false,
      "inputs": [
        {
          "indexed": true,
          "internalType": "address",
          "name": "from",
          "type": "address"
        },
        {
          "indexed": false,
          "internalType": "string",
          "name": "id",
          "type": "string"
        }
      ],
      "name": "ReviewVouched",
      "type": "event"
    },
    {
      "constant": true,
      "inputs": [],
      "name": "getHubAddr",
      "outputs": [
        {
          "internalType": "address",
          "name": "",
          "type": "address"
        }
      ],
      "payable": false,
      "stateMutability": "view",
      "type": "function"
    },
    {
      "constant": false,
      "inputs": [
        {
          "internalType": "bytes",
          "name": "context",
          "type": "bytes"
        },
        {
          "internalType": "bool",
          "name": "success",
          "type": "bool"
        },
        {
          "internalType": "uint256",
          "name": "actualCharge",
          "type": "uint256"
        },
        {
          "internalType": "bytes32",
          "name": "preRetVal",
          "type": "bytes32"
        }
      ],
      "name": "postRelayedCall",
      "outputs": [],
      "payable": false,
      "stateMutability": "nonpayable",
      "type": "function"
    },
    {
      "constant": false,
      "inputs": [
        {
          "internalType": "bytes",
          "name": "context",
          "type": "bytes"
        }
      ],
      "name": "preRelayedCall",
      "outputs": [
        {
          "internalType": "bytes32",
          "name": "",
          "type": "bytes32"
        }
      ],
      "payable": false,
      "stateMutability": "nonpayable",
      "type": "function"
    },
    {
      "constant": true,
      "inputs": [],
      "name": "relayHubVersion",
      "outputs": [
        {
          "internalType": "string",
          "name": "",
          "type": "string"
        }
      ],
      "payable": false,
      "stateMutability": "view",
      "type": "function"
    },
    {
      "constant": false,
      "inputs": [],
      "name": "setDefaultRelayHub",
      "outputs": [],
      "payable": false,
      "stateMutability": "nonpayable",
      "type": "function"
    },
    {
      "constant": false,
      "inputs": [],
      "name": "initialize",
      "outputs": [],
      "payable": false,
      "stateMutability": "nonpayable",
      "type": "function"
    },
    {
      "constant": false,
      "inputs": [
        {
          "internalType": "string",
          "name": "id",
          "type": "string"
        },
        {
          "internalType": "string",
          "name": "journalId",
          "type": "string"
        },
        {
          "internalType": "string",
          "name": "publisher",
          "type": "string"
        },
        {
          "internalType": "string",
          "name": "manuscriptId",
          "type": "string"
        },
        {
          "internalType": "string",
          "name": "manuscriptHash",
          "type": "string"
        },
        {
          "internalType": "uint32",
          "name": "timestamp",
          "type": "uint32"
        },
        {
          "internalType": "enum ReviewStorage.Recommendation",
          "name": "recommendation",
          "type": "uint8"
        },
        {
          "internalType": "string",
          "name": "url",
          "type": "string"
        }
      ],
      "name": "addReview",
      "outputs": [],
      "payable": false,
      "stateMutability": "nonpayable",
      "type": "function"
    },
    {
      "constant": false,
      "inputs": [
        {
          "internalType": "string[]",
          "name": "ids",
          "type": "string[]"
        },
        {
          "internalType": "string[]",
          "name": "journalIds",
          "type": "string[]"
        },
        {
          "internalType": "string[]",
          "name": "publishers",
          "type": "string[]"
        },
        {
          "internalType": "string[]",
          "name": "manuscriptIds",
          "type": "string[]"
        },
        {
          "internalType": "string[]",
          "name": "manuscriptHashes",
          "type": "string[]"
        },
        {
          "internalType": "uint32[]",
          "name": "timestamps",
          "type": "uint32[]"
        },
        {
          "internalType": "enum ReviewStorage.Recommendation[]",
          "name": "recommendations",
          "type": "uint8[]"
        },
        {
          "internalType": "string[]",
          "name": "urls",
          "type": "string[]"
        }
      ],
      "name": "addMultipleReviews",
      "outputs": [],
      "payable": false,
      "stateMutability": "nonpayable",
      "type": "function"
    },
    {
      "constant": false,
      "inputs": [
        {
          "internalType": "string[]",
          "name": "ids",
          "type": "string[]"
        },
        {
          "internalType": "string[]",
          "name": "journalIds",
          "type": "string[]"
        },
        {
          "internalType": "string[]",
          "name": "publishers",
          "type": "string[]"
        },
        {
          "internalType": "string[]",
          "name": "manuscriptIds",
          "type": "string[]"
        },
        {
          "internalType": "string[]",
          "name": "manuscriptHashes",
          "type": "string[]"
        },
        {
          "internalType": "uint32[]",
          "name": "timestamps",
          "type": "uint32[]"
        },
        {
          "internalType": "enum ReviewStorage.Recommendation[]",
          "name": "recommendations",
          "type": "uint8[]"
        },
        {
          "internalType": "string[]",
          "name": "urls",
          "type": "string[]"
        },
        {
          "internalType": "bool[]",
          "name": "verifieds",
          "type": "bool[]"
        }
      ],
      "name": "addMultipleReviewsAndVerifyByPublons",
      "outputs": [],
      "payable": false,
      "stateMutability": "nonpayable",
      "type": "function"
    },
    {
      "constant": true,
      "inputs": [
        {
          "internalType": "string",
          "name": "id",
          "type": "string"
        }
      ],
      "name": "getReview",
      "outputs": [
        {
          "internalType": "string",
          "name": "",
          "type": "string"
        },
        {
          "internalType": "address",
          "name": "",
          "type": "address"
        },
        {
          "internalType": "string",
          "name": "",
          "type": "string"
        },
        {
          "internalType": "string",
          "name": "",
          "type": "string"
        },
        {
          "internalType": "string",
          "name": "",
          "type": "string"
        },
        {
          "internalType": "string",
          "name": "",
          "type": "string"
        },
        {
          "internalType": "uint32",
          "name": "",
          "type": "uint32"
        },
        {
          "internalType": "enum ReviewStorage.Recommendation",
          "name": "",
          "type": "uint8"
        },
        {
          "internalType": "string",
          "name": "",
          "type": "string"
        },
        {
          "internalType": "bool",
          "name": "",
          "type": "bool"
        },
        {
          "internalType": "address[]",
          "name": "",
          "type": "address[]"
        }
      ],
      "payable": false,
      "stateMutability": "view",
      "type": "function"
    },
    {
      "constant": true,
      "inputs": [
        {
          "internalType": "address",
          "name": "addr",
          "type": "address"
        }
      ],
      "name": "getReviewsArrayOfUser",
      "outputs": [
        {
          "internalType": "string[]",
          "name": "",
          "type": "string[]"
        }
      ],
      "payable": false,
      "stateMutability": "view",
      "type": "function"
    },
    {
      "constant": false,
      "inputs": [
        {
          "internalType": "string",
          "name": "id",
          "type": "string"
        }
      ],
      "name": "deleteReview",
      "outputs": [],
      "payable": false,
      "stateMutability": "nonpayable",
      "type": "function"
    },
    {
      "constant": false,
      "inputs": [
        {
          "internalType": "string",
          "name": "id",
          "type": "string"
        }
      ],
      "name": "vouchReview",
      "outputs": [],
      "payable": false,
      "stateMutability": "nonpayable",
      "type": "function"
    },
    {
      "constant": true,
      "inputs": [
        {
          "internalType": "string",
          "name": "id",
          "type": "string"
        }
      ],
      "name": "hasVouched",
      "outputs": [
        {
          "internalType": "bool",
          "name": "",
          "type": "bool"
        }
      ],
      "payable": false,
      "stateMutability": "view",
      "type": "function"
    },
    {
      "constant": true,
      "inputs": [
        {
          "internalType": "string",
          "name": "id",
          "type": "string"
        }
      ],
      "name": "isVerified",
      "outputs": [
        {
          "internalType": "bool",
          "name": "",
          "type": "bool"
        }
      ],
      "payable": false,
      "stateMutability": "view",
      "type": "function"
    },
    {
      "constant": true,
      "inputs": [
        {
          "internalType": "address",
          "name": "relay",
          "type": "address"
        },
        {
          "internalType": "address",
          "name": "from",
          "type": "address"
        },
        {
          "internalType": "bytes",
          "name": "encodedFunction",
          "type": "bytes"
        },
        {
          "internalType": "uint256",
          "name": "transactionFee",
          "type": "uint256"
        },
        {
          "internalType": "uint256",
          "name": "gasPrice",
          "type": "uint256"
        },
        {
          "internalType": "uint256",
          "name": "gasLimit",
          "type": "uint256"
        },
        {
          "internalType": "uint256",
          "name": "nonce",
          "type": "uint256"
        },
        {
          "internalType": "bytes",
          "name": "approvalData",
          "type": "bytes"
        },
        {
          "internalType": "uint256",
          "name": "maxPossibleCharge",
          "type": "uint256"
        }
      ],
      "name": "acceptRelayedCall",
      "outputs": [
        {
          "internalType": "uint256",
          "name": "",
          "type": "uint256"
        },
        {
          "internalType": "bytes",
          "name": "",
          "type": "bytes"
        }
      ],
      "payable": false,
      "stateMutability": "view",
      "type": "function"
    }
  ],
  "bytecode": "0x60806040526140bb806100136000396000f3fe608060405234801561001057600080fd5b50600436106101005760003560e01c806383947ea011610097578063b444dc7511610066578063b444dc7514610286578063b61873cf146102c0578063bfd95fd1146102f0578063e06e0e221461030c57610100565b806383947ea0146101ff5780639afc912414610230578063a47be8001461024c578063ad61ccd51461026857610100565b80636a6e1553116100d35780636a6e15531461018b57806374e861d6146101a757806380274db7146101c55780638129fc1c146101f557610100565b80631220e2ff14610105578063169013011461010f578063234c76d51461013f578063436fc97f1461016f575b600080fd5b61010d610328565b005b61012960048036036101249190810190612e74565b610347565b6040516101369190613a90565b60405180910390f35b61015960048036036101549190810190613372565b61046f565b6040516101669190613ab2565b60405180910390f35b6101896004803603610184919081019061310f565b6104ac565b005b6101a560048036036101a09190810190612f9d565b610a37565b005b6101af610f02565b6040516101bc9190613a75565b60405180910390f35b6101df60048036036101da91908101906132ad565b610f2c565b6040516101ec9190613acd565b60405180910390f35b6101fd610ff8565b005b61021960048036036102149190810190612e9d565b61113e565b604051610227929190613ce8565b60405180910390f35b61024a60048036036102459190810190613372565b61115e565b005b61026660048036036102619190810190613372565b6113e4565b005b6102706116d9565b60405161027d9190613b0a565b60405180910390f35b6102a0600480360361029b9190810190613372565b611716565b6040516102b79b9a99989796959493929190613b2c565b60405180910390f35b6102da60048036036102d59190810190613372565b611d17565b6040516102e79190613ab2565b60405180910390f35b61030a600480360361030591908101906133b3565b611d9e565b005b610326600480360361032191908101906132f2565b612153565b005b61034573d216153c06e857cd7f72665e0af1d7d82172f49461221f565b565b6060603660008373ffffffffffffffffffffffffffffffffffffffff1673ffffffffffffffffffffffffffffffffffffffff168152602001908152602001600020805480602002602001604051908101604052809291908181526020016000905b82821015610464578382906000526020600020018054600181600116156101000203166002900480601f0160208091040260200160405190810160405280929190818152602001828054600181600116156101000203166002900480156104505780601f1061042557610100808354040283529160200191610450565b820191906000526020600020905b81548152906001019060200180831161043357829003601f168201915b5050505050815260200190600101906103a8565b505050509050919050565b6000806035836040516104829190613a5e565b908152602001604051809103902090508060080160009054906101000a900460ff16915050919050565b875189511480156104be575086518851145b80156104cb575085518751145b80156104d8575084518651145b80156104e5575083518551145b80156104f2575082518451145b80156104ff575081518351145b801561050c575080518251145b61054b576040517f08c379a000000000000000000000000000000000000000000000000000000000815260040161054290613c48565b60405180910390fd5b600088519050600061055b6123c4565b90506000603660008373ffffffffffffffffffffffffffffffffffffffff1673ffffffffffffffffffffffffffffffffffffffff16815260200190815260200160002080549050905060008090505b8362ffffff168163ffffffff161015610a2857600060358e8363ffffffff16815181106105d357fe5b60200260200101516040516105e89190613a47565b908152602001604051809103902090508d8263ffffffff168151811061060a57fe5b602002602001015181600001908051906020019061062992919061264a565b508183018160010160006101000a81548163ffffffff021916908363ffffffff160217905550838160010160046101000a81548173ffffffffffffffffffffffffffffffffffffffff021916908373ffffffffffffffffffffffffffffffffffffffff1602179055508c8263ffffffff16815181106106a457fe5b60200260200101518160020190805190602001906106c392919061264a565b508b8263ffffffff16815181106106d657fe5b60200260200101518160030190805190602001906106f592919061264a565b508a8263ffffffff168151811061070857fe5b602002602001015181600401908051906020019061072792919061264a565b50898263ffffffff168151811061073a57fe5b602002602001015181600501908051906020019061075992919061264a565b50888263ffffffff168151811061076c57fe5b60200260200101518160060160006101000a81548163ffffffff021916908363ffffffff160217905550878263ffffffff16815181106107a857fe5b60200260200101518160060160046101000a81548160ff021916908360038111156107cf57fe5b0217905550868263ffffffff16815181106107e657fe5b602002602001015181600701908051906020019061080592919061264a565b50858263ffffffff168151811061081857fe5b6020026020010151156108b75760018160080160006101000a81548160ff0219169083151502179055506040518060200160405280603460009054906101000a900473ffffffffffffffffffffffffffffffffffffffff1673ffffffffffffffffffffffffffffffffffffffff1673ffffffffffffffffffffffffffffffffffffffff16815250816009019060016108b19291906126ca565b5061091e565b60008160080160006101000a81548160ff02191690831515021790555060006040519080825280602002602001820160405280156109045781602001602082028038833980820191505090505b5081600901908051906020019061091c929190612754565b505b603660008573ffffffffffffffffffffffffffffffffffffffff1673ffffffffffffffffffffffffffffffffffffffff1681526020019081526020016000208e8363ffffffff168151811061096f57fe5b602002602001015190806001815401808255809150509060018203906000526020600020016000909192909190915090805190602001906109b192919061264a565b50508373ffffffffffffffffffffffffffffffffffffffff167f735a8465cb95c1119a0a9c5bfe794f848896e77bf9ba97f9115c49a08e5b54eb8f8463ffffffff16815181106109fd57fe5b6020026020010151604051610a129190613ae8565b60405180910390a25080806001019150506105aa565b50505050505050505050505050565b86518851148015610a49575085518751145b8015610a56575084518651145b8015610a63575083518551145b8015610a70575082518451145b8015610a7d575081518351145b8015610a8a575080518251145b610ac9576040517f08c379a0000000000000000000000000000000000000000000000000000000008152600401610ac090613c48565b60405180910390fd5b6000875190506000610ad96123c4565b90506000603660008373ffffffffffffffffffffffffffffffffffffffff1673ffffffffffffffffffffffffffffffffffffffff16815260200190815260200160002080549050905060008090505b8362ffffff168163ffffffff161015610ef457600060358d8363ffffffff1681518110610b5157fe5b6020026020010151604051610b669190613a47565b908152602001604051809103902090508c8263ffffffff1681518110610b8857fe5b6020026020010151816000019080519060200190610ba792919061264a565b508183018160010160006101000a81548163ffffffff021916908363ffffffff160217905550838160010160046101000a81548173ffffffffffffffffffffffffffffffffffffffff021916908373ffffffffffffffffffffffffffffffffffffffff1602179055508b8263ffffffff1681518110610c2257fe5b6020026020010151816002019080519060200190610c4192919061264a565b508a8263ffffffff1681518110610c5457fe5b6020026020010151816003019080519060200190610c7392919061264a565b50898263ffffffff1681518110610c8657fe5b6020026020010151816004019080519060200190610ca592919061264a565b50888263ffffffff1681518110610cb857fe5b6020026020010151816005019080519060200190610cd792919061264a565b50878263ffffffff1681518110610cea57fe5b60200260200101518160060160006101000a81548163ffffffff021916908363ffffffff160217905550868263ffffffff1681518110610d2657fe5b60200260200101518160060160046101000a81548160ff02191690836003811115610d4d57fe5b0217905550858263ffffffff1681518110610d6457fe5b6020026020010151816007019080519060200190610d8392919061264a565b5060008160080160006101000a81548160ff0219169083151502179055506000604051908082528060200260200182016040528015610dd15781602001602082028038833980820191505090505b50816009019080519060200190610de9929190612754565b50603660008573ffffffffffffffffffffffffffffffffffffffff1673ffffffffffffffffffffffffffffffffffffffff1681526020019081526020016000208d8363ffffffff1681518110610e3b57fe5b60200260200101519080600181540180825580915050906001820390600052602060002001600090919290919091509080519060200190610e7d92919061264a565b50508373ffffffffffffffffffffffffffffffffffffffff167f735a8465cb95c1119a0a9c5bfe794f848896e77bf9ba97f9115c49a08e5b54eb8e8463ffffffff1681518110610ec957fe5b6020026020010151604051610ede9190613ae8565b60405180910390a2508080600101915050610b28565b505050505050505050505050565b6000603360009054906101000a900473ffffffffffffffffffffffffffffffffffffffff16905090565b6000610f36610f02565b73ffffffffffffffffffffffffffffffffffffffff163373ffffffffffffffffffffffffffffffffffffffff1614610fa3576040517f08c379a0000000000000000000000000000000000000000000000000000000008152600401610f9a90613cc8565b60405180910390fd5b610ff083838080601f016020809104026020016040519081016040528093929190818152602001838380828437600081840152601f19601f82011690508083019250505050505050612431565b905092915050565b600060019054906101000a900460ff16806110175750611016612438565b5b8061102e57506000809054906101000a900460ff16155b61106d576040517f08c379a000000000000000000000000000000000000000000000000000000000815260040161106490613c88565b60405180910390fd5b60008060019054906101000a900460ff1615905080156110bd576001600060016101000a81548160ff02191690831515021790555060016000806101000a81548160ff0219169083151502179055505b6110c561244f565b7314b3a00c89bddb6c0577e518fca87ec19b1b2311603460006101000a81548173ffffffffffffffffffffffffffffffffffffffff021916908373ffffffffffffffffffffffffffffffffffffffff160217905550801561113b5760008060016101000a81548160ff0219169083151502179055505b50565b6000606061114a612598565b915091509b509b9950505050505050505050565b806111676123c4565b73ffffffffffffffffffffffffffffffffffffffff1660358260405161118d9190613a5e565b908152602001604051809103902060010160049054906101000a900473ffffffffffffffffffffffffffffffffffffffff1673ffffffffffffffffffffffffffffffffffffffff161415611216576040517f08c379a000000000000000000000000000000000000000000000000000000000815260040161120d90613c08565b60405180910390fd5b60006112206123c4565b905060006035846040516112349190613a5e565b908152602001604051809103902090506000151581600a0160008473ffffffffffffffffffffffffffffffffffffffff1673ffffffffffffffffffffffffffffffffffffffff16815260200190815260200160002060009054906101000a900460ff161515141561136257806009018290806001815401808255809150509060018203906000526020600020016000909192909190916101000a81548173ffffffffffffffffffffffffffffffffffffffff021916908373ffffffffffffffffffffffffffffffffffffffff16021790555050600181600a0160008473ffffffffffffffffffffffffffffffffffffffff1673ffffffffffffffffffffffffffffffffffffffff16815260200190815260200160002060006101000a81548160ff0219169083151502179055505b6001816009018054905014156113905760018160080160006101000a81548160ff0219169083151502179055505b8173ffffffffffffffffffffffffffffffffffffffff167fd711a413c20a3ad10703b8530d027f633ff441c124e9dd328480b8e2070b4961856040516113d69190613b0a565b60405180910390a250505050565b806113ed6123c4565b73ffffffffffffffffffffffffffffffffffffffff166035826040516114139190613a5e565b908152602001604051809103902060010160049054906101000a900473ffffffffffffffffffffffffffffffffffffffff1673ffffffffffffffffffffffffffffffffffffffff161461149b576040517f08c379a000000000000000000000000000000000000000000000000000000000815260040161149290613c68565b60405180910390fd5b60006035836040516114ad9190613a5e565b9081526020016040518091039020905060008160010160009054906101000a900463ffffffff16905060008260010160049054906101000a900473ffffffffffffffffffffffffffffffffffffffff16905060008263ffffffff1690505b6001603660008473ffffffffffffffffffffffffffffffffffffffff1673ffffffffffffffffffffffffffffffffffffffff168152602001908152602001600020805490500381101561163057603660008373ffffffffffffffffffffffffffffffffffffffff1673ffffffffffffffffffffffffffffffffffffffff16815260200190815260200160002060018201815481106115a557fe5b90600052602060002001603660008473ffffffffffffffffffffffffffffffffffffffff1673ffffffffffffffffffffffffffffffffffffffff16815260200190815260200160002082815481106115f957fe5b9060005260206000200190805460018160011615610100020316600290046116229291906127de565b50808060010191505061150b565b50603660008273ffffffffffffffffffffffffffffffffffffffff1673ffffffffffffffffffffffffffffffffffffffff1681526020019081526020016000208054809190600190036116839190612865565b508073ffffffffffffffffffffffffffffffffffffffff167ff8611cc11b4db806ae78ddde333ca7d59df355dcd99d6bcfab95fd925ca098f3866040516116ca9190613b0a565b60405180910390a25050505050565b60606040518060400160405280600581526020017f312e302e30000000000000000000000000000000000000000000000000000000815250905090565b60606000606080606080600080606060006060611731612891565b60358d6040516117419190613a5e565b908152602001604051809103902060405180610180016040529081600082018054600181600116156101000203166002900480601f0160208091040260200160405190810160405280929190818152602001828054600181600116156101000203166002900480156117f45780601f106117c9576101008083540402835291602001916117f4565b820191906000526020600020905b8154815290600101906020018083116117d757829003601f168201915b505050505081526020016001820160009054906101000a900463ffffffff1663ffffffff1663ffffffff1681526020016001820160049054906101000a900473ffffffffffffffffffffffffffffffffffffffff1673ffffffffffffffffffffffffffffffffffffffff1673ffffffffffffffffffffffffffffffffffffffff168152602001600282018054600181600116156101000203166002900480601f0160208091040260200160405190810160405280929190818152602001828054600181600116156101000203166002900480156119125780601f106118e757610100808354040283529160200191611912565b820191906000526020600020905b8154815290600101906020018083116118f557829003601f168201915b50505050508152602001600382018054600181600116156101000203166002900480601f0160208091040260200160405190810160405280929190818152602001828054600181600116156101000203166002900480156119b45780601f10611989576101008083540402835291602001916119b4565b820191906000526020600020905b81548152906001019060200180831161199757829003601f168201915b50505050508152602001600482018054600181600116156101000203166002900480601f016020809104026020016040519081016040528092919081815260200182805460018160011615610100020316600290048015611a565780601f10611a2b57610100808354040283529160200191611a56565b820191906000526020600020905b815481529060010190602001808311611a3957829003601f168201915b50505050508152602001600582018054600181600116156101000203166002900480601f016020809104026020016040519081016040528092919081815260200182805460018160011615610100020316600290048015611af85780601f10611acd57610100808354040283529160200191611af8565b820191906000526020600020905b815481529060010190602001808311611adb57829003601f168201915b505050505081526020016006820160009054906101000a900463ffffffff1663ffffffff1663ffffffff1681526020016006820160049054906101000a900460ff166003811115611b4557fe5b6003811115611b5057fe5b8152602001600782018054600181600116156101000203166002900480601f016020809104026020016040519081016040528092919081815260200182805460018160011615610100020316600290048015611bed5780601f10611bc257610100808354040283529160200191611bed565b820191906000526020600020905b815481529060010190602001808311611bd057829003601f168201915b505050505081526020016008820160009054906101000a900460ff1615151515815260200160098201805480602002602001604051908101604052809291908181526020018280548015611c9657602002820191906000526020600020905b8160009054906101000a900473ffffffffffffffffffffffffffffffffffffffff1673ffffffffffffffffffffffffffffffffffffffff1681526020019060010190808311611c4c575b505050505081525050905080600001518160400151826060015183608001518460a001518560c001518660e001518761010001518861012001518961014001518a61016001518a9a508898508797508696508595508292508090509b509b509b509b509b509b509b509b509b509b509b505091939597999b90929496989a50565b600080611d226123c4565b90506000603584604051611d369190613a5e565b9081526020016040518091039020905080600a0160008373ffffffffffffffffffffffffffffffffffffffff1673ffffffffffffffffffffffffffffffffffffffff16815260200190815260200160002060009054906101000a900460ff1692505050919050565b6000611da86123c4565b90506000603660008373ffffffffffffffffffffffffffffffffffffffff1673ffffffffffffffffffffffffffffffffffffffff168152602001908152602001600020805490509050611df9612891565b6040518061018001604052808c81526020018363ffffffff1681526020018473ffffffffffffffffffffffffffffffffffffffff1681526020018b81526020018a81526020018981526020018881526020018763ffffffff168152602001866003811115611e6357fe5b81526020018581526020016000151581526020016000604051908082528060200260200182016040528015611ea75781602001602082028038833980820191505090505b5081525090508060358c604051611ebe9190613a5e565b90815260200160405180910390206000820151816000019080519060200190611ee8929190612921565b5060208201518160010160006101000a81548163ffffffff021916908363ffffffff16021790555060408201518160010160046101000a81548173ffffffffffffffffffffffffffffffffffffffff021916908373ffffffffffffffffffffffffffffffffffffffff1602179055506060820151816002019080519060200190611f73929190612921565b506080820151816003019080519060200190611f90929190612921565b5060a0820151816004019080519060200190611fad929190612921565b5060c0820151816005019080519060200190611fca929190612921565b5060e08201518160060160006101000a81548163ffffffff021916908363ffffffff1602179055506101008201518160060160046101000a81548160ff0219169083600381111561201757fe5b0217905550610120820151816007019080519060200190612039929190612921565b506101408201518160080160006101000a81548160ff0219169083151502179055506101608201518160090190805190602001906120789291906129a1565b50905050603660008473ffffffffffffffffffffffffffffffffffffffff1673ffffffffffffffffffffffffffffffffffffffff1681526020019081526020016000208b90806001815401808255809150509060018203906000526020600020016000909192909190915090805190602001906120f692919061264a565b50508273ffffffffffffffffffffffffffffffffffffffff167f735a8465cb95c1119a0a9c5bfe794f848896e77bf9ba97f9115c49a08e5b54eb8c60405161213e9190613b0a565b60405180910390a25050505050505050505050565b61215b610f02565b73ffffffffffffffffffffffffffffffffffffffff163373ffffffffffffffffffffffffffffffffffffffff16146121c8576040517f08c379a00000000000000000000000000000000000000000000000000000000081526004016121bf90613cc8565b60405180910390fd5b61221885858080601f016020809104026020016040519081016040528093929190818152602001838380828437600081840152601f19601f820116905080830192505050505050508484846125bc565b5050505050565b6000603360009054906101000a900473ffffffffffffffffffffffffffffffffffffffff169050600073ffffffffffffffffffffffffffffffffffffffff168273ffffffffffffffffffffffffffffffffffffffff1614156122b6576040517f08c379a00000000000000000000000000000000000000000000000000000000081526004016122ad90613c28565b60405180910390fd5b8073ffffffffffffffffffffffffffffffffffffffff168273ffffffffffffffffffffffffffffffffffffffff161415612325576040517f08c379a000000000000000000000000000000000000000000000000000000000815260040161231c90613ca8565b60405180910390fd5b8173ffffffffffffffffffffffffffffffffffffffff168173ffffffffffffffffffffffffffffffffffffffff167fb9f84b8e65164b14439ae3620df0a4d8786d896996c0282b683f9d8c08f046e860405160405180910390a381603360006101000a81548173ffffffffffffffffffffffffffffffffffffffff021916908373ffffffffffffffffffffffffffffffffffffffff1602179055505050565b6000603360009054906101000a900473ffffffffffffffffffffffffffffffffffffffff1673ffffffffffffffffffffffffffffffffffffffff163373ffffffffffffffffffffffffffffffffffffffff16146124235733905061242e565b61242b6125c2565b90505b90565b6000919050565b6000803090506000813b9050600081149250505090565b600060019054906101000a900460ff168061246e575061246d612438565b5b8061248557506000809054906101000a900460ff16155b6124c4576040517f08c379a00000000000000000000000000000000000000000000000000000000081526004016124bb90613c88565b60405180910390fd5b60008060019054906101000a900460ff161590508015612514576001600060016101000a81548160ff02191690831515021790555060016000806101000a81548160ff0219169083151502179055505b600073ffffffffffffffffffffffffffffffffffffffff16603360009054906101000a900473ffffffffffffffffffffffffffffffffffffffff1673ffffffffffffffffffffffffffffffffffffffff16141561257457612573610328565b5b80156125955760008060016101000a81548160ff0219169083151502179055505b50565b600060606125b46040518060200160405280600081525061263a565b915091509091565b50505050565b600060606000368080601f016020809104026020016040519081016040528093929190818152602001838380828437600081840152601f19601f820116905080830192505050505050509050600080369050905073ffffffffffffffffffffffffffffffffffffffff81830151169250829250505090565b6000606060008391509150915091565b828054600181600116156101000203166002900490600052602060002090601f016020900481019282601f1061268b57805160ff19168380011785556126b9565b828001600101855582156126b9579182015b828111156126b857825182559160200191906001019061269d565b5b5090506126c69190612a2b565b5090565b828054828255906000526020600020908101928215612743579160200282015b828111156127425782518260006101000a81548173ffffffffffffffffffffffffffffffffffffffff021916908373ffffffffffffffffffffffffffffffffffffffff160217905550916020019190600101906126ea565b5b5090506127509190612a50565b5090565b8280548282559060005260206000209081019282156127cd579160200282015b828111156127cc5782518260006101000a81548173ffffffffffffffffffffffffffffffffffffffff021916908373ffffffffffffffffffffffffffffffffffffffff16021790555091602001919060010190612774565b5b5090506127da9190612a50565b5090565b828054600181600116156101000203166002900490600052602060002090601f016020900481019282601f106128175780548555612854565b8280016001018555821561285457600052602060002091601f016020900482015b82811115612853578254825591600101919060010190612838565b5b5090506128619190612a2b565b5090565b81548183558181111561288c5781836000526020600020918201910161288b9190612a93565b5b505050565b60405180610180016040528060608152602001600063ffffffff168152602001600073ffffffffffffffffffffffffffffffffffffffff16815260200160608152602001606081526020016060815260200160608152602001600063ffffffff1681526020016000600381111561290457fe5b815260200160608152602001600015158152602001606081525090565b828054600181600116156101000203166002900490600052602060002090601f016020900481019282601f1061296257805160ff1916838001178555612990565b82800160010185558215612990579182015b8281111561298f578251825591602001919060010190612974565b5b50905061299d9190612a2b565b5090565b828054828255906000526020600020908101928215612a1a579160200282015b82811115612a195782518260006101000a81548173ffffffffffffffffffffffffffffffffffffffff021916908373ffffffffffffffffffffffffffffffffffffffff160217905550916020019190600101906129c1565b5b509050612a279190612a50565b5090565b612a4d91905b80821115612a49576000816000905550600101612a31565b5090565b90565b612a9091905b80821115612a8c57600081816101000a81549073ffffffffffffffffffffffffffffffffffffffff021916905550600101612a56565b5090565b90565b612abc91905b80821115612ab85760008181612aaf9190612abf565b50600101612a99565b5090565b90565b50805460018160011615610100020316600290046000825580601f10612ae55750612b04565b601f016020900490600052602060002090810190612b039190612a2b565b5b50565b600081359050612b1681613ff5565b92915050565b600082601f830112612b2d57600080fd5b8135612b40612b3b82613d45565b613d18565b91508181835260208401935060208101905083856020840282011115612b6557600080fd5b60005b83811015612b955781612b7b8882612d19565b845260208401935060208301925050600181019050612b68565b5050505092915050565b600082601f830112612bb057600080fd5b8135612bc3612bbe82613d6d565b613d18565b91508181835260208401935060208101905083856020840282011115612be857600080fd5b60005b83811015612c185781612bfe8882612d8d565b845260208401935060208301925050600181019050612beb565b5050505092915050565b600082601f830112612c3357600080fd5b8135612c46612c4182613d95565b613d18565b9150818183526020840193506020810190508360005b83811015612c8c5781358601612c728882612da2565b845260208401935060208301925050600181019050612c5c565b5050505092915050565b600082601f830112612ca757600080fd5b8135612cba612cb582613dbd565b613d18565b91508181835260208401935060208101905083856020840282011115612cdf57600080fd5b60005b83811015612d0f5781612cf58882612e5f565b845260208401935060208301925050600181019050612ce2565b5050505092915050565b600081359050612d288161400c565b92915050565b600081359050612d3d81614023565b92915050565b60008083601f840112612d5557600080fd5b8235905067ffffffffffffffff811115612d6e57600080fd5b602083019150836001820283011115612d8657600080fd5b9250929050565b600081359050612d9c8161403a565b92915050565b600082601f830112612db357600080fd5b8135612dc6612dc182613de5565b613d18565b91508082526020830160208301858383011115612de257600080fd5b612ded838284613f95565b50505092915050565b600082601f830112612e0757600080fd5b8135612e1a612e1582613e11565b613d18565b91508082526020830160208301858383011115612e3657600080fd5b612e41838284613f95565b50505092915050565b600081359050612e598161404a565b92915050565b600081359050612e6e81614061565b92915050565b600060208284031215612e8657600080fd5b6000612e9484828501612b07565b91505092915050565b60008060008060008060008060008060006101208c8e031215612ebf57600080fd5b6000612ecd8e828f01612b07565b9b50506020612ede8e828f01612b07565b9a505060408c013567ffffffffffffffff811115612efb57600080fd5b612f078e828f01612d43565b99509950506060612f1a8e828f01612e4a565b9750506080612f2b8e828f01612e4a565b96505060a0612f3c8e828f01612e4a565b95505060c0612f4d8e828f01612e4a565b94505060e08c013567ffffffffffffffff811115612f6a57600080fd5b612f768e828f01612d43565b9350935050610100612f8a8e828f01612e4a565b9150509295989b509295989b9093969950565b600080600080600080600080610100898b031215612fba57600080fd5b600089013567ffffffffffffffff811115612fd457600080fd5b612fe08b828c01612c22565b985050602089013567ffffffffffffffff811115612ffd57600080fd5b6130098b828c01612c22565b975050604089013567ffffffffffffffff81111561302657600080fd5b6130328b828c01612c22565b965050606089013567ffffffffffffffff81111561304f57600080fd5b61305b8b828c01612c22565b955050608089013567ffffffffffffffff81111561307857600080fd5b6130848b828c01612c22565b94505060a089013567ffffffffffffffff8111156130a157600080fd5b6130ad8b828c01612c96565b93505060c089013567ffffffffffffffff8111156130ca57600080fd5b6130d68b828c01612b9f565b92505060e089013567ffffffffffffffff8111156130f357600080fd5b6130ff8b828c01612c22565b9150509295985092959890939650565b60008060008060008060008060006101208a8c03121561312e57600080fd5b60008a013567ffffffffffffffff81111561314857600080fd5b6131548c828d01612c22565b99505060208a013567ffffffffffffffff81111561317157600080fd5b61317d8c828d01612c22565b98505060408a013567ffffffffffffffff81111561319a57600080fd5b6131a68c828d01612c22565b97505060608a013567ffffffffffffffff8111156131c357600080fd5b6131cf8c828d01612c22565b96505060808a013567ffffffffffffffff8111156131ec57600080fd5b6131f88c828d01612c22565b95505060a08a013567ffffffffffffffff81111561321557600080fd5b6132218c828d01612c96565b94505060c08a013567ffffffffffffffff81111561323e57600080fd5b61324a8c828d01612b9f565b93505060e08a013567ffffffffffffffff81111561326757600080fd5b6132738c828d01612c22565b9250506101008a013567ffffffffffffffff81111561329157600080fd5b61329d8c828d01612b1c565b9150509295985092959850929598565b600080602083850312156132c057600080fd5b600083013567ffffffffffffffff8111156132da57600080fd5b6132e685828601612d43565b92509250509250929050565b60008060008060006080868803121561330a57600080fd5b600086013567ffffffffffffffff81111561332457600080fd5b61333088828901612d43565b9550955050602061334388828901612d19565b935050604061335488828901612e4a565b925050606061336588828901612d2e565b9150509295509295909350565b60006020828403121561338457600080fd5b600082013567ffffffffffffffff81111561339e57600080fd5b6133aa84828501612df6565b91505092915050565b600080600080600080600080610100898b0312156133d057600080fd5b600089013567ffffffffffffffff8111156133ea57600080fd5b6133f68b828c01612df6565b985050602089013567ffffffffffffffff81111561341357600080fd5b61341f8b828c01612df6565b975050604089013567ffffffffffffffff81111561343c57600080fd5b6134488b828c01612df6565b965050606089013567ffffffffffffffff81111561346557600080fd5b6134718b828c01612df6565b955050608089013567ffffffffffffffff81111561348e57600080fd5b61349a8b828c01612df6565b94505060a06134ab8b828c01612e5f565b93505060c06134bc8b828c01612d8d565b92505060e089013567ffffffffffffffff8111156134d957600080fd5b6134e58b828c01612df6565b9150509295985092959890939650565b60006135018383613521565b60208301905092915050565b600061351983836136e2565b905092915050565b61352a81613f0e565b82525050565b61353981613f0e565b82525050565b600061354a82613e5d565b6135548185613eae565b935061355f83613e3d565b8060005b8381101561359057815161357788826134f5565b975061358283613e94565b925050600181019050613563565b5085935050505092915050565b60006135a882613e68565b6135b28185613ebf565b9350836020820285016135c485613e4d565b8060005b8581101561360057848403895281516135e1858261350d565b94506135ec83613ea1565b925060208a019950506001810190506135c8565b50829750879550505050505092915050565b61361b81613f20565b82525050565b61362a81613f2c565b82525050565b600061363b82613e73565b6136458185613ed0565b9350613655818560208601613fa4565b61365e81613fd7565b840191505092915050565b61367281613f83565b82525050565b600061368382613e89565b61368d8185613ef2565b935061369d818560208601613fa4565b6136a681613fd7565b840191505092915050565b60006136bc82613e89565b6136c68185613f03565b93506136d6818560208601613fa4565b80840191505092915050565b60006136ed82613e7e565b6136f78185613ee1565b9350613707818560208601613fa4565b61371081613fd7565b840191505092915050565b600061372682613e7e565b6137308185613ef2565b9350613740818560208601613fa4565b61374981613fd7565b840191505092915050565b600061375f82613e7e565b6137698185613f03565b9350613779818560208601613fa4565b80840191505092915050565b6000613792603583613ef2565b91507f4f7065726174696f6e206e6f74207065726d697474656420666f72207468652060008301527f617574686f72206f6620746865207265766965772e00000000000000000000006020830152604082019050919050565b60006137f8602e83613ef2565b91507f47534e526563697069656e743a206e65772052656c617948756220697320746860008301527f65207a65726f20616464726573730000000000000000000000000000000000006020830152604082019050919050565b600061385e601c83613ef2565b91507f506172616d65746572206c656e6774687320646f6e74206d61746368000000006000830152602082019050919050565b600061389e603683613ef2565b91507f4f7065726174696f6e207065726d697474656420666f7220746865206175746860008301527f6f72206f662074686520726576696577206f6e6c792e000000000000000000006020830152604082019050919050565b6000613904602e83613ef2565b91507f436f6e747261637420696e7374616e63652068617320616c726561647920626560008301527f656e20696e697469616c697a65640000000000000000000000000000000000006020830152604082019050919050565b600061396a602d83613ef2565b91507f47534e526563697069656e743a206e65772052656c617948756220697320746860008301527f652063757272656e74206f6e65000000000000000000000000000000000000006020830152604082019050919050565b60006139d0602483613ef2565b91507f47534e526563697069656e743a2063616c6c6572206973206e6f742052656c6160008301527f79487562000000000000000000000000000000000000000000000000000000006020830152604082019050919050565b613a3281613f69565b82525050565b613a4181613f73565b82525050565b6000613a538284613754565b915081905092915050565b6000613a6a82846136b1565b915081905092915050565b6000602082019050613a8a6000830184613530565b92915050565b60006020820190508181036000830152613aaa818461359d565b905092915050565b6000602082019050613ac76000830184613612565b92915050565b6000602082019050613ae26000830184613621565b92915050565b60006020820190508181036000830152613b02818461371b565b905092915050565b60006020820190508181036000830152613b248184613678565b905092915050565b6000610160820190508181036000830152613b47818e613678565b9050613b56602083018d613530565b8181036040830152613b68818c613678565b90508181036060830152613b7c818b613678565b90508181036080830152613b90818a613678565b905081810360a0830152613ba48189613678565b9050613bb360c0830188613a38565b613bc060e0830187613669565b818103610100830152613bd38186613678565b9050613be3610120830185613612565b818103610140830152613bf6818461353f565b90509c9b505050505050505050505050565b60006020820190508181036000830152613c2181613785565b9050919050565b60006020820190508181036000830152613c41816137eb565b9050919050565b60006020820190508181036000830152613c6181613851565b9050919050565b60006020820190508181036000830152613c8181613891565b9050919050565b60006020820190508181036000830152613ca1816138f7565b9050919050565b60006020820190508181036000830152613cc18161395d565b9050919050565b60006020820190508181036000830152613ce1816139c3565b9050919050565b6000604082019050613cfd6000830185613a29565b8181036020830152613d0f8184613630565b90509392505050565b6000604051905081810181811067ffffffffffffffff82111715613d3b57600080fd5b8060405250919050565b600067ffffffffffffffff821115613d5c57600080fd5b602082029050602081019050919050565b600067ffffffffffffffff821115613d8457600080fd5b602082029050602081019050919050565b600067ffffffffffffffff821115613dac57600080fd5b602082029050602081019050919050565b600067ffffffffffffffff821115613dd457600080fd5b602082029050602081019050919050565b600067ffffffffffffffff821115613dfc57600080fd5b601f19601f8301169050602081019050919050565b600067ffffffffffffffff821115613e2857600080fd5b601f19601f8301169050602081019050919050565b6000819050602082019050919050565b6000819050602082019050919050565b600081519050919050565b600081519050919050565b600081519050919050565b600081519050919050565b600081519050919050565b6000602082019050919050565b6000602082019050919050565b600082825260208201905092915050565b600082825260208201905092915050565b600082825260208201905092915050565b600082825260208201905092915050565b600082825260208201905092915050565b600081905092915050565b6000613f1982613f49565b9050919050565b60008115159050919050565b6000819050919050565b6000819050613f4482613fe8565b919050565b600073ffffffffffffffffffffffffffffffffffffffff82169050919050565b6000819050919050565b600063ffffffff82169050919050565b6000613f8e82613f36565b9050919050565b82818337600083830152505050565b60005b83811015613fc2578082015181840152602081019050613fa7565b83811115613fd1576000848401525b50505050565b6000601f19601f8301169050919050565b60048110613ff257fe5b50565b613ffe81613f0e565b811461400957600080fd5b50565b61401581613f20565b811461402057600080fd5b50565b61402c81613f2c565b811461403757600080fd5b50565b6004811061404757600080fd5b50565b61405381613f69565b811461405e57600080fd5b50565b61406a81613f73565b811461407557600080fd5b5056fea365627a7a72315820cc7c0d6d77e1e80517fb5f480e2d2e92e93d69793bae8ced320ab97ea02f07306c6578706572696d656e74616cf564736f6c63430005110040",
  "source": "pragma solidity ^0.5.6;\npragma experimental ABIEncoderV2;\n\n/// @title A smart contract for storing peer reviews\n/// @author Kaan Uzdogan uzdogan@mpdl.mpg.de\n/// @notice\n/// @dev\n\nimport \"@openzeppelin/contracts-ethereum-package/contracts/GSN/GSNRecipient.sol\";\n\n\ncontract ReviewStorage is GSNRecipient {\n    event ReviewAdded(address indexed from, string id);\n    event ReviewDeleted(address indexed from, string id);\n    event ReviewVouched(address indexed from, string id);\n    address publonsAddress;\n    enum Recommendation {NULL, ACCEPT, REVISE, REJECT}\n    struct Review {\n        string id;\n        uint32 index; // index in the array of review ids from userReviewsIdsMap[<address>]\n        address author;\n        string journalId; // ISSN\n        string publisher; // Publisher Name\n        string manuscriptId; // DOI?\n        string manuscriptHash;\n        uint32 timestamp; // Unix time (32 bits), when review is published\n        Recommendation recommendation;\n        string url;\n        bool verified;\n        address[] vouchers;\n        mapping(address => bool) vouchersMap; // Check if vouched by a certain address.\n    }\n    // Mapping from Review ids to Reviews.\n    mapping(string => Review) reviewsMap;\n    // Mapping from user address to an array of review Ids.\n    mapping(address => string[]) userReviewsIdsMap;\n\n    function initialize() public initializer {\n        GSNRecipient.initialize();\n        publonsAddress = 0x14B3a00C89BDdB6C0577E518FCA87eC19b1b2311;\n    }\n\n    modifier onlyByAuthor(string memory id) {\n        require(\n            reviewsMap[id].author == _msgSender(),\n            \"Operation permitted for the author of the review only.\"\n        );\n        _;\n    }\n\n    modifier onlyByOthers(string memory id) {\n        require(\n            reviewsMap[id].author != _msgSender(),\n            \"Operation not permitted for the author of the review.\"\n        );\n        _;\n    }\n\n    /// @notice Public method to add a review.\n    /// @dev Assumes the owner(author) of the review is the _msgSender()\n    /// @param id - Id of the review generated by the client.\n    /// @param journalId - Typically ISSN number of the journal\n    /// @param publisher - The name of the publisher\n    /// @param manuscriptId - An identifier for the manuscript. This could be an internal id of a journal.\n    /// @param manuscriptHash - (Optional) Hash of the manuscript document\n    /// @param timestamp - uint32 Unix timestamp when review is published\n    /// @param recommendation - 0,1 or 2 for ACCEPT, REVIEW, REJECT\n    function addReview(\n        string memory id,\n        string memory journalId,\n        string memory publisher,\n        string memory manuscriptId,\n        string memory manuscriptHash,\n        uint32 timestamp,\n        Recommendation recommendation,\n        string memory url\n    ) public {\n        address author = _msgSender();\n        uint32 index = uint32(userReviewsIdsMap[author].length);\n\n        Review memory review = Review({\n            id: id,\n            index: index,\n            author: author,\n            journalId: journalId,\n            publisher: publisher,\n            manuscriptId: manuscriptId,\n            manuscriptHash: manuscriptHash,\n            timestamp: timestamp,\n            recommendation: recommendation,\n            url: url,\n            verified: false,\n            vouchers: new address[](0) // Init empty array\n        });\n        reviewsMap[id] = review;\n        userReviewsIdsMap[author].push(id);\n        emit ReviewAdded(author, id);\n    }\n\n    function addMultipleReviews(\n        string[] memory ids,\n        string[] memory journalIds,\n        string[] memory publishers,\n        string[] memory manuscriptIds,\n        string[] memory manuscriptHashes,\n        uint32[] memory timestamps,\n        Recommendation[] memory recommendations,\n        string[] memory urls\n    ) public {\n        require(\n            ids.length == journalIds.length &&\n                journalIds.length == publishers.length &&\n                publishers.length == manuscriptIds.length &&\n                manuscriptIds.length == manuscriptHashes.length &&\n                manuscriptHashes.length == timestamps.length &&\n                timestamps.length == recommendations.length &&\n                recommendations.length == urls.length,\n            \"Parameter lengths dont match\"\n        );\n        uint24 length = uint24(journalIds.length);\n        address author = _msgSender();\n        uint32 index = uint32(userReviewsIdsMap[author].length);\n\n        for (uint32 i = 0; i < length; i++) {\n            Review storage review = reviewsMap[ids[i]];\n            review.id = ids[i];\n            review.index = index + i;\n            review.author = author;\n            review.journalId = journalIds[i];\n            review.publisher = publishers[i];\n            review.manuscriptId = manuscriptIds[i];\n            review.manuscriptHash = manuscriptHashes[i];\n            review.timestamp = timestamps[i];\n            review.recommendation = recommendations[i];\n            review.url = urls[i];\n            review.verified = false;\n            review.vouchers = new address[](0); // Init empty array\n            userReviewsIdsMap[author].push(ids[i]);\n            emit ReviewAdded(author, ids[i]);\n        }\n    }\n\n    // TODO: REFACTOR, Repeating the code above.\n    function addMultipleReviewsAndVerifyByPublons(\n        string[] memory ids,\n        string[] memory journalIds,\n        string[] memory publishers,\n        string[] memory manuscriptIds,\n        string[] memory manuscriptHashes,\n        uint32[] memory timestamps,\n        Recommendation[] memory recommendations,\n        string[] memory urls,\n        bool[] memory verifieds\n    ) public {\n        require(\n            ids.length == journalIds.length &&\n                journalIds.length == publishers.length &&\n                publishers.length == manuscriptIds.length &&\n                manuscriptIds.length == manuscriptHashes.length &&\n                manuscriptHashes.length == timestamps.length &&\n                timestamps.length == recommendations.length &&\n                recommendations.length == urls.length &&\n                urls.length == verifieds.length,\n            \"Parameter lengths dont match\"\n        );\n        uint24 length = uint24(journalIds.length);\n        address author = _msgSender();\n        uint32 index = uint32(userReviewsIdsMap[author].length);\n\n        for (uint32 i = 0; i < length; i++) {\n            Review storage review = reviewsMap[ids[i]];\n            review.id = ids[i];\n            review.index = index + i;\n            review.author = author;\n            review.journalId = journalIds[i];\n            review.publisher = publishers[i];\n            review.manuscriptId = manuscriptIds[i];\n            review.manuscriptHash = manuscriptHashes[i];\n            review.timestamp = timestamps[i];\n            review.recommendation = recommendations[i];\n            review.url = urls[i];\n            if (verifieds[i]) {\n                review.verified = true;\n                review.vouchers = [publonsAddress]; // Add the publonsAddress as voucher.\n            } else {\n                review.verified = false;\n                review.vouchers = new address[](0); // Init empty array\n            }\n            userReviewsIdsMap[author].push(ids[i]);\n            emit ReviewAdded(author, ids[i]);\n        }\n    }\n\n    /// @notice Returns the Review belonging to the paramater address on the parameter index.\n    /// @dev Returns the Review struct as an ordered key value object. e.g. {0: 'JOURNALID', 1: ....}\n    /// @param id - id of the review.\n    /// @return journalId\n    /// @return manuscriptId\n    /// @return manuscriptHash\n    /// @return timestamp\n    /// @return recommendation\n    /// @return verified - bool that is true if 2 or more accounts vouched the review.\n    /// @return vouchers - the list of addresses that vouched this review.\n    // TODO: Can have another function to retrieve private information of _msgSender().\n    function getReview(string memory id)\n        public\n        view\n        returns (\n            string memory,\n            address,\n            string memory,\n            string memory,\n            string memory,\n            string memory,\n            uint32,\n            Recommendation,\n            string memory,\n            bool,\n            address[] memory\n        )\n    {\n        Review memory review = reviewsMap[id];\n        return (\n            review.id,\n            review.author,\n            review.journalId,\n            review.publisher,\n            review.manuscriptId,\n            review.manuscriptHash,\n            review.timestamp,\n            review.recommendation,\n            review.url,\n            review.verified,\n            review.vouchers\n        );\n    }\n\n    function getReviewsArrayOfUser(address addr)\n        public\n        view\n        returns (string[] memory)\n    {\n        return userReviewsIdsMap[addr];\n    }\n\n    function deleteReview(string memory id) public onlyByAuthor(id) {\n        Review storage review = reviewsMap[id];\n        uint32 index = review.index;\n        address author = review.author;\n        // from: https://ethereum.stackexchange.com/questions/1527/how-to-delete-an-element-at-a-certain-index-in-an-array\n        for (uint256 i = index; i < userReviewsIdsMap[author].length - 1; i++) {\n            userReviewsIdsMap[author][i] = userReviewsIdsMap[author][i + 1];\n        }\n        userReviewsIdsMap[author].length--;\n        emit ReviewDeleted(author, id);\n    }\n\n    /// @notice Function to vouch a Review at the given address and index.\n    /// @dev Assumes the voucher is the _msgSender(). Checks if the Review is already vouched by the same address.\n    /// @param id - id of the review\n    function vouchReview(string memory id) public onlyByOthers(id) {\n        // TODO: Can't vouch herself\n        address voucher = _msgSender(); // TODO: Avoid being vouched by a contract\n        Review storage review = reviewsMap[id];\n        if (review.vouchersMap[voucher] == false) {\n            // If not vouched by current voucher.\n            review.vouchers.push(voucher); // Add to vouchers.\n            review.vouchersMap[voucher] = true; // Mark voucher true.\n        }\n        if (review.vouchers.length == 1) {\n            review.verified = true;\n        }\n        emit ReviewVouched(voucher, id);\n    }\n\n    /// @notice Function to check if the Review at the given address and index is vouched by _msgSender()8i.\n    /// @dev Assumes the voucher is the _msgSender().\n    /// @param id - id of the review\n    /// @return bool showing that Review is vouched by the _msgSender().\n    function hasVouched(string memory id) public view returns (bool) {\n        address voucher = _msgSender();\n        Review storage review = reviewsMap[id];\n        return review.vouchersMap[voucher];\n    }\n\n    /// @notice Function to check if the Review at the given address and index is verified. I.e. vouched by 2 or more accounts.\n    /// @param id - id of the review\n    /// @return bool showing if Review is verified.\n    function isVerified(string memory id) public view returns (bool) {\n        Review storage review = reviewsMap[id];\n        return review.verified;\n    }\n\n    /// @notice Function to accept a gas station relayed call, can implement additional authentication - currently wide open\n\n    function acceptRelayedCall(\n        address relay,\n        address from,\n        bytes calldata encodedFunction,\n        uint256 transactionFee,\n        uint256 gasPrice,\n        uint256 gasLimit,\n        uint256 nonce,\n        bytes calldata approvalData,\n        uint256 maxPossibleCharge\n    ) external view returns (uint256, bytes memory) {\n        return _approveRelayedCall();\n    }\n\n    // We won't do any pre or post processing, so leave _preRelayedCall and _postRelayedCall empty\n    function _preRelayedCall(bytes memory context) internal returns (bytes32) {}\n\n    function _postRelayedCall(\n        bytes memory context,\n        bool,\n        uint256 actualCharge,\n        bytes32\n    ) internal {}\n}\n",
  "sourcePath": "/home/kuzdogan/Desktop/repos/peer-review-app/contracts/ReviewStorage.sol",
  "compiler": {
    "name": "solc",
    "version": "0.5.17+commit.d19bba13.Emscripten.clang"
  },
  "schemaVersion": "3.0.11",
  "updatedAt": "2020-05-23T10:59:30.971Z",
  "devdoc": {
    "methods": {
      "addReview(string,string,string,string,string,uint32,uint8,string)": {
        "details": "Assumes the owner(author) of the review is the _msgSender()",
        "params": {
          "id": "- Id of the review generated by the client.",
          "journalId": "- Typically ISSN number of the journal",
          "manuscriptHash": "- (Optional) Hash of the manuscript document",
          "manuscriptId": "- An identifier for the manuscript. This could be an internal id of a journal.",
          "publisher": "- The name of the publisher",
          "recommendation": "- 0,1 or 2 for ACCEPT, REVIEW, REJECT",
          "timestamp": "- uint32 Unix timestamp when review is published"
        }
      },
      "getHubAddr()": {
        "details": "Returns the address of the {IRelayHub} contract for this recipient."
      },
      "getReview(string)": {
        "details": "Returns the Review struct as an ordered key value object. e.g. {0: 'JOURNALID', 1: ....}",
        "params": {
          "id": "- id of the review."
        },
        "return": "journalIdmanuscriptIdmanuscriptHashtimestamprecommendationverified - bool that is true if 2 or more accounts vouched the review.vouchers - the list of addresses that vouched this review."
      },
      "hasVouched(string)": {
        "details": "Assumes the voucher is the _msgSender().",
        "params": {
          "id": "- id of the review"
        },
        "return": "bool showing that Review is vouched by the _msgSender()."
      },
      "isVerified(string)": {
        "params": {
          "id": "- id of the review"
        },
        "return": "bool showing if Review is verified."
      },
      "postRelayedCall(bytes,bool,uint256,bytes32)": {
        "details": "See `IRelayRecipient.postRelayedCall`.     * This function should not be overriden directly, use `_postRelayedCall` instead.     * * Requirements:     * - the caller must be the `RelayHub` contract."
      },
      "preRelayedCall(bytes)": {
        "details": "See `IRelayRecipient.preRelayedCall`.     * This function should not be overriden directly, use `_preRelayedCall` instead.     * * Requirements:     * - the caller must be the `RelayHub` contract."
      },
      "relayHubVersion()": {
        "details": "Returns the version string of the {IRelayHub} for which this recipient implementation was built. If {_upgradeRelayHub} is used, the new {IRelayHub} instance should be compatible with this version."
      },
      "vouchReview(string)": {
        "details": "Assumes the voucher is the _msgSender(). Checks if the Review is already vouched by the same address.",
        "params": {
          "id": "- id of the review"
        }
      }
    }
  },
  "userdoc": {
    "methods": {
      "acceptRelayedCall(address,address,bytes,uint256,uint256,uint256,uint256,bytes,uint256)": {
        "notice": "Function to accept a gas station relayed call, can implement additional authentication - currently wide open"
      },
      "addReview(string,string,string,string,string,uint32,uint8,string)": {
        "notice": "Public method to add a review."
      },
      "getReview(string)": {
        "notice": "Returns the Review belonging to the paramater address on the parameter index."
      },
      "hasVouched(string)": {
        "notice": "Function to check if the Review at the given address and index is vouched by _msgSender()8i."
      },
      "isVerified(string)": {
        "notice": "Function to check if the Review at the given address and index is verified. I.e. vouched by 2 or more accounts."
      },
      "vouchReview(string)": {
        "notice": "Function to vouch a Review at the given address and index."
      }
    }
  }
}