{
  "contractName": "ReviewStorage",
  "abi": [
    {
      "constant": false,
      "inputs": [
        {
          "name": "journalId",
          "type": "string"
        },
        {
          "name": "manuscriptId",
          "type": "string"
        },
        {
          "name": "timestamp",
          "type": "uint256"
        },
        {
          "name": "recommendation",
          "type": "uint8"
        }
      ],
      "name": "addReview",
      "outputs": [],
      "payable": false,
      "stateMutability": "nonpayable",
      "type": "function"
    },
    {
      "constant": true,
      "inputs": [
        {
          "name": "i",
          "type": "uint8"
        }
      ],
      "name": "getReview",
      "outputs": [
        {
          "name": "",
          "type": "string"
        },
        {
          "name": "",
          "type": "string"
        },
        {
          "name": "",
          "type": "uint256"
        },
        {
          "name": "",
          "type": "uint8"
        }
      ],
      "payable": false,
      "stateMutability": "view",
      "type": "function"
    },
    {
      "constant": true,
      "inputs": [
        {
          "name": "i",
          "type": "uint8"
        }
      ],
      "name": "getNumber",
      "outputs": [
        {
          "name": "",
          "type": "uint256"
        }
      ],
      "payable": false,
      "stateMutability": "view",
      "type": "function"
    }
  ],
  "bytecode": "0x608060405234801561001057600080fd5b506107f1806100206000396000f3fe608060405234801561001057600080fd5b50600436106100415760003560e01c80630163fb9914610046578063d9b27a71146101af578063df864adb146102e1575b600080fd5b6101ad6004803603608081101561005c57600080fd5b810190808035906020019064010000000081111561007957600080fd5b82018360208201111561008b57600080fd5b803590602001918460018302840111640100000000831117156100ad57600080fd5b91908080601f016020809104026020016040519081016040528093929190818152602001838380828437600081840152601f19601f8201169050808301925050505050505091929192908035906020019064010000000081111561011057600080fd5b82018360208201111561012257600080fd5b8035906020019184600183028401116401000000008311171561014457600080fd5b91908080601f016020809104026020016040519081016040528093929190818152602001838380828437600081840152601f19601f82011690508083019250505050505050919291929080359060200190929190803560ff169060200190929190505050610326565b005b6101de600480360360208110156101c557600080fd5b81019080803560ff169060200190929190505050610444565b6040518080602001806020018581526020018460028111156101fc57fe5b60ff168152602001838103835287818151815260200191508051906020019080838360005b8381101561023c578082015181840152602081019050610221565b50505050905090810190601f1680156102695780820380516001836020036101000a031916815260200191505b50838103825286818151815260200191508051906020019080838360005b838110156102a2578082015181840152602081019050610287565b50505050905090810190601f1680156102cf5780820380516001836020036101000a031916815260200191505b50965050505050505060405180910390f35b610310600480360360208110156102f757600080fd5b81019080803560ff1690602001909291905050506106e0565b6040518082815260200191505060405180910390f35b60003390506103336106ed565b604051806080016040528087815260200186815260200185815260200184600281111561035c57fe5b8152509050600160008373ffffffffffffffffffffffffffffffffffffffff1673ffffffffffffffffffffffffffffffffffffffff168152602001908152602001600020819080600181540180825580915050906001820390600052602060002090600402016000909192909190915060008201518160000190805190602001906103e8929190610720565b506020820151816001019080519060200190610405929190610720565b506040820151816002015560608201518160030160006101000a81548160ff0219169083600281111561043457fe5b0217905550505050505050505050565b6060806000806060600160003373ffffffffffffffffffffffffffffffffffffffff1673ffffffffffffffffffffffffffffffffffffffff168152602001908152602001600020805480602002602001604051908101604052809291908181526020016000905b828210156106585783829060005260206000209060040201604051806080016040529081600082018054600181600116156101000203166002900480601f0160208091040260200160405190810160405280929190818152602001828054600181600116156101000203166002900480156105675780601f1061053c57610100808354040283529160200191610567565b820191906000526020600020905b81548152906001019060200180831161054a57829003601f168201915b50505050508152602001600182018054600181600116156101000203166002900480601f0160208091040260200160405190810160405280929190818152602001828054600181600116156101000203166002900480156106095780601f106105de57610100808354040283529160200191610609565b820191906000526020600020905b8154815290600101906020018083116105ec57829003601f168201915b50505050508152602001600282015481526020016003820160009054906101000a900460ff16600281111561063a57fe5b600281111561064557fe5b81525050815260200190600101906104ab565b505050509050808660ff168151811061066d57fe5b602002602001015160000151818760ff168151811061068857fe5b602002602001015160200151828860ff16815181106106a357fe5b602002602001015160400151838960ff16815181106106be57fe5b6020026020010151606001518393508292509450945094509450509193509193565b60008160ff169050919050565b60405180608001604052806060815260200160608152602001600081526020016000600281111561071a57fe5b81525090565b828054600181600116156101000203166002900490600052602060002090601f016020900481019282601f1061076157805160ff191683800117855561078f565b8280016001018555821561078f579182015b8281111561078e578251825591602001919060010190610773565b5b50905061079c91906107a0565b5090565b6107c291905b808211156107be5760008160009055506001016107a6565b5090565b9056fea165627a7a723058200a0a0eeee3e817288352405ed65da97a1800376d9712b8aac0aed9de01dcefe40029",
  "source": "pragma solidity ^0.5.0;\n\ncontract ReviewStorage {\n  address[] usersAddresses;\n  enum Recommendation { ACCEPT, REVISE, REJECT }\n  struct Review { \n    string journalId; // ISSN\n    string manuscriptId; // DOI?\n    uint timestamp; // Timestamp since unix epoch, when review is published\n    Recommendation recommendation;\n  }\n  mapping (address => Review[]) reviewsMap;\n  \n  function addReview(string memory journalId, string memory manuscriptId, uint timestamp, \n    Recommendation recommendation) public {\n    address sender = msg.sender;\n    Review memory review = Review({\n      journalId : journalId,\n      manuscriptId : manuscriptId,\n      timestamp : timestamp,\n      recommendation : recommendation\n    });\n    reviewsMap[sender].push(review);\n  }\n  // function getReviews()\n  function getReview(uint8 i) public view returns (string memory, string memory, uint, Recommendation) {\n    Review[] memory reviews = reviewsMap[msg.sender];\n    return (reviews[i].journalId, reviews[i].manuscriptId,\n      reviews[i].timestamp, reviews[i].recommendation);\n  }\n  function getNumber(uint8 i) public view returns (uint) {\n    return (i);\n  }\n  // function verifyReview()\n}\n",
  "sourcePath": "/home/kuzdogan/Desktop/repos/bloxbergPeerReview/contracts/ReviewStorage.sol",
  "compiler": {
    "name": "solc",
    "version": "0.5.8+commit.23d335f2.Emscripten.clang"
  },
  "schemaVersion": "3.0.11",
  "updatedAt": "2019-10-07T14:54:08.798Z",
  "devdoc": {
    "methods": {}
  },
  "userdoc": {
    "methods": {}
  }
}