{
  "fileName": "ReviewStorage.sol",
  "contractName": "ReviewStorage",
  "source": "pragma solidity ^0.5.6;\npragma experimental ABIEncoderV2;\n\n/// @title A smart contract for storing peer reviews\n/// @author Kaan Uzdogan uzdogan@mpdl.mpg.de\n/// @notice\n/// @dev\n\nimport \"@openzeppelin/contracts-ethereum-package/contracts/GSN/GSNRecipient.sol\";\n\ncontract ReviewStorage is GSNRecipient {\n    event ReviewAdded(address indexed from, string id);\n    event ReviewDeleted(address indexed from, string id);\n    event ReviewVouched(address indexed from, string id);\n    address publonsAddress;\n    enum Recommendation {NULL, ACCEPT, REVISE, REJECT}\n    struct Review {\n        string id;\n        uint32 index; // index in the array of review ids from userReviewsIdsMap[<address>]\n        address author;\n        string journalId; // ISSN\n        string publisher; // Publisher Name\n        string manuscriptId; // DOI?\n        string manuscriptHash;\n        string reviewHash; // Hash of the review file (e.g. PDF)\n        uint32 timestamp; // Unix time (32 bits), when review is published\n        Recommendation recommendation;\n        string url;\n        bool verified;\n        address[] vouchers;\n        mapping(address => bool) vouchersMap; // Check if vouched by a certain address.\n    }\n    // Mapping from Review ids to Reviews.\n    mapping(string => Review) reviewsMap;\n    // Mapping from user address to an array of review Ids.\n    mapping(address => string[]) userReviewsIdsMap;\n\n    // Initialize for GSN.\n    function initialize() public initializer {\n        GSNRecipient.initialize();\n        publonsAddress = 0x14B3a00C89BDdB6C0577E518FCA87eC19b1b2311;\n    }\n\n    modifier onlyByAuthor(string memory id) {\n        require(\n            reviewsMap[id].author == _msgSender(),\n            \"Operation permitted for the author of the review only.\"\n        );\n        _;\n    }\n\n    modifier onlyByOthers(string memory id) {\n        require(\n            reviewsMap[id].author != _msgSender(),\n            \"Operation not permitted for the author of the review.\"\n        );\n        _;\n    }\n\n    /// @notice Public method to add a review.\n    /// @dev Assumes the owner(author) of the review is the _msgSender()\n    /// @param id - Id of the review generated by the client.\n    /// @param journalId - Typically ISSN number of the journal\n    /// @param publisher - The name of the publisher\n    /// @param manuscriptId - An identifier for the manuscript. This could be an internal id of a journal.\n    /// @param manuscriptHash - (Optional) Hash of the manuscript document\n    /// @param timestamp - uint32 Unix timestamp when review is published\n    /// @param recommendation - 0,1 or 2 for ACCEPT, REVIEW, REJECT\n    function addReview(\n        string memory id,\n        string memory journalId,\n        string memory publisher,\n        string memory manuscriptId,\n        string memory manuscriptHash,\n        string memory reviewHash,\n        uint32 timestamp,\n        Recommendation recommendation,\n        string memory url\n    ) public {\n        address author = _msgSender();\n        uint32 index = uint32(userReviewsIdsMap[author].length);\n\n        Review memory review = Review({\n            id: id,\n            index: index,\n            author: author,\n            journalId: journalId,\n            publisher: publisher,\n            manuscriptId: manuscriptId,\n            manuscriptHash: manuscriptHash,\n            reviewHash: reviewHash,\n            timestamp: timestamp,\n            recommendation: recommendation,\n            url: url,\n            verified: false,\n            vouchers: new address[](0) // Init empty array\n        });\n        reviewsMap[id] = review;\n        userReviewsIdsMap[author].push(id);\n        emit ReviewAdded(author, id);\n    }\n\n    function addMultipleReviews(\n        string[] memory ids,\n        string[] memory journalIds,\n        string[] memory publishers,\n        string[] memory manuscriptIds,\n        string[] memory manuscriptHashes,\n        string[] memory reviewHashes,\n        uint32[] memory timestamps,\n        Recommendation[] memory recommendations,\n        string[] memory urls\n    ) public {\n        require(\n            ids.length == journalIds.length &&\n                journalIds.length == publishers.length &&\n                publishers.length == manuscriptIds.length &&\n                manuscriptIds.length == manuscriptHashes.length &&\n                manuscriptHashes.length == reviewHashes.length &&\n                reviewHashes.length == timestamps.length &&\n                timestamps.length == recommendations.length &&\n                recommendations.length == urls.length,\n            \"Parameter lengths dont match\"\n        );\n        uint24 length = uint24(journalIds.length);\n        address author = _msgSender();\n        uint32 index = uint32(userReviewsIdsMap[author].length);\n\n        for (uint32 i = 0; i < length; i++) {\n            Review storage review = reviewsMap[ids[i]];\n            review.id = ids[i];\n            review.index = index + i;\n            review.author = author;\n            review.journalId = journalIds[i];\n            review.publisher = publishers[i];\n            review.manuscriptId = manuscriptIds[i];\n            review.manuscriptHash = manuscriptHashes[i];\n            review.reviewHash = reviewHashes[i];\n            review.timestamp = timestamps[i];\n            review.recommendation = recommendations[i];\n            review.url = urls[i];\n            review.verified = false;\n            review.vouchers = new address[](0); // Init empty array\n            userReviewsIdsMap[author].push(ids[i]);\n            emit ReviewAdded(author, ids[i]);\n        }\n    }\n\n    // TODO: REFACTOR, Repeating the code above.\n    function addMultipleReviewsAndVerifyByPublons(\n        string[] memory ids,\n        string[] memory journalIds,\n        string[] memory publishers,\n        string[] memory manuscriptIds,\n        string[] memory manuscriptHashes,\n        string[] memory reviewHashes,\n        uint32[] memory timestamps,\n        Recommendation[] memory recommendations,\n        string[] memory urls,\n        bool[] memory verifieds\n    ) public {\n        require(\n            ids.length == journalIds.length &&\n                journalIds.length == publishers.length &&\n                publishers.length == manuscriptIds.length &&\n                manuscriptIds.length == manuscriptHashes.length &&\n                manuscriptHashes.length == reviewHashes.length &&\n                reviewHashes.length == timestamps.length &&\n                timestamps.length == recommendations.length &&\n                recommendations.length == urls.length &&\n                urls.length == verifieds.length,\n            \"Parameter lengths dont match\"\n        );\n        uint24 length = uint24(journalIds.length);\n        uint32 index = uint32(userReviewsIdsMap[_msgSender()].length);\n\n        for (uint32 i = 0; i < length; i++) {\n            Review storage review = reviewsMap[ids[i]];\n            review.id = ids[i];\n            review.index = index + i;\n            review.author = _msgSender();\n            review.journalId = journalIds[i];\n            review.publisher = publishers[i];\n            review.manuscriptId = manuscriptIds[i];\n            review.manuscriptHash = manuscriptHashes[i];\n            review.reviewHash = reviewHashes[i];\n            review.timestamp = timestamps[i];\n            review.recommendation = recommendations[i];\n            review.url = urls[i];\n            if (verifieds[i]) {\n                review.verified = true;\n                review.vouchers = [publonsAddress]; // Add the publonsAddress as voucher.\n            } else {\n                review.verified = false;\n                review.vouchers = new address[](0); // Init empty array\n            }\n            userReviewsIdsMap[_msgSender()].push(ids[i]);\n            emit ReviewAdded(_msgSender(), ids[i]);\n        }\n    }\n\n    /// @notice Returns the Review belonging to the paramater address on the parameter index.\n    /// @dev Returns the Review struct as an ordered key value object. e.g. {0: 'JOURNALID', 1: ....}\n    /// @param id - id of the review.\n    /// @return journalId\n    /// @return manuscriptId\n    /// @return manuscriptHash\n    /// @return timestamp\n    /// @return recommendation\n    /// @return verified - bool that is true if 2 or more accounts vouched the review.\n    /// @return vouchers - the list of addresses that vouched this review.\n    // TODO: Can have another function to retrieve private information of _msgSender().\n    function getReview(string memory id)\n        public\n        view\n        returns (\n            string memory,\n            address,\n            string memory,\n            string memory,\n            string memory,\n            string memory,\n            string memory,\n            uint32,\n            Recommendation,\n            string memory,\n            bool,\n            address[] memory\n        )\n    {\n        Review memory review = reviewsMap[id];\n        return (\n            review.id,\n            review.author,\n            review.journalId,\n            review.publisher,\n            review.manuscriptId,\n            review.manuscriptHash,\n            review.reviewHash,\n            review.timestamp,\n            review.recommendation,\n            review.url,\n            review.verified,\n            review.vouchers\n        );\n    }\n\n    function getReviewsArrayOfUser(address addr)\n        public\n        view\n        returns (string[] memory)\n    {\n        return userReviewsIdsMap[addr];\n    }\n\n    function deleteReview(string memory id) public onlyByAuthor(id) {\n        Review storage review = reviewsMap[id];\n        uint32 index = review.index;\n        address author = review.author;\n        // from: https://ethereum.stackexchange.com/questions/1527/how-to-delete-an-element-at-a-certain-index-in-an-array\n        for (uint256 i = index; i < userReviewsIdsMap[author].length - 1; i++) {\n            userReviewsIdsMap[author][i] = userReviewsIdsMap[author][i + 1];\n        }\n        userReviewsIdsMap[author].length--;\n        emit ReviewDeleted(author, id);\n    }\n\n    /// @notice Function to vouch a Review at the given address and index.\n    /// @dev Assumes the voucher is the _msgSender(). Checks if the Review is already vouched by the same address.\n    /// @param id - id of the review\n    function vouchReview(string memory id) public onlyByOthers(id) {\n        // TODO: Can't vouch herself\n        address voucher = _msgSender(); // TODO: Avoid being vouched by a contract\n        Review storage review = reviewsMap[id];\n        if (review.vouchersMap[voucher] == false) {\n            // If not vouched by current voucher.\n            review.vouchers.push(voucher); // Add to vouchers.\n            review.vouchersMap[voucher] = true; // Mark voucher true.\n        }\n        if (review.vouchers.length == 1) {\n            review.verified = true;\n        }\n        emit ReviewVouched(voucher, id);\n    }\n\n    /// @notice Function to check if the Review at the given address and index is vouched by _msgSender()8i.\n    /// @dev Assumes the voucher is the _msgSender().\n    /// @param id - id of the review\n    /// @return bool showing that Review is vouched by the _msgSender().\n    function hasVouched(string memory id) public view returns (bool) {\n        address voucher = _msgSender();\n        Review storage review = reviewsMap[id];\n        return review.vouchersMap[voucher];\n    }\n\n    /// @notice Function to check if the Review at the given address and index is verified. I.e. vouched by 2 or more accounts.\n    /// @param id - id of the review\n    /// @return bool showing if Review is verified.\n    function isVerified(string memory id) public view returns (bool) {\n        Review storage review = reviewsMap[id];\n        return review.verified;\n    }\n\n    /// @notice Function to accept a gas station relayed call, can implement additional authentication - currently wide open\n\n    function acceptRelayedCall(\n        address relay,\n        address from,\n        bytes calldata encodedFunction,\n        uint256 transactionFee,\n        uint256 gasPrice,\n        uint256 gasLimit,\n        uint256 nonce,\n        bytes calldata approvalData,\n        uint256 maxPossibleCharge\n    ) external view returns (uint256, bytes memory) {\n        return _approveRelayedCall();\n    }\n\n    // We won't do any pre or post processing, so leave _preRelayedCall and _postRelayedCall empty\n    function _preRelayedCall(bytes memory context) internal returns (bytes32) {}\n\n    function _postRelayedCall(\n        bytes memory context,\n        bool,\n        uint256 actualCharge,\n        bytes32\n    ) internal {}\n}\n",
  "sourcePath": "contracts/ReviewStorage.sol",
  "abi": [
    {
      "anonymous": false,
      "inputs": [
        {
          "indexed": true,
          "internalType": "address",
          "name": "oldRelayHub",
          "type": "address"
        },
        {
          "indexed": true,
          "internalType": "address",
          "name": "newRelayHub",
          "type": "address"
        }
      ],
      "name": "RelayHubChanged",
      "type": "event"
    },
    {
      "anonymous": false,
      "inputs": [
        {
          "indexed": true,
          "internalType": "address",
          "name": "from",
          "type": "address"
        },
        {
          "indexed": false,
          "internalType": "string",
          "name": "id",
          "type": "string"
        }
      ],
      "name": "ReviewAdded",
      "type": "event"
    },
    {
      "anonymous": false,
      "inputs": [
        {
          "indexed": true,
          "internalType": "address",
          "name": "from",
          "type": "address"
        },
        {
          "indexed": false,
          "internalType": "string",
          "name": "id",
          "type": "string"
        }
      ],
      "name": "ReviewDeleted",
      "type": "event"
    },
    {
      "anonymous": false,
      "inputs": [
        {
          "indexed": true,
          "internalType": "address",
          "name": "from",
          "type": "address"
        },
        {
          "indexed": false,
          "internalType": "string",
          "name": "id",
          "type": "string"
        }
      ],
      "name": "ReviewVouched",
      "type": "event"
    },
    {
      "constant": true,
      "inputs": [
        {
          "internalType": "address",
          "name": "relay",
          "type": "address"
        },
        {
          "internalType": "address",
          "name": "from",
          "type": "address"
        },
        {
          "internalType": "bytes",
          "name": "encodedFunction",
          "type": "bytes"
        },
        {
          "internalType": "uint256",
          "name": "transactionFee",
          "type": "uint256"
        },
        {
          "internalType": "uint256",
          "name": "gasPrice",
          "type": "uint256"
        },
        {
          "internalType": "uint256",
          "name": "gasLimit",
          "type": "uint256"
        },
        {
          "internalType": "uint256",
          "name": "nonce",
          "type": "uint256"
        },
        {
          "internalType": "bytes",
          "name": "approvalData",
          "type": "bytes"
        },
        {
          "internalType": "uint256",
          "name": "maxPossibleCharge",
          "type": "uint256"
        }
      ],
      "name": "acceptRelayedCall",
      "outputs": [
        {
          "internalType": "uint256",
          "name": "",
          "type": "uint256"
        },
        {
          "internalType": "bytes",
          "name": "",
          "type": "bytes"
        }
      ],
      "payable": false,
      "stateMutability": "view",
      "type": "function"
    },
    {
      "constant": false,
      "inputs": [
        {
          "internalType": "string[]",
          "name": "ids",
          "type": "string[]"
        },
        {
          "internalType": "string[]",
          "name": "journalIds",
          "type": "string[]"
        },
        {
          "internalType": "string[]",
          "name": "publishers",
          "type": "string[]"
        },
        {
          "internalType": "string[]",
          "name": "manuscriptIds",
          "type": "string[]"
        },
        {
          "internalType": "string[]",
          "name": "manuscriptHashes",
          "type": "string[]"
        },
        {
          "internalType": "string[]",
          "name": "reviewHashes",
          "type": "string[]"
        },
        {
          "internalType": "uint32[]",
          "name": "timestamps",
          "type": "uint32[]"
        },
        {
          "internalType": "enum ReviewStorage.Recommendation[]",
          "name": "recommendations",
          "type": "uint8[]"
        },
        {
          "internalType": "string[]",
          "name": "urls",
          "type": "string[]"
        }
      ],
      "name": "addMultipleReviews",
      "outputs": [],
      "payable": false,
      "stateMutability": "nonpayable",
      "type": "function"
    },
    {
      "constant": false,
      "inputs": [
        {
          "internalType": "string[]",
          "name": "ids",
          "type": "string[]"
        },
        {
          "internalType": "string[]",
          "name": "journalIds",
          "type": "string[]"
        },
        {
          "internalType": "string[]",
          "name": "publishers",
          "type": "string[]"
        },
        {
          "internalType": "string[]",
          "name": "manuscriptIds",
          "type": "string[]"
        },
        {
          "internalType": "string[]",
          "name": "manuscriptHashes",
          "type": "string[]"
        },
        {
          "internalType": "string[]",
          "name": "reviewHashes",
          "type": "string[]"
        },
        {
          "internalType": "uint32[]",
          "name": "timestamps",
          "type": "uint32[]"
        },
        {
          "internalType": "enum ReviewStorage.Recommendation[]",
          "name": "recommendations",
          "type": "uint8[]"
        },
        {
          "internalType": "string[]",
          "name": "urls",
          "type": "string[]"
        },
        {
          "internalType": "bool[]",
          "name": "verifieds",
          "type": "bool[]"
        }
      ],
      "name": "addMultipleReviewsAndVerifyByPublons",
      "outputs": [],
      "payable": false,
      "stateMutability": "nonpayable",
      "type": "function"
    },
    {
      "constant": false,
      "inputs": [
        {
          "internalType": "string",
          "name": "id",
          "type": "string"
        },
        {
          "internalType": "string",
          "name": "journalId",
          "type": "string"
        },
        {
          "internalType": "string",
          "name": "publisher",
          "type": "string"
        },
        {
          "internalType": "string",
          "name": "manuscriptId",
          "type": "string"
        },
        {
          "internalType": "string",
          "name": "manuscriptHash",
          "type": "string"
        },
        {
          "internalType": "string",
          "name": "reviewHash",
          "type": "string"
        },
        {
          "internalType": "uint32",
          "name": "timestamp",
          "type": "uint32"
        },
        {
          "internalType": "enum ReviewStorage.Recommendation",
          "name": "recommendation",
          "type": "uint8"
        },
        {
          "internalType": "string",
          "name": "url",
          "type": "string"
        }
      ],
      "name": "addReview",
      "outputs": [],
      "payable": false,
      "stateMutability": "nonpayable",
      "type": "function"
    },
    {
      "constant": false,
      "inputs": [
        {
          "internalType": "string",
          "name": "id",
          "type": "string"
        }
      ],
      "name": "deleteReview",
      "outputs": [],
      "payable": false,
      "stateMutability": "nonpayable",
      "type": "function"
    },
    {
      "constant": true,
      "inputs": [],
      "name": "getHubAddr",
      "outputs": [
        {
          "internalType": "address",
          "name": "",
          "type": "address"
        }
      ],
      "payable": false,
      "stateMutability": "view",
      "type": "function"
    },
    {
      "constant": true,
      "inputs": [
        {
          "internalType": "string",
          "name": "id",
          "type": "string"
        }
      ],
      "name": "getReview",
      "outputs": [
        {
          "internalType": "string",
          "name": "",
          "type": "string"
        },
        {
          "internalType": "address",
          "name": "",
          "type": "address"
        },
        {
          "internalType": "string",
          "name": "",
          "type": "string"
        },
        {
          "internalType": "string",
          "name": "",
          "type": "string"
        },
        {
          "internalType": "string",
          "name": "",
          "type": "string"
        },
        {
          "internalType": "string",
          "name": "",
          "type": "string"
        },
        {
          "internalType": "string",
          "name": "",
          "type": "string"
        },
        {
          "internalType": "uint32",
          "name": "",
          "type": "uint32"
        },
        {
          "internalType": "enum ReviewStorage.Recommendation",
          "name": "",
          "type": "uint8"
        },
        {
          "internalType": "string",
          "name": "",
          "type": "string"
        },
        {
          "internalType": "bool",
          "name": "",
          "type": "bool"
        },
        {
          "internalType": "address[]",
          "name": "",
          "type": "address[]"
        }
      ],
      "payable": false,
      "stateMutability": "view",
      "type": "function"
    },
    {
      "constant": true,
      "inputs": [
        {
          "internalType": "address",
          "name": "addr",
          "type": "address"
        }
      ],
      "name": "getReviewsArrayOfUser",
      "outputs": [
        {
          "internalType": "string[]",
          "name": "",
          "type": "string[]"
        }
      ],
      "payable": false,
      "stateMutability": "view",
      "type": "function"
    },
    {
      "constant": true,
      "inputs": [
        {
          "internalType": "string",
          "name": "id",
          "type": "string"
        }
      ],
      "name": "hasVouched",
      "outputs": [
        {
          "internalType": "bool",
          "name": "",
          "type": "bool"
        }
      ],
      "payable": false,
      "stateMutability": "view",
      "type": "function"
    },
    {
      "constant": false,
      "inputs": [],
      "name": "initialize",
      "outputs": [],
      "payable": false,
      "stateMutability": "nonpayable",
      "type": "function"
    },
    {
      "constant": true,
      "inputs": [
        {
          "internalType": "string",
          "name": "id",
          "type": "string"
        }
      ],
      "name": "isVerified",
      "outputs": [
        {
          "internalType": "bool",
          "name": "",
          "type": "bool"
        }
      ],
      "payable": false,
      "stateMutability": "view",
      "type": "function"
    },
    {
      "constant": false,
      "inputs": [
        {
          "internalType": "bytes",
          "name": "context",
          "type": "bytes"
        },
        {
          "internalType": "bool",
          "name": "success",
          "type": "bool"
        },
        {
          "internalType": "uint256",
          "name": "actualCharge",
          "type": "uint256"
        },
        {
          "internalType": "bytes32",
          "name": "preRetVal",
          "type": "bytes32"
        }
      ],
      "name": "postRelayedCall",
      "outputs": [],
      "payable": false,
      "stateMutability": "nonpayable",
      "type": "function"
    },
    {
      "constant": false,
      "inputs": [
        {
          "internalType": "bytes",
          "name": "context",
          "type": "bytes"
        }
      ],
      "name": "preRelayedCall",
      "outputs": [
        {
          "internalType": "bytes32",
          "name": "",
          "type": "bytes32"
        }
      ],
      "payable": false,
      "stateMutability": "nonpayable",
      "type": "function"
    },
    {
      "constant": true,
      "inputs": [],
      "name": "relayHubVersion",
      "outputs": [
        {
          "internalType": "string",
          "name": "",
          "type": "string"
        }
      ],
      "payable": false,
      "stateMutability": "view",
      "type": "function"
    },
    {
      "constant": false,
      "inputs": [],
      "name": "setDefaultRelayHub",
      "outputs": [],
      "payable": false,
      "stateMutability": "nonpayable",
      "type": "function"
    },
    {
      "constant": false,
      "inputs": [
        {
          "internalType": "string",
          "name": "id",
          "type": "string"
        }
      ],
      "name": "vouchReview",
      "outputs": [],
      "payable": false,
      "stateMutability": "nonpayable",
      "type": "function"
    }
  ],
  "bytecode": "0x60806040526142c1806100136000396000f3fe608060405234801561001057600080fd5b50600436106101005760003560e01c80639afc912411610097578063b61873cf11610066578063b61873cf146102a5578063e06e0e22146102d5578063e46161ad146102f1578063f6f5948b1461030d57610100565b80639afc912414610214578063a47be80014610230578063ad61ccd51461024c578063b444dc751461026a57610100565b80637af60294116100d35780637af602941461018d57806380274db7146101a95780638129fc1c146101d957806383947ea0146101e357610100565b80631220e2ff14610105578063169013011461010f578063234c76d51461013f57806374e861d61461016f575b600080fd5b61010d610329565b005b61012960048036036101249190810190612fdf565b610348565b6040516101369190613c80565b60405180910390f35b61015960048036036101549190810190613536565b610470565b6040516101669190613ca2565b60405180910390f35b6101776104ad565b6040516101849190613c65565b60405180910390f35b6101a760048036036101a29190810190613577565b6104d7565b005b6101c360048036036101be9190810190613471565b6108b1565b6040516101d09190613cbd565b60405180910390f35b6101e161097d565b005b6101fd60048036036101f89190810190613008565b610ac3565b60405161020b929190613eee565b60405180910390f35b61022e60048036036102299190810190613536565b610ae3565b005b61024a60048036036102459190810190613536565b610d69565b005b61025461105e565b6040516102619190613cfa565b60405180910390f35b610284600480360361027f9190810190613536565b61109b565b60405161029c9c9b9a99989796959493929190613d1c565b60405180910390f35b6102bf60048036036102ba9190810190613536565b61174b565b6040516102cc9190613ca2565b60405180910390f35b6102ef60048036036102ea91908101906134b6565b6117d2565b005b61030b60048036036103069190810190613108565b61189e565b005b610327600480360361032291908101906132a6565b611da9565b005b61034673d216153c06e857cd7f72665e0af1d7d82172f494612383565b565b6060603660008373ffffffffffffffffffffffffffffffffffffffff1673ffffffffffffffffffffffffffffffffffffffff168152602001908152602001600020805480602002602001604051908101604052809291908181526020016000905b82821015610465578382906000526020600020018054600181600116156101000203166002900480601f0160208091040260200160405190810160405280929190818152602001828054600181600116156101000203166002900480156104515780601f1061042657610100808354040283529160200191610451565b820191906000526020600020905b81548152906001019060200180831161043457829003601f168201915b5050505050815260200190600101906103a9565b505050509050919050565b6000806035836040516104839190613c4e565b908152602001604051809103902090508060090160009054906101000a900460ff16915050919050565b6000603360009054906101000a900473ffffffffffffffffffffffffffffffffffffffff16905090565b60006104e1612528565b90506000603660008373ffffffffffffffffffffffffffffffffffffffff1673ffffffffffffffffffffffffffffffffffffffff1681526020019081526020016000208054905090506105326127ae565b604051806101a001604052808d81526020018363ffffffff1681526020018473ffffffffffffffffffffffffffffffffffffffff1681526020018c81526020018b81526020018a81526020018981526020018881526020018763ffffffff1681526020018660038111156105a257fe5b815260200185815260200160001515815260200160006040519080825280602002602001820160405280156105e65781602001602082028038833980820191505090505b5081525090508060358d6040516105fd9190613c4e565b90815260200160405180910390206000820151816000019080519060200190610627929190612845565b5060208201518160010160006101000a81548163ffffffff021916908363ffffffff16021790555060408201518160010160046101000a81548173ffffffffffffffffffffffffffffffffffffffff021916908373ffffffffffffffffffffffffffffffffffffffff16021790555060608201518160020190805190602001906106b2929190612845565b5060808201518160030190805190602001906106cf929190612845565b5060a08201518160040190805190602001906106ec929190612845565b5060c0820151816005019080519060200190610709929190612845565b5060e0820151816006019080519060200190610726929190612845565b506101008201518160070160006101000a81548163ffffffff021916908363ffffffff1602179055506101208201518160070160046101000a81548160ff0219169083600381111561077457fe5b0217905550610140820151816008019080519060200190610796929190612845565b506101608201518160090160006101000a81548160ff02191690831515021790555061018082015181600a0190805190602001906107d59291906128c5565b50905050603660008473ffffffffffffffffffffffffffffffffffffffff1673ffffffffffffffffffffffffffffffffffffffff1681526020019081526020016000208c908060018154018082558091505090600182039060005260206000200160009091929091909150908051906020019061085392919061294f565b50508273ffffffffffffffffffffffffffffffffffffffff167f735a8465cb95c1119a0a9c5bfe794f848896e77bf9ba97f9115c49a08e5b54eb8d60405161089b9190613cfa565b60405180910390a2505050505050505050505050565b60006108bb6104ad565b73ffffffffffffffffffffffffffffffffffffffff163373ffffffffffffffffffffffffffffffffffffffff1614610928576040517f08c379a000000000000000000000000000000000000000000000000000000000815260040161091f90613ece565b60405180910390fd5b61097583838080601f016020809104026020016040519081016040528093929190818152602001838380828437600081840152601f19601f82011690508083019250505050505050612595565b905092915050565b600060019054906101000a900460ff168061099c575061099b61259c565b5b806109b357506000809054906101000a900460ff16155b6109f2576040517f08c379a00000000000000000000000000000000000000000000000000000000081526004016109e990613e8e565b60405180910390fd5b60008060019054906101000a900460ff161590508015610a42576001600060016101000a81548160ff02191690831515021790555060016000806101000a81548160ff0219169083151502179055505b610a4a6125b3565b7314b3a00c89bddb6c0577e518fca87ec19b1b2311603460006101000a81548173ffffffffffffffffffffffffffffffffffffffff021916908373ffffffffffffffffffffffffffffffffffffffff1602179055508015610ac05760008060016101000a81548160ff0219169083151502179055505b50565b60006060610acf6126fc565b915091509b509b9950505050505050505050565b80610aec612528565b73ffffffffffffffffffffffffffffffffffffffff16603582604051610b129190613c4e565b908152602001604051809103902060010160049054906101000a900473ffffffffffffffffffffffffffffffffffffffff1673ffffffffffffffffffffffffffffffffffffffff161415610b9b576040517f08c379a0000000000000000000000000000000000000000000000000000000008152600401610b9290613e0e565b60405180910390fd5b6000610ba5612528565b90506000603584604051610bb99190613c4e565b908152602001604051809103902090506000151581600b0160008473ffffffffffffffffffffffffffffffffffffffff1673ffffffffffffffffffffffffffffffffffffffff16815260200190815260200160002060009054906101000a900460ff1615151415610ce75780600a018290806001815401808255809150509060018203906000526020600020016000909192909190916101000a81548173ffffffffffffffffffffffffffffffffffffffff021916908373ffffffffffffffffffffffffffffffffffffffff16021790555050600181600b0160008473ffffffffffffffffffffffffffffffffffffffff1673ffffffffffffffffffffffffffffffffffffffff16815260200190815260200160002060006101000a81548160ff0219169083151502179055505b600181600a01805490501415610d155760018160090160006101000a81548160ff0219169083151502179055505b8173ffffffffffffffffffffffffffffffffffffffff167fd711a413c20a3ad10703b8530d027f633ff441c124e9dd328480b8e2070b496185604051610d5b9190613cfa565b60405180910390a250505050565b80610d72612528565b73ffffffffffffffffffffffffffffffffffffffff16603582604051610d989190613c4e565b908152602001604051809103902060010160049054906101000a900473ffffffffffffffffffffffffffffffffffffffff1673ffffffffffffffffffffffffffffffffffffffff1614610e20576040517f08c379a0000000000000000000000000000000000000000000000000000000008152600401610e1790613e6e565b60405180910390fd5b6000603583604051610e329190613c4e565b9081526020016040518091039020905060008160010160009054906101000a900463ffffffff16905060008260010160049054906101000a900473ffffffffffffffffffffffffffffffffffffffff16905060008263ffffffff1690505b6001603660008473ffffffffffffffffffffffffffffffffffffffff1673ffffffffffffffffffffffffffffffffffffffff1681526020019081526020016000208054905003811015610fb557603660008373ffffffffffffffffffffffffffffffffffffffff1673ffffffffffffffffffffffffffffffffffffffff1681526020019081526020016000206001820181548110610f2a57fe5b90600052602060002001603660008473ffffffffffffffffffffffffffffffffffffffff1673ffffffffffffffffffffffffffffffffffffffff1681526020019081526020016000208281548110610f7e57fe5b906000526020600020019080546001816001161561010002031660029004610fa79291906129cf565b508080600101915050610e90565b50603660008273ffffffffffffffffffffffffffffffffffffffff1673ffffffffffffffffffffffffffffffffffffffff1681526020019081526020016000208054809190600190036110089190612a56565b508073ffffffffffffffffffffffffffffffffffffffff167ff8611cc11b4db806ae78ddde333ca7d59df355dcd99d6bcfab95fd925ca098f38660405161104f9190613cfa565b60405180910390a25050505050565b60606040518060400160405280600581526020017f312e302e30000000000000000000000000000000000000000000000000000000815250905090565b6060600060608060608060606000806060600060606110b86127ae565b60358e6040516110c89190613c4e565b9081526020016040518091039020604051806101a0016040529081600082018054600181600116156101000203166002900480601f01602080910402602001604051908101604052809291908181526020018280546001816001161561010002031660029004801561117b5780601f106111505761010080835404028352916020019161117b565b820191906000526020600020905b81548152906001019060200180831161115e57829003601f168201915b505050505081526020016001820160009054906101000a900463ffffffff1663ffffffff1663ffffffff1681526020016001820160049054906101000a900473ffffffffffffffffffffffffffffffffffffffff1673ffffffffffffffffffffffffffffffffffffffff1673ffffffffffffffffffffffffffffffffffffffff168152602001600282018054600181600116156101000203166002900480601f0160208091040260200160405190810160405280929190818152602001828054600181600116156101000203166002900480156112995780601f1061126e57610100808354040283529160200191611299565b820191906000526020600020905b81548152906001019060200180831161127c57829003601f168201915b50505050508152602001600382018054600181600116156101000203166002900480601f01602080910402602001604051908101604052809291908181526020018280546001816001161561010002031660029004801561133b5780601f106113105761010080835404028352916020019161133b565b820191906000526020600020905b81548152906001019060200180831161131e57829003601f168201915b50505050508152602001600482018054600181600116156101000203166002900480601f0160208091040260200160405190810160405280929190818152602001828054600181600116156101000203166002900480156113dd5780601f106113b2576101008083540402835291602001916113dd565b820191906000526020600020905b8154815290600101906020018083116113c057829003601f168201915b50505050508152602001600582018054600181600116156101000203166002900480601f01602080910402602001604051908101604052809291908181526020018280546001816001161561010002031660029004801561147f5780601f106114545761010080835404028352916020019161147f565b820191906000526020600020905b81548152906001019060200180831161146257829003601f168201915b50505050508152602001600682018054600181600116156101000203166002900480601f0160208091040260200160405190810160405280929190818152602001828054600181600116156101000203166002900480156115215780601f106114f657610100808354040283529160200191611521565b820191906000526020600020905b81548152906001019060200180831161150457829003601f168201915b505050505081526020016007820160009054906101000a900463ffffffff1663ffffffff1663ffffffff1681526020016007820160049054906101000a900460ff16600381111561156e57fe5b600381111561157957fe5b8152602001600882018054600181600116156101000203166002900480601f0160208091040260200160405190810160405280929190818152602001828054600181600116156101000203166002900480156116165780601f106115eb57610100808354040283529160200191611616565b820191906000526020600020905b8154815290600101906020018083116115f957829003601f168201915b505050505081526020016009820160009054906101000a900460ff16151515158152602001600a82018054806020026020016040519081016040528092919081815260200182805480156116bf57602002820191906000526020600020905b8160009054906101000a900473ffffffffffffffffffffffffffffffffffffffff1673ffffffffffffffffffffffffffffffffffffffff1681526020019060010190808311611675575b505050505081525050905080600001518160400151826060015183608001518460a001518560c001518660e001518761010001518861012001518961014001518a61016001518b61018001518b9b508999508898508797508696508595508292508090509c509c509c509c509c509c509c509c509c509c509c509c505091939597999b5091939597999b565b600080611756612528565b9050600060358460405161176a9190613c4e565b9081526020016040518091039020905080600b0160008373ffffffffffffffffffffffffffffffffffffffff1673ffffffffffffffffffffffffffffffffffffffff16815260200190815260200160002060009054906101000a900460ff1692505050919050565b6117da6104ad565b73ffffffffffffffffffffffffffffffffffffffff163373ffffffffffffffffffffffffffffffffffffffff1614611847576040517f08c379a000000000000000000000000000000000000000000000000000000000815260040161183e90613ece565b60405180910390fd5b61189785858080601f016020809104026020016040519081016040528093929190818152602001838380828437600081840152601f19601f82011690508083019250505050505050848484612720565b5050505050565b875189511480156118b0575086518851145b80156118bd575085518751145b80156118ca575084518651145b80156118d7575083518551145b80156118e4575082518451145b80156118f1575081518351145b80156118fe575080518251145b61193d576040517f08c379a000000000000000000000000000000000000000000000000000000000815260040161193490613e4e565b60405180910390fd5b600088519050600061194d612528565b90506000603660008373ffffffffffffffffffffffffffffffffffffffff1673ffffffffffffffffffffffffffffffffffffffff16815260200190815260200160002080549050905060008090505b8362ffffff168163ffffffff161015611d9a57600060358e8363ffffffff16815181106119c557fe5b60200260200101516040516119da9190613c37565b908152602001604051809103902090508d8263ffffffff16815181106119fc57fe5b6020026020010151816000019080519060200190611a1b92919061294f565b508183018160010160006101000a81548163ffffffff021916908363ffffffff160217905550838160010160046101000a81548173ffffffffffffffffffffffffffffffffffffffff021916908373ffffffffffffffffffffffffffffffffffffffff1602179055508c8263ffffffff1681518110611a9657fe5b6020026020010151816002019080519060200190611ab592919061294f565b508b8263ffffffff1681518110611ac857fe5b6020026020010151816003019080519060200190611ae792919061294f565b508a8263ffffffff1681518110611afa57fe5b6020026020010151816004019080519060200190611b1992919061294f565b50898263ffffffff1681518110611b2c57fe5b6020026020010151816005019080519060200190611b4b92919061294f565b50888263ffffffff1681518110611b5e57fe5b6020026020010151816006019080519060200190611b7d92919061294f565b50878263ffffffff1681518110611b9057fe5b60200260200101518160070160006101000a81548163ffffffff021916908363ffffffff160217905550868263ffffffff1681518110611bcc57fe5b60200260200101518160070160046101000a81548160ff02191690836003811115611bf357fe5b0217905550858263ffffffff1681518110611c0a57fe5b6020026020010151816008019080519060200190611c2992919061294f565b5060008160090160006101000a81548160ff0219169083151502179055506000604051908082528060200260200182016040528015611c775781602001602082028038833980820191505090505b5081600a019080519060200190611c8f929190612a82565b50603660008573ffffffffffffffffffffffffffffffffffffffff1673ffffffffffffffffffffffffffffffffffffffff1681526020019081526020016000208e8363ffffffff1681518110611ce157fe5b60200260200101519080600181540180825580915050906001820390600052602060002001600090919290919091509080519060200190611d2392919061294f565b50508373ffffffffffffffffffffffffffffffffffffffff167f735a8465cb95c1119a0a9c5bfe794f848896e77bf9ba97f9115c49a08e5b54eb8f8463ffffffff1681518110611d6f57fe5b6020026020010151604051611d849190613cd8565b60405180910390a250808060010191505061199c565b50505050505050505050505050565b88518a51148015611dbb575087518951145b8015611dc8575086518851145b8015611dd5575085518751145b8015611de2575084518651145b8015611def575083518551145b8015611dfc575082518451145b8015611e09575081518351145b8015611e16575080518251145b611e55576040517f08c379a0000000000000000000000000000000000000000000000000000000008152600401611e4c90613e4e565b60405180910390fd5b600089519050600060366000611e69612528565b73ffffffffffffffffffffffffffffffffffffffff1673ffffffffffffffffffffffffffffffffffffffff16815260200190815260200160002080549050905060008090505b8262ffffff168163ffffffff16101561237457600060358e8363ffffffff1681518110611ed857fe5b6020026020010151604051611eed9190613c37565b908152602001604051809103902090508d8263ffffffff1681518110611f0f57fe5b6020026020010151816000019080519060200190611f2e92919061294f565b508183018160010160006101000a81548163ffffffff021916908363ffffffff160217905550611f5c612528565b8160010160046101000a81548173ffffffffffffffffffffffffffffffffffffffff021916908373ffffffffffffffffffffffffffffffffffffffff1602179055508c8263ffffffff1681518110611fb057fe5b6020026020010151816002019080519060200190611fcf92919061294f565b508b8263ffffffff1681518110611fe257fe5b602002602001015181600301908051906020019061200192919061294f565b508a8263ffffffff168151811061201457fe5b602002602001015181600401908051906020019061203392919061294f565b50898263ffffffff168151811061204657fe5b602002602001015181600501908051906020019061206592919061294f565b50888263ffffffff168151811061207857fe5b602002602001015181600601908051906020019061209792919061294f565b50878263ffffffff16815181106120aa57fe5b60200260200101518160070160006101000a81548163ffffffff021916908363ffffffff160217905550868263ffffffff16815181106120e657fe5b60200260200101518160070160046101000a81548160ff0219169083600381111561210d57fe5b0217905550858263ffffffff168151811061212457fe5b602002602001015181600801908051906020019061214392919061294f565b50848263ffffffff168151811061215657fe5b6020026020010151156121f55760018160090160006101000a81548160ff0219169083151502179055506040518060200160405280603460009054906101000a900473ffffffffffffffffffffffffffffffffffffffff1673ffffffffffffffffffffffffffffffffffffffff1673ffffffffffffffffffffffffffffffffffffffff1681525081600a019060016121ef929190612b0c565b5061225c565b60008160090160006101000a81548160ff02191690831515021790555060006040519080825280602002602001820160405280156122425781602001602082028038833980820191505090505b5081600a01908051906020019061225a929190612a82565b505b60366000612268612528565b73ffffffffffffffffffffffffffffffffffffffff1673ffffffffffffffffffffffffffffffffffffffff1681526020019081526020016000208e8363ffffffff16815181106122b457fe5b602002602001015190806001815401808255809150509060018203906000526020600020016000909192909190915090805190602001906122f692919061294f565b5050612300612528565b73ffffffffffffffffffffffffffffffffffffffff167f735a8465cb95c1119a0a9c5bfe794f848896e77bf9ba97f9115c49a08e5b54eb8f8463ffffffff168151811061234957fe5b602002602001015160405161235e9190613cd8565b60405180910390a2508080600101915050611eaf565b50505050505050505050505050565b6000603360009054906101000a900473ffffffffffffffffffffffffffffffffffffffff169050600073ffffffffffffffffffffffffffffffffffffffff168273ffffffffffffffffffffffffffffffffffffffff16141561241a576040517f08c379a000000000000000000000000000000000000000000000000000000000815260040161241190613e2e565b60405180910390fd5b8073ffffffffffffffffffffffffffffffffffffffff168273ffffffffffffffffffffffffffffffffffffffff161415612489576040517f08c379a000000000000000000000000000000000000000000000000000000000815260040161248090613eae565b60405180910390fd5b8173ffffffffffffffffffffffffffffffffffffffff168173ffffffffffffffffffffffffffffffffffffffff167fb9f84b8e65164b14439ae3620df0a4d8786d896996c0282b683f9d8c08f046e860405160405180910390a381603360006101000a81548173ffffffffffffffffffffffffffffffffffffffff021916908373ffffffffffffffffffffffffffffffffffffffff1602179055505050565b6000603360009054906101000a900473ffffffffffffffffffffffffffffffffffffffff1673ffffffffffffffffffffffffffffffffffffffff163373ffffffffffffffffffffffffffffffffffffffff161461258757339050612592565b61258f612726565b90505b90565b6000919050565b6000803090506000813b9050600081149250505090565b600060019054906101000a900460ff16806125d257506125d161259c565b5b806125e957506000809054906101000a900460ff16155b612628576040517f08c379a000000000000000000000000000000000000000000000000000000000815260040161261f90613e8e565b60405180910390fd5b60008060019054906101000a900460ff161590508015612678576001600060016101000a81548160ff02191690831515021790555060016000806101000a81548160ff0219169083151502179055505b600073ffffffffffffffffffffffffffffffffffffffff16603360009054906101000a900473ffffffffffffffffffffffffffffffffffffffff1673ffffffffffffffffffffffffffffffffffffffff1614156126d8576126d7610329565b5b80156126f95760008060016101000a81548160ff0219169083151502179055505b50565b600060606127186040518060200160405280600081525061279e565b915091509091565b50505050565b600060606000368080601f016020809104026020016040519081016040528093929190818152602001838380828437600081840152601f19601f820116905080830192505050505050509050600080369050905073ffffffffffffffffffffffffffffffffffffffff81830151169250829250505090565b6000606060008391509150915091565b604051806101a0016040528060608152602001600063ffffffff168152602001600073ffffffffffffffffffffffffffffffffffffffff1681526020016060815260200160608152602001606081526020016060815260200160608152602001600063ffffffff1681526020016000600381111561282857fe5b815260200160608152602001600015158152602001606081525090565b828054600181600116156101000203166002900490600052602060002090601f016020900481019282601f1061288657805160ff19168380011785556128b4565b828001600101855582156128b4579182015b828111156128b3578251825591602001919060010190612898565b5b5090506128c19190612b96565b5090565b82805482825590600052602060002090810192821561293e579160200282015b8281111561293d5782518260006101000a81548173ffffffffffffffffffffffffffffffffffffffff021916908373ffffffffffffffffffffffffffffffffffffffff160217905550916020019190600101906128e5565b5b50905061294b9190612bbb565b5090565b828054600181600116156101000203166002900490600052602060002090601f016020900481019282601f1061299057805160ff19168380011785556129be565b828001600101855582156129be579182015b828111156129bd5782518255916020019190600101906129a2565b5b5090506129cb9190612b96565b5090565b828054600181600116156101000203166002900490600052602060002090601f016020900481019282601f10612a085780548555612a45565b82800160010185558215612a4557600052602060002091601f016020900482015b82811115612a44578254825591600101919060010190612a29565b5b509050612a529190612b96565b5090565b815481835581811115612a7d57818360005260206000209182019101612a7c9190612bfe565b5b505050565b828054828255906000526020600020908101928215612afb579160200282015b82811115612afa5782518260006101000a81548173ffffffffffffffffffffffffffffffffffffffff021916908373ffffffffffffffffffffffffffffffffffffffff16021790555091602001919060010190612aa2565b5b509050612b089190612bbb565b5090565b828054828255906000526020600020908101928215612b85579160200282015b82811115612b845782518260006101000a81548173ffffffffffffffffffffffffffffffffffffffff021916908373ffffffffffffffffffffffffffffffffffffffff16021790555091602001919060010190612b2c565b5b509050612b929190612bbb565b5090565b612bb891905b80821115612bb4576000816000905550600101612b9c565b5090565b90565b612bfb91905b80821115612bf757600081816101000a81549073ffffffffffffffffffffffffffffffffffffffff021916905550600101612bc1565b5090565b90565b612c2791905b80821115612c235760008181612c1a9190612c2a565b50600101612c04565b5090565b90565b50805460018160011615610100020316600290046000825580601f10612c505750612c6f565b601f016020900490600052602060002090810190612c6e9190612b96565b5b50565b600081359050612c81816141fb565b92915050565b600082601f830112612c9857600080fd5b8135612cab612ca682613f4b565b613f1e565b91508181835260208401935060208101905083856020840282011115612cd057600080fd5b60005b83811015612d005781612ce68882612e84565b845260208401935060208301925050600181019050612cd3565b5050505092915050565b600082601f830112612d1b57600080fd5b8135612d2e612d2982613f73565b613f1e565b91508181835260208401935060208101905083856020840282011115612d5357600080fd5b60005b83811015612d835781612d698882612ef8565b845260208401935060208301925050600181019050612d56565b5050505092915050565b600082601f830112612d9e57600080fd5b8135612db1612dac82613f9b565b613f1e565b9150818183526020840193506020810190508360005b83811015612df75781358601612ddd8882612f0d565b845260208401935060208301925050600181019050612dc7565b5050505092915050565b600082601f830112612e1257600080fd5b8135612e25612e2082613fc3565b613f1e565b91508181835260208401935060208101905083856020840282011115612e4a57600080fd5b60005b83811015612e7a5781612e608882612fca565b845260208401935060208301925050600181019050612e4d565b5050505092915050565b600081359050612e9381614212565b92915050565b600081359050612ea881614229565b92915050565b60008083601f840112612ec057600080fd5b8235905067ffffffffffffffff811115612ed957600080fd5b602083019150836001820283011115612ef157600080fd5b9250929050565b600081359050612f0781614240565b92915050565b600082601f830112612f1e57600080fd5b8135612f31612f2c82613feb565b613f1e565b91508082526020830160208301858383011115612f4d57600080fd5b612f5883828461419b565b50505092915050565b600082601f830112612f7257600080fd5b8135612f85612f8082614017565b613f1e565b91508082526020830160208301858383011115612fa157600080fd5b612fac83828461419b565b50505092915050565b600081359050612fc481614250565b92915050565b600081359050612fd981614267565b92915050565b600060208284031215612ff157600080fd5b6000612fff84828501612c72565b91505092915050565b60008060008060008060008060008060006101208c8e03121561302a57600080fd5b60006130388e828f01612c72565b9b505060206130498e828f01612c72565b9a505060408c013567ffffffffffffffff81111561306657600080fd5b6130728e828f01612eae565b995099505060606130858e828f01612fb5565b97505060806130968e828f01612fb5565b96505060a06130a78e828f01612fb5565b95505060c06130b88e828f01612fb5565b94505060e08c013567ffffffffffffffff8111156130d557600080fd5b6130e18e828f01612eae565b93509350506101006130f58e828f01612fb5565b9150509295989b509295989b9093969950565b60008060008060008060008060006101208a8c03121561312757600080fd5b60008a013567ffffffffffffffff81111561314157600080fd5b61314d8c828d01612d8d565b99505060208a013567ffffffffffffffff81111561316a57600080fd5b6131768c828d01612d8d565b98505060408a013567ffffffffffffffff81111561319357600080fd5b61319f8c828d01612d8d565b97505060608a013567ffffffffffffffff8111156131bc57600080fd5b6131c88c828d01612d8d565b96505060808a013567ffffffffffffffff8111156131e557600080fd5b6131f18c828d01612d8d565b95505060a08a013567ffffffffffffffff81111561320e57600080fd5b61321a8c828d01612d8d565b94505060c08a013567ffffffffffffffff81111561323757600080fd5b6132438c828d01612e01565b93505060e08a013567ffffffffffffffff81111561326057600080fd5b61326c8c828d01612d0a565b9250506101008a013567ffffffffffffffff81111561328a57600080fd5b6132968c828d01612d8d565b9150509295985092959850929598565b6000806000806000806000806000806101408b8d0312156132c657600080fd5b60008b013567ffffffffffffffff8111156132e057600080fd5b6132ec8d828e01612d8d565b9a505060208b013567ffffffffffffffff81111561330957600080fd5b6133158d828e01612d8d565b99505060408b013567ffffffffffffffff81111561333257600080fd5b61333e8d828e01612d8d565b98505060608b013567ffffffffffffffff81111561335b57600080fd5b6133678d828e01612d8d565b97505060808b013567ffffffffffffffff81111561338457600080fd5b6133908d828e01612d8d565b96505060a08b013567ffffffffffffffff8111156133ad57600080fd5b6133b98d828e01612d8d565b95505060c08b013567ffffffffffffffff8111156133d657600080fd5b6133e28d828e01612e01565b94505060e08b013567ffffffffffffffff8111156133ff57600080fd5b61340b8d828e01612d0a565b9350506101008b013567ffffffffffffffff81111561342957600080fd5b6134358d828e01612d8d565b9250506101208b013567ffffffffffffffff81111561345357600080fd5b61345f8d828e01612c87565b9150509295989b9194979a5092959850565b6000806020838503121561348457600080fd5b600083013567ffffffffffffffff81111561349e57600080fd5b6134aa85828601612eae565b92509250509250929050565b6000806000806000608086880312156134ce57600080fd5b600086013567ffffffffffffffff8111156134e857600080fd5b6134f488828901612eae565b9550955050602061350788828901612e84565b935050604061351888828901612fb5565b925050606061352988828901612e99565b9150509295509295909350565b60006020828403121561354857600080fd5b600082013567ffffffffffffffff81111561356257600080fd5b61356e84828501612f61565b91505092915050565b60008060008060008060008060006101208a8c03121561359657600080fd5b60008a013567ffffffffffffffff8111156135b057600080fd5b6135bc8c828d01612f61565b99505060208a013567ffffffffffffffff8111156135d957600080fd5b6135e58c828d01612f61565b98505060408a013567ffffffffffffffff81111561360257600080fd5b61360e8c828d01612f61565b97505060608a013567ffffffffffffffff81111561362b57600080fd5b6136378c828d01612f61565b96505060808a013567ffffffffffffffff81111561365457600080fd5b6136608c828d01612f61565b95505060a08a013567ffffffffffffffff81111561367d57600080fd5b6136898c828d01612f61565b94505060c061369a8c828d01612fca565b93505060e06136ab8c828d01612ef8565b9250506101008a013567ffffffffffffffff8111156136c957600080fd5b6136d58c828d01612f61565b9150509295985092959850929598565b60006136f18383613711565b60208301905092915050565b600061370983836138d2565b905092915050565b61371a81614114565b82525050565b61372981614114565b82525050565b600061373a82614063565b61374481856140b4565b935061374f83614043565b8060005b8381101561378057815161376788826136e5565b97506137728361409a565b925050600181019050613753565b5085935050505092915050565b60006137988261406e565b6137a281856140c5565b9350836020820285016137b485614053565b8060005b858110156137f057848403895281516137d185826136fd565b94506137dc836140a7565b925060208a019950506001810190506137b8565b50829750879550505050505092915050565b61380b81614126565b82525050565b61381a81614132565b82525050565b600061382b82614079565b61383581856140d6565b93506138458185602086016141aa565b61384e816141dd565b840191505092915050565b61386281614189565b82525050565b60006138738261408f565b61387d81856140f8565b935061388d8185602086016141aa565b613896816141dd565b840191505092915050565b60006138ac8261408f565b6138b68185614109565b93506138c68185602086016141aa565b80840191505092915050565b60006138dd82614084565b6138e781856140e7565b93506138f78185602086016141aa565b613900816141dd565b840191505092915050565b600061391682614084565b61392081856140f8565b93506139308185602086016141aa565b613939816141dd565b840191505092915050565b600061394f82614084565b6139598185614109565b93506139698185602086016141aa565b80840191505092915050565b60006139826035836140f8565b91507f4f7065726174696f6e206e6f74207065726d697474656420666f72207468652060008301527f617574686f72206f6620746865207265766965772e00000000000000000000006020830152604082019050919050565b60006139e8602e836140f8565b91507f47534e526563697069656e743a206e65772052656c617948756220697320746860008301527f65207a65726f20616464726573730000000000000000000000000000000000006020830152604082019050919050565b6000613a4e601c836140f8565b91507f506172616d65746572206c656e6774687320646f6e74206d61746368000000006000830152602082019050919050565b6000613a8e6036836140f8565b91507f4f7065726174696f6e207065726d697474656420666f7220746865206175746860008301527f6f72206f662074686520726576696577206f6e6c792e000000000000000000006020830152604082019050919050565b6000613af4602e836140f8565b91507f436f6e747261637420696e7374616e63652068617320616c726561647920626560008301527f656e20696e697469616c697a65640000000000000000000000000000000000006020830152604082019050919050565b6000613b5a602d836140f8565b91507f47534e526563697069656e743a206e65772052656c617948756220697320746860008301527f652063757272656e74206f6e65000000000000000000000000000000000000006020830152604082019050919050565b6000613bc06024836140f8565b91507f47534e526563697069656e743a2063616c6c6572206973206e6f742052656c6160008301527f79487562000000000000000000000000000000000000000000000000000000006020830152604082019050919050565b613c228161416f565b82525050565b613c3181614179565b82525050565b6000613c438284613944565b915081905092915050565b6000613c5a82846138a1565b915081905092915050565b6000602082019050613c7a6000830184613720565b92915050565b60006020820190508181036000830152613c9a818461378d565b905092915050565b6000602082019050613cb76000830184613802565b92915050565b6000602082019050613cd26000830184613811565b92915050565b60006020820190508181036000830152613cf2818461390b565b905092915050565b60006020820190508181036000830152613d148184613868565b905092915050565b6000610180820190508181036000830152613d37818f613868565b9050613d46602083018e613720565b8181036040830152613d58818d613868565b90508181036060830152613d6c818c613868565b90508181036080830152613d80818b613868565b905081810360a0830152613d94818a613868565b905081810360c0830152613da88189613868565b9050613db760e0830188613c28565b613dc5610100830187613859565b818103610120830152613dd88186613868565b9050613de8610140830185613802565b818103610160830152613dfb818461372f565b90509d9c50505050505050505050505050565b60006020820190508181036000830152613e2781613975565b9050919050565b60006020820190508181036000830152613e47816139db565b9050919050565b60006020820190508181036000830152613e6781613a41565b9050919050565b60006020820190508181036000830152613e8781613a81565b9050919050565b60006020820190508181036000830152613ea781613ae7565b9050919050565b60006020820190508181036000830152613ec781613b4d565b9050919050565b60006020820190508181036000830152613ee781613bb3565b9050919050565b6000604082019050613f036000830185613c19565b8181036020830152613f158184613820565b90509392505050565b6000604051905081810181811067ffffffffffffffff82111715613f4157600080fd5b8060405250919050565b600067ffffffffffffffff821115613f6257600080fd5b602082029050602081019050919050565b600067ffffffffffffffff821115613f8a57600080fd5b602082029050602081019050919050565b600067ffffffffffffffff821115613fb257600080fd5b602082029050602081019050919050565b600067ffffffffffffffff821115613fda57600080fd5b602082029050602081019050919050565b600067ffffffffffffffff82111561400257600080fd5b601f19601f8301169050602081019050919050565b600067ffffffffffffffff82111561402e57600080fd5b601f19601f8301169050602081019050919050565b6000819050602082019050919050565b6000819050602082019050919050565b600081519050919050565b600081519050919050565b600081519050919050565b600081519050919050565b600081519050919050565b6000602082019050919050565b6000602082019050919050565b600082825260208201905092915050565b600082825260208201905092915050565b600082825260208201905092915050565b600082825260208201905092915050565b600082825260208201905092915050565b600081905092915050565b600061411f8261414f565b9050919050565b60008115159050919050565b6000819050919050565b600081905061414a826141ee565b919050565b600073ffffffffffffffffffffffffffffffffffffffff82169050919050565b6000819050919050565b600063ffffffff82169050919050565b60006141948261413c565b9050919050565b82818337600083830152505050565b60005b838110156141c85780820151818401526020810190506141ad565b838111156141d7576000848401525b50505050565b6000601f19601f8301169050919050565b600481106141f857fe5b50565b61420481614114565b811461420f57600080fd5b50565b61421b81614126565b811461422657600080fd5b50565b61423281614132565b811461423d57600080fd5b50565b6004811061424d57600080fd5b50565b6142598161416f565b811461426457600080fd5b50565b61427081614179565b811461427b57600080fd5b5056fea365627a7a72315820bdb7f5213e49e0be750c3c7de1488625acbc11033d19cf83ddd8dca068d1bb2b6c6578706572696d656e74616cf564736f6c63430005110040",
  "compiler": {
    "name": "solc",
    "version": "0.5.17+commit.d19bba13.Emscripten.clang",
    "optimizer": {
      "enabled": false,
      "runs": 200
    },
    "evmVersion": "petersburg"
  }
}