{
  "contractName": "ReviewStorage",
  "abi": [
    {
      "constant": false,
      "inputs": [
        {
          "name": "journalId",
          "type": "string"
        },
        {
          "name": "manuscriptId",
          "type": "string"
        },
        {
          "name": "manuscriptHash",
          "type": "string"
        },
        {
          "name": "timestamp",
          "type": "uint32"
        },
        {
          "name": "recommendation",
          "type": "uint8"
        }
      ],
      "name": "addReview",
      "outputs": [],
      "payable": false,
      "stateMutability": "nonpayable",
      "type": "function"
    },
    {
      "constant": true,
      "inputs": [
        {
          "name": "addr",
          "type": "address"
        },
        {
          "name": "i",
          "type": "uint8"
        }
      ],
      "name": "getReview",
      "outputs": [
        {
          "name": "",
          "type": "string"
        },
        {
          "name": "",
          "type": "string"
        },
        {
          "name": "",
          "type": "string"
        },
        {
          "name": "",
          "type": "uint32"
        },
        {
          "name": "",
          "type": "uint8"
        },
        {
          "name": "",
          "type": "bool"
        },
        {
          "name": "",
          "type": "address[]"
        }
      ],
      "payable": false,
      "stateMutability": "view",
      "type": "function"
    },
    {
      "constant": false,
      "inputs": [
        {
          "name": "addr",
          "type": "address"
        },
        {
          "name": "index",
          "type": "uint8"
        }
      ],
      "name": "vouch",
      "outputs": [],
      "payable": false,
      "stateMutability": "nonpayable",
      "type": "function"
    },
    {
      "constant": true,
      "inputs": [
        {
          "name": "addr",
          "type": "address"
        },
        {
          "name": "index",
          "type": "uint8"
        }
      ],
      "name": "hasVouched",
      "outputs": [
        {
          "name": "",
          "type": "bool"
        }
      ],
      "payable": false,
      "stateMutability": "view",
      "type": "function"
    },
    {
      "constant": true,
      "inputs": [
        {
          "name": "i",
          "type": "uint8"
        }
      ],
      "name": "getNumber",
      "outputs": [
        {
          "name": "",
          "type": "uint256"
        }
      ],
      "payable": false,
      "stateMutability": "pure",
      "type": "function"
    }
  ],
  "bytecode": "0x608060405234801561001057600080fd5b50611038806100206000396000f3fe608060405234801561001057600080fd5b50600436106100575760003560e01c8063089c0f161461005c578063111d857314610279578063164e19171461047f578063df864adb146104d0578063fa54a35614610515575b600080fd5b6100ab6004803603604081101561007257600080fd5b81019080803573ffffffffffffffffffffffffffffffffffffffff169060200190929190803560ff16906020019092919050505061057e565b604051808060200180602001806020018863ffffffff1663ffffffff1681526020018760028111156100d957fe5b60ff168152602001861515151581526020018060200185810385528c818151815260200191508051906020019080838360005b8381101561012757808201518184015260208101905061010c565b50505050905090810190601f1680156101545780820380516001836020036101000a031916815260200191505b5085810384528b818151815260200191508051906020019080838360005b8381101561018d578082015181840152602081019050610172565b50505050905090810190601f1680156101ba5780820380516001836020036101000a031916815260200191505b5085810383528a818151815260200191508051906020019080838360005b838110156101f35780820151818401526020810190506101d8565b50505050905090810190601f1680156102205780820380516001836020036101000a031916815260200191505b50858103825286818151815260200191508051906020019060200280838360005b8381101561025c578082015181840152602081019050610241565b505050509050019b50505050505050505050505060405180910390f35b61047d600480360360a081101561028f57600080fd5b81019080803590602001906401000000008111156102ac57600080fd5b8201836020820111156102be57600080fd5b803590602001918460018302840111640100000000831117156102e057600080fd5b91908080601f016020809104026020016040519081016040528093929190818152602001838380828437600081840152601f19601f8201169050808301925050505050505091929192908035906020019064010000000081111561034357600080fd5b82018360208201111561035557600080fd5b8035906020019184600183028401116401000000008311171561037757600080fd5b91908080601f016020809104026020016040519081016040528093929190818152602001838380828437600081840152601f19601f820116905080830192505050505050509192919290803590602001906401000000008111156103da57600080fd5b8201836020820111156103ec57600080fd5b8035906020019184600183028401116401000000008311171561040e57600080fd5b91908080601f016020809104026020016040519081016040528093929190818152602001838380828437600081840152601f19601f820116905080830192505050505050509192919290803563ffffffff169060200190929190803560ff1690602001909291905050506109e8565b005b6104ce6004803603604081101561049557600080fd5b81019080803573ffffffffffffffffffffffffffffffffffffffff169060200190929190803560ff169060200190929190505050610bc9565b005b6104ff600480360360208110156104e657600080fd5b81019080803560ff169060200190929190505050610d7f565b6040518082815260200191505060405180910390f35b6105646004803603604081101561052b57600080fd5b81019080803573ffffffffffffffffffffffffffffffffffffffff169060200190929190803560ff169060200190929190505050610d8c565b604051808215151515815260200191505060405180910390f35b60608060606000806000606080600160008b73ffffffffffffffffffffffffffffffffffffffff1673ffffffffffffffffffffffffffffffffffffffff168152602001908152602001600020805480602002602001604051908101604052809291908181526020016000905b828210156108fe57838290600052602060002090600602016040518060e0016040529081600082018054600181600116156101000203166002900480601f0160208091040260200160405190810160405280929190818152602001828054600181600116156101000203166002900480156106a65780601f1061067b576101008083540402835291602001916106a6565b820191906000526020600020905b81548152906001019060200180831161068957829003601f168201915b50505050508152602001600182018054600181600116156101000203166002900480601f0160208091040260200160405190810160405280929190818152602001828054600181600116156101000203166002900480156107485780601f1061071d57610100808354040283529160200191610748565b820191906000526020600020905b81548152906001019060200180831161072b57829003601f168201915b50505050508152602001600282018054600181600116156101000203166002900480601f0160208091040260200160405190810160405280929190818152602001828054600181600116156101000203166002900480156107ea5780601f106107bf576101008083540402835291602001916107ea565b820191906000526020600020905b8154815290600101906020018083116107cd57829003601f168201915b505050505081526020016003820160009054906101000a900463ffffffff1663ffffffff1663ffffffff1681526020016003820160049054906101000a900460ff16600281111561083757fe5b600281111561084257fe5b81526020016003820160059054906101000a900460ff16151515158152602001600482018054806020026020016040519081016040528092919081815260200182805480156108e657602002820191906000526020600020905b8160009054906101000a900473ffffffffffffffffffffffffffffffffffffffff1673ffffffffffffffffffffffffffffffffffffffff168152602001906001019080831161089c575b505050505081525050815260200190600101906105ea565b505050509050808960ff168151811061091357fe5b602002602001015160000151818a60ff168151811061092e57fe5b602002602001015160200151828b60ff168151811061094957fe5b602002602001015160400151838c60ff168151811061096457fe5b602002602001015160600151848d60ff168151811061097f57fe5b602002602001015160800151858e60ff168151811061099a57fe5b602002602001015160a00151868f60ff16815181106109b557fe5b602002602001015160c0015186965085955084945080905097509750975097509750975097505092959891949750929550565b60003390506109f5610e4a565b6040518060e001604052808881526020018781526020018681526020018563ffffffff168152602001846002811115610a2a57fe5b81526020016000151581526020016000604051908082528060200260200182016040528015610a685781602001602082028038833980820191505090505b508152509050600160008373ffffffffffffffffffffffffffffffffffffffff1673ffffffffffffffffffffffffffffffffffffffff16815260200190815260200160002081908060018154018082558091505090600182039060005260206000209060060201600090919290919091506000820151816000019080519060200190610af5929190610e9a565b506020820151816001019080519060200190610b12929190610e9a565b506040820151816002019080519060200190610b2f929190610e9a565b5060608201518160030160006101000a81548163ffffffff021916908363ffffffff16021790555060808201518160030160046101000a81548160ff02191690836002811115610b7b57fe5b021790555060a08201518160030160056101000a81548160ff02191690831515021790555060c0820151816004019080519060200190610bbc929190610f1a565b5050505050505050505050565b60003390506000600160008573ffffffffffffffffffffffffffffffffffffffff1673ffffffffffffffffffffffffffffffffffffffff1681526020019081526020016000208360ff1681548110610c1d57fe5b90600052602060002090600602019050600015158160050160008473ffffffffffffffffffffffffffffffffffffffff1673ffffffffffffffffffffffffffffffffffffffff16815260200190815260200160002060009054906101000a900460ff1615151415610d4b57806004018290806001815401808255809150509060018203906000526020600020016000909192909190916101000a81548173ffffffffffffffffffffffffffffffffffffffff021916908373ffffffffffffffffffffffffffffffffffffffff1602179055505060018160050160008473ffffffffffffffffffffffffffffffffffffffff1673ffffffffffffffffffffffffffffffffffffffff16815260200190815260200160002060006101000a81548160ff0219169083151502179055505b600281600401805490501415610d795760018160030160056101000a81548160ff0219169083151502179055505b50505050565b60008160ff169050919050565b6000803390506000600160008673ffffffffffffffffffffffffffffffffffffffff1673ffffffffffffffffffffffffffffffffffffffff1681526020019081526020016000208460ff1681548110610de157fe5b906000526020600020906006020190508060050160008373ffffffffffffffffffffffffffffffffffffffff1673ffffffffffffffffffffffffffffffffffffffff16815260200190815260200160002060009054906101000a900460ff169250505092915050565b6040518060e00160405280606081526020016060815260200160608152602001600063ffffffff16815260200160006002811115610e8457fe5b8152602001600015158152602001606081525090565b828054600181600116156101000203166002900490600052602060002090601f016020900481019282601f10610edb57805160ff1916838001178555610f09565b82800160010185558215610f09579182015b82811115610f08578251825591602001919060010190610eed565b5b509050610f169190610fa4565b5090565b828054828255906000526020600020908101928215610f93579160200282015b82811115610f925782518260006101000a81548173ffffffffffffffffffffffffffffffffffffffff021916908373ffffffffffffffffffffffffffffffffffffffff16021790555091602001919060010190610f3a565b5b509050610fa09190610fc9565b5090565b610fc691905b80821115610fc2576000816000905550600101610faa565b5090565b90565b61100991905b8082111561100557600081816101000a81549073ffffffffffffffffffffffffffffffffffffffff021916905550600101610fcf565b5090565b9056fea165627a7a723058200c45da236800aa5dee83e6c7b24109348e8ee1594c9d555efc1a5b860a3b673d0029",
  "source": "pragma solidity ^0.5.0;\n\ncontract ReviewStorage {\n  address[] usersAddresses;\n  enum Recommendation { ACCEPT, REVISE, REJECT }\n  struct Review {\n    string journalId; // ISSN\n    string manuscriptId; // DOI?\n    string manuscriptHash;\n    uint32 timestamp; // Unix time (32 bits), when review is published\n    Recommendation recommendation;\n    bool verified;\n    address[] vouchers;\n    mapping(address => bool) vouchersMap;\n  }\n  mapping (address => Review[]) reviewsMap;\n\n\n  function addReview(string memory journalId, string memory manuscriptId, string memory manuscriptHash,\n   uint32 timestamp, Recommendation recommendation) public {\n    address sender = msg.sender;\n    Review memory review = Review({\n      journalId : journalId,\n      manuscriptId : manuscriptId,\n      manuscriptHash: manuscriptHash,\n      timestamp : timestamp,\n      recommendation : recommendation,\n      verified: false,\n      vouchers: new address[](0) // Init empty array\n    });\n    reviewsMap[sender].push(review);\n  }\n  // function getReviewCount() public view returns(uint32 count){\n  //   return reviewsMap[addr].length;\n  // }\n\n  // Get Review for any address.\n  // Can have another function to retrieve private information of msg.sender.\n  function getReview(address addr, uint8 i) public view returns (string memory, string memory,\n    string memory, uint32, Recommendation, bool, address[] memory) {\n    Review[] memory reviews = reviewsMap[addr];\n    return (reviews[i].journalId, reviews[i].manuscriptId, reviews[i].manuscriptHash,\n      reviews[i].timestamp, reviews[i].recommendation, reviews[i].verified, reviews[i].vouchers);\n  }\n\n  function vouch(address addr, uint8 index) public {\n    address voucher = msg.sender;\n    Review storage review = reviewsMap[addr][index];\n    if (review.vouchersMap[voucher] == false){ // If not vouched by current voucher\n      review.vouchers.push(voucher);\n      review.vouchersMap[voucher] = true;\n    }\n    if(review.vouchers.length == 2){\n      review.verified = true;\n    }\n  }\n\n  function hasVouched(address addr, uint8 index) public view returns(bool) {\n    address voucher = msg.sender;\n    Review storage review = reviewsMap[addr][index];\n    return review.vouchersMap[voucher];\n  }\n\n  function getNumber(uint8 i) public pure returns (uint) {\n    return (i);\n  }\n  // function verifyReview()\n}\n",
  "sourcePath": "/home/kuzdogan/Desktop/repos/peer-review-app/contracts/ReviewStorage.sol",
  "compiler": {
    "name": "solc",
    "version": "0.5.8+commit.23d335f2.Emscripten.clang"
  },
  "schemaVersion": "3.0.11",
  "updatedAt": "2019-10-08T15:00:43.657Z",
  "devdoc": {
    "methods": {}
  },
  "userdoc": {
    "methods": {}
  }
}